:020000040800F2
:10000000900D00207D0200080D3B000841330008E0
:100010002D350008FF1D0008C14400080000000045
:10002000000000000000000000000000513F000838
:100030007B200008000000000D3D00085942000828
:10004000970200089702000897020008970200082C
:10005000970200089702000897020008970200081C
:10006000970200089702000897020008970200080C
:1000700097020008970200089702000897020008FC
:1000800097020008970200089702000897020008EC
:1000900097020008970200089702000897020008DC
:1000A00097020008970200089702000897020008CC
:1000B00097020008970200089702000897020008BC
:1000C00097020008970200089702000897020008AC
:1000D000970200089702000897020008970200089C
:1000E00097020008970200089702000800F002F843
:1000F00000F0B4F80AA090E8000C82448344AAF10E
:100100000107DA4501D100F0A9F8AFF2090EBAE80B
:100110000F0013F0010F18BFFB1A43F0010318473B
:1001200080520000A05200000A444FF0000C10F86A
:10013000013B13F0070408BF10F8014B1D1108BF65
:1001400010F8015B641E05D010F8016B641E01F805
:10015000016BF9D113F0080F1EBF10F8014BAD1C55
:100160000C1B09D16D1E58BF01F801CBFAD505E073
:1001700014F8016B01F8016B6D1EF9D59142D6D3CD
:10018000704700000023002400250026103A28BFF5
:1001900078C1FBD8520728BF30C148BF0B607047F9
:1001A0006E2900F01782702900F06183662904F03F
:1001B0004885652904F04585672904F04285612951
:1001C00004F0418503681B0A28BF41F080016929BA
:1001D00000F0C481642900F0C181752900F0BE815E
:1001E0006F2900F0EE82782900F02D83E92900F0D4
:1001F0008982E42900F08682F52900F08382EF29C4
:1002000000F0EB82F82900F02C830368DB0928BF9B
:1002100041F08001632901F04D80732901F0528083
:10022000E32901F05D80F32901F06280002070472E
:100230001FB59DE8030000F0D1F801F0B3F8040009
:100240000020002104F08AFA401C60600020002198
:1002500004F06EFAE0601FBD10B510BD01F074F837
:100260001146FFF7E5FF04F0EFF901F051F903B48F
:10027000FFF7F2FF03BC01F081F900000948804755
:1002800009480047FEE7FEE7FEE7FEE7FEE7FEE778
:10029000FEE7FEE7FEE7FEE704480549054A064B90
:1002A00070470000BB420008ED00000890070020E6
:1002B000900D0020900900209009002070B506469E
:1002C00000F070F8056806F10B0020F00704B44256
:1002D0009CBF002070BD2B466A68BAB11068A0426E
:1002E00010D304F1080188423CBF5068586007D31E
:1002F0005168101941601168091B01605860146051
:10030000101D70BD13465268002AE7D121462846C9
:1003100000F050F80028DED170BD00007CB51D460D
:1003200016460C00009001D02044401E074B7B4431
:100330002A4669460190304600F065F905461CB131
:100340000020694600F072F928467CBD05030000D4
:100350004FF0000200B5134694469646203922BF5E
:10036000A0E80C50A0E80C50B1F12001BFF4F7AFA9
:10037000090728BFA0E80C5048BF0CC05DF804EB8B
:10038000890028BF40F8042B08BF704748BF20F8F9
:10039000022B11F0804F18BF00F8012B70477047F7
:1003A0007047704700487047340700207047704717
:1003B0007047704738B504460A4600206946AFF3D7
:1003C0000080002808BF38BD02460099204600F092
:1003D00021FB012038BD012000F0AEBFF8B5AFF31E
:1003E0000080054600200C46102000BF0646A819D4
:1003F000A0420DD9324669460020AFF300800700C5
:1004000008BF00F099FF0098A04218BF0546C41924
:10041000FFF7C8FF05600746F01D20F007004619EA
:10042000284600F00AF8B44208BFF8BDA21B3146C6
:100430003868BDE8F84000F0EDBA00210160C0E97D
:10044000011070471020704770B50446051FFFF774
:10045000A9FF0068002C14BF446870BD002C18BFB1
:10046000AC423CBF20466468F8D301680A18AA422F
:1004700018BF456003D12A68054611440160286809
:100480004119A1421CBF6C6070BD61686960216840
:100490000844286070BD70B5044685690068C106CF
:1004A00001D5302600E02026C00707D070BDD4E972
:1004B000012130469047206A401C20626D1EF6D50F
:1004C00070BD70B5044685690078C00707D170BD5E
:1004D000D4E9012120209047206A401C20626D1E33
:1004E000F6D570BD09684A0501D540B27047C90507
:1004F000FCD500B2704709684A0501D5C0B2704703
:10050000C905FCD580B2704770B50C460546012A76
:1005100005D02878800600D5EA69002302E001238F
:1005200005E05B1C934202D2E05C0028F9D1A86987
:10053000E618C01AA861286A184428622846FFF7FE
:10054000AAFF04E0D5E9012114F8010B9047B44259
:10055000F8D32846FFF7B5FF70BD00002DE9F04144
:100560000646002410687529314616A510D0FFF7FD
:10057000B9FF002802DA404213A507E031688A0774
:1005800001D512A502E0490704D511A5012401E017
:10059000FFF7B1FF00210A2206F1240709E0B0FBB2
:1005A000F2FCB0FBF2F302FB1C003030785418462A
:1005B000491C0028F3D123462A463046BDE8F041C5
:1005C00000F087BA000000002D0000002B000000A2
:1005D0002000000011680268006A530501D5087008
:1005E0000AE0D30501D5088006E0130603D5C2173B
:1005F000C1E9000200E008600120704701694A1C5F
:1006000002610878704700B58FB0CDE90131002153
:10061000059105497944CDE903101146684600F07B
:1006200031F90FB000BD0000E5FFFFFF0A6802F8D6
:10063000010B0A607047D1E900239A4202D2531C91
:100640000B601070704700002DE9FF5F15468A4669
:100650000446DFF8AC80F8440027D8E900103E4695
:10066000CDE9001010E03AF816106A4602A800F032
:1006700043FE411C07D02178890603D5E269391869
:1006800091420DD80744761C2078800602D5E06997
:10069000B84205DDAE42E6DB3AF816000028E2D1AA
:1006A000A069C01BA0612046FFF7F5FED8E9001045
:1006B000CDE90010002017E03AF818106A4602A8A9
:1006C00000F01AFEB0F1FF3F81460BD000250DF17E
:1006D000080B05E0D4E901211BF8050090476D1CCB
:1006E0004D45F7D308F10100B0428046E4DB206AB3
:1006F000384420622046FFF7E4FEBDE8FF9F00007B
:100700004A4C00002DE9F0418046D21D22F007023C
:100710000025D2E90002F52915A614D0011E72F1B8
:10072000000106DA0023D0EB030063EB020211A6FE
:1007300008E0D8F800108B0701D50FA602E04907A2
:1007400001D50EA601251146002408F1240704E076
:1007500000F07AF930323A55641C50EA0102F7D1C0
:100760002B46324621464046BDE8F04100F0B1B983
:10077000000000002D0000002B0000002000000001
:1007800030B4002100F1240408E002F00705D2088B
:10079000303542EA4372DB086554491C52EA0305CE
:1007A000F3D10468002310A2250707D5A40600D4BE
:1007B00021B1C46901230DA2641EC46130BC00F0E4
:1007C00088B910B5044621461068FFF794FE02462A
:1007D0002046BDE810400023D2E7D21D22F00701D9
:1007E000D1E90023CCE70000000000003000000049
:1007F000F0B40D460188090502D5214C7C4402E085
:100800001F4C7C440E34002100F1240608E002F065
:100810000F071209E75D42EA03721B097754491C6E
:1008200052EA0307F3D102780023120704D5702D92
:1008300006D009B1022311342246F0BC00F049B9B8
:1008400001231034F8E770B504460D4621461068C0
:10085000FFF751FE024629462046BDE870400023BE
:10086000C6E7D21D22F00703D3E90023C0E70368DF
:10087000126843F0200303600823C3610023B7E735
:10088000AC4A00002DE9F05F894604464FF0000AAB
:10089000DFF874B1FB44C0F820A02046E168884727
:1008A000002874D0252806D0D4E901219047206A79
:1008B000401C2062F1E700265F462046E168884739
:1008C0002028054607DB312D05D2781910F8200CB9
:1008D00008B10643F1E7B00701D526F00406C4F8D5
:1008E0001CA00027C4F818A02A2D09D0284603F020
:1008F0002DFE38B304EB8708303DC8F8185019E0D6
:1009000059F8041B204604EB87029161E16888478F
:10091000012F054618D1E069002820DA26F02006CC
:100920001DE0D8F8180000EB800005EB40003038DF
:10093000C8F818002046E1688847054603F006FE1F
:100940000028EED1012F0AD02E2D08D12046E168D3
:1009500088477F1C0546022F46F02006C4DBA069AD
:10096000002803DA404246F00106A061F00701D0FA
:1009700026F010066C2D0BD0682D09D04C2D39D0E7
:100980006A2D35D0742D35D07A2D33D016E038E06D
:10099000E1682F4620468847B842054609D16C2FAA
:1009A00026D04FF48060E16806432046884705461C
:1009B00004E06C2F1AD04FF4807006430DB3A5F1FC
:1009C0004100192802D8203546F400664A462946D7
:1009D000204626604E46FFF7E3FB80B101280BD08E
:1009E000F61D26F0070000F1080956E74020E4E76D
:1009F0008020D8E70020D6E706F104094DE7284615
:100A000052E7206ABDE8F09F3C4A0000004870476A
:100A10002C070020034640688C46002818BF8842F7
:100A20003CBF03464068F8D318681844884207D092
:100A30000CF1030020F00700001D411A521A014674
:100A4000081D0A60FFF700BD30B5B0F10A024FEA99
:100A5000900E71F100034EEA817EB0EB0E0061EB67
:100A600091014FEA101E4EEA017E10EB0E0041EBA1
:100A700011114FEA102E4EEA016E10EB0E0041EB01
:100A800011214FEA104E4EEA014E10EB0E0041EBE1
:100A90001141401841F100014FEAD00040EA417095
:100AA0004FEAD10110EB80054FEA810444EA9074CB
:100AB00044EB01046D1944EB0404521BA3414FF0B5
:100AC000000348BF0A3200D530BD401C41F100018F
:100AD00030BD2DE9F0470D4699469246044600F197
:100AE00024080168880604D5E06921F0100121601E
:100AF00000E00120A84201DD471B00E00027A169BA
:100B00007A1902EB0900081AA0612078C00602D405
:100B10002046FFF7C0FC002608E0D4E901211AF8BE
:100B200006009047206A401C761C20624E45F4DB8C
:100B30002078C0060AD52046FFF7ADFC06E0D4E9D0
:100B4000012130209047206A401C2062381EA7F106
:100B50000107F4DC07E0D4E9012118F8050090470B
:100B6000206A401C2062281EA5F10105F3DC204606
:100B7000FFF7A7FC2078000602D50220BDE8F08729
:100B80000120FBE770472DE9FF4F0C461E464FF052
:100B9000FF378BB0D2E90001DDF860800A908A4609
:100BA000C1F30A5505B93D46002108464FF0000043
:100BB000BAF1000F00F4400005DA00EB80004FF4BA
:100BC000400101EA50004FEA9059B9F1010F00DDF0
:100BD000B9460A9850EA4A000ED044F61050A5F2E1
:100BE000FF3545432F14B8F1000F1ED07542291E62
:100BF0001EDDC9F100021CE0B8F1010F4FF000004A
:100C000001D0302103E0F24305E02154401CB04202
:100C1000FBDB30460022002121540B99C1F80880EB
:100C2000C1E900200FB0BDE8F08FBD1B6D1CDEE7F1
:100C30004A4600DA694206A800F0F8FB06AB93E8E2
:100C4000070003AB83E8070050460A9900F0FDFC5B
:100C50008DE80700A0F500501F3800900398002D84
:100C60000ADD42F21F014A460844002303A903900B
:100C7000684600F066FF09E0A0F500504A461F38BC
:100C8000002303A90390684600F070FF8DE8070079
:100C90000004000C03D04FF0FF30410800E0104684
:100CA000B8F1000F03D00022009215461EE0751E19
:100CB00005D4FFF7C9FE303262556D1EF9D5B34633
:100CC0000122084302D000227F1C04E02078302853
:100CD00001D100227F1E002A099784D01DE0112D2A
:100CE00007DAFFF7B1FE303262556D1C50EA01029F
:100CF000F5D1084302D00098C8B10EE00021681E6B
:100D000005E0235C625C63542254401E491C81420E
:100D1000F7DBAB46A81B401E0990002004F80B002F
:100D20000B98099AC0F80880C0E9002B7AE71126D1
:100D30004FF0000857E72DE9F04F88460446D21DD2
:100D400022F0070191B0D1E90001CDE90A0103F0D9
:100D5000D9FB02460B98C00F01D02D2007E0206878
:100D6000810701D52B2002E0202101EAC000032ADF
:100D7000099001D0072A05DB03464146204600F0D2
:100D800015FB0BE12078800601D5E06900E0062024
:100D9000B8F1650F814606D0B8F1660F18D0B8F1EA
:100DA000670F70D131E00020B9F1110F009001DB25
:100DB000112301E009F101030AAA01A90CA8FFF718
:100DC000E2FEDDE90C70002609F10105834647E0EB
:100DD00001204B4600904FF000470AAA01A90CA839
:100DE000FFF7D1FEDDE90DB00C995D46002610B984
:100DF00009F101000D18B9EB050003D4C0F1FF366D
:100E000009F10105A5EB09002BE0B9F1010F01DAA9
:100E10004FF001090020B9F1110F0090484601DDA3
:100E2000112300E003460AAA01A90CA8FFF7ABFEB4
:100E3000DDE90C704D4600268346207800070AD471
:100E4000AB4500DA5D4601A8012D04DD411911F81A
:100E5000011C302907D04F4502DA17F1040F04DADC
:100E6000012082460FE06D1EEEE7002F02DCED1B35
:100E70003E4403E0781CA84200DD7D1CB81B00F155
:100E8000010A4FF000472078000703D4AA4501DB90
:100E90004FF0FF3A0021B7F1004F0DF143088DF8F4
:100EA000431024D002202B23002F01DA7F422D2370
:100EB0000A21021EA0F1010000DC5FB197FBF1FCEA
:100EC00097FBF1F201FB1C7C17460CF1300C08F883
:100ED00001CDEEE7A8F1010003702188090501D5D5
:100EE000452100E06521A0F1010800F8011C0998E6
:100EF0000FA9A1EB0807FF1D00B10120411901EB6B
:100F0000EA70A1693844081A401EA0612078C00622
:100F100002D42046FFF7BFFA099828B1D4E901218D
:100F20009047206A401C20622078C00622D52046C7
:100F3000FFF7B1FA1EE0002E04DBB34502DD01A885
:100F4000805D00E03020D4E901219047206A401CF8
:100F50002062761CAAF101005FEA000A0AD100F0C3
:100F600021FAC0680168405CD4E901219047206AF9
:100F7000401C2062281EA5F10105DCDC07E0D4E955
:100F8000012118F8010B9047206A401C2062381E8E
:100F9000A7F10107F3DC2046FFF793FA032011B015
:100FA00041E600002DE9F04F04460D46D21D22F027
:100FB000070089B0D0E900974846394603F0A2FA05
:100FC0000246F80F01D02D2307E02068810701D5E4
:100FD0002B2302E0202101EAC0038DF820300BB161
:100FE000012000E00020032A824601D0072A04DB0A
:100FF0002946204600F0DAF93FE12078800601D446
:101000000D2500E0E569C7F30A560D2D49DA0021E8
:101010004FEA175B08464FF00000002F00F4400035
:1010200007DA00EB80004FF4400100EBD07001EADA
:1010300060008115012901DD4FF0FF3100224FEAE8
:10104000850CBCF1180F06D31346ACF118004FF015
:101050008052C24003E04FF4801323FA0CF30CF1EA
:101060000C0CBCF1200F04D3ACF1200C09FA0CF0ED
:1010700001E007FA0CF000294FF0004801DD18B933
:101080000FE00ED140450CD319EB02095F4121B9A5
:10109000404502D19F4329EA0209BBEB175F00D00C
:1010A000761C2088000502D57B48784402E07A4807
:1010B0007844193808AA302302F80A30037C0AF170
:1010C0000101002E0AF1020A53546A4602DC4FF075
:1010D000300101E04FF031014FF001088DF80010B0
:1010E00002D0A6F2FF3603E059EA470100D06B4E6A
:1010F000002D02DC2178090704D54FF002082E21CB
:101100008DF80110C44600210BE0C7F303433F01F3
:10111000C35C491C6D1E02F80830052908F101085E
:1011200001DA002DF1DC00210CE000EB1973491C01
:101130001B786D1E082902F808304FEA091908F1DA
:10114000010801DA002DF0DC21688B0602D516E0DB
:10115000A8F10108E04505DD02EB080313F8013CA6
:10116000302BF5D0B8F1000F09DD02EB080313F8BE
:10117000013C2E2B03D1090701D4A8F10108002D51
:1011800005DD3E2102F808106D1E08F10108407CC3
:10119000002E02F8080008F1010804DA2D2076423A
:1011A00002F8080002E02B2002F808000A214FF4A0
:1011B0007A70864208F101080BDB96FBF0F33033BE
:1011C00002F8083096FBF0F308F1010800FB136603
:1011D00001E0642E0CDB642096FBF0F3303302F860
:1011E000083096FBF0F308F1010800FB136601E0FC
:1011F0000A2E06DB96FBF1F0303002F8080008F109
:10120000010896FBF1F001FB1060303002F8080095
:10121000A16908F1010808EB050202EB0A00081AAF
:10122000A0612078C00602D42046FFF734F9216A75
:1012300008AE01EB0A00206204E0D4E9012116F8AF
:10124000010B9047BAF1010AF7D22078C00602D507
:101250002046FFF720F96E4609E016F8010B3E28FC
:101260000FD0D4E901219047206A401C2062B8F1D8
:101270000108F2D22046FFF724F909B00320BDE8A7
:10128000F08F206A2844206203E0D4E90121302055
:1012900090476D1EEBD3F8E74A42000002FCFFFFC7
:1012A00010B5436913B1AFF3008001E0FFF72CF9EB
:1012B000012010BD127800F124010A7000224A704A
:1012C0000122EDE711684FF0FF32E9E710B54369FD
:1012D00013B1AFF3008001E0FFF7B6F9012010BDB4
:1012E000128800F1240182840022C2840122EDE7E9
:1012F00011684FF0FF32E9E770B516460C46054617
:1013000000F048F8036893F80101012806D0FF2C8B
:101310000FD8185D68B101202C7070BDD3F807019B
:101320003246214603F2071303442846BDE87040C5
:1013300018474FF0FF3070BD10B500F0F7F8BDE86A
:10134000104000F0EEB870477546FFF75FFBAE4601
:1013500005006946534620F00700854618B020B5C1
:10136000FEF79AFFBDE820404FF000064FF000075F
:101370004FF000084FF0000B21F00701AC46ACE83D
:10138000C009ACE8C009ACE8C009ACE8C0098D46AA
:101390007047000010B500F005F8001D10BD00BF3B
:1013A000BD330000004870474C0700202DE9F04194
:1013B0001F46044603260168072A01F4006004DB87
:1013C00008B116A505E016A503E008B115A500E0D3
:1013D00015A521F010002060A069C01EA0610FB10A
:1013E000401EA0612046FFF756F84FB1D4E9012115
:1013F00038469047206A401C2062C01C206206E0EC
:10140000206AFAE7D4E9012115F8010B9047761E0E
:10141000F8D22046FFF755F8BDE8F0814E414E0066
:101420006E616E00494E4600696E66002DE9F04718
:10143000814616468AB0354878440DC88DE80D00BF
:1014400032487844801C03AC0DC884E80D0041F696
:101450009B300844372190FBF1F290FBF1F5A5F1A8
:10146000800501FB12041B3C02D56442012000E010
:101470000020DFF898A080460027FA44AAF1BE0AAF
:101480000EE0E0070AD03246684607EB4701012329
:101490000AEB810100F06AFB8DE8070064107F1CF5
:1014A000002CEED1194F7F44AE3F19E0E80715D06C
:1014B00007EB04100DF1180A90E80E008AE80E0000
:1014C000C068F04201D1981908903246012306A95C
:1014D00003A800F04BFB03AB83E807006D10641C0E
:1014E000002DE3D14FF0010332466946B8F1000FF9
:1014F00003A802D000F025FB01E000F037FBC9E9AA
:101500000001C9F808200AB0BDE8F0874C3F000090
:1015100010B50446AFF300802046BDE81040FEF74A
:10152000A6BE002801D000F029B8704710B50128E8
:1015300005D0002103A000F027F8012010BD09A16B
:10154000F8E7000053494752544D454D3A204F7536
:1015500074206F662068656170206D656D6F7279AB
:10156000000000003A2048656170206D656D6F7263
:101570007920636F72727570746564000149182078
:10158000ABBEFEE72600020070B505460C460A20F9
:1015900000E06D1C00F052F835B128780028F8D131
:1015A00002E0641C00F04AF814B120780028F8D159
:1015B000BDE870400A2000F041B800004FF0013C47
:1015C00050F8042B51F8043B9A4221D1A2EB0C03B2
:1015D000934313EACC1317D150F8042B51F8043B72
:1015E0009A4215D1A2EB0C03934313EACC130BD10F
:1015F00050F8042B51F8043B9A4209D1A2EB0C039A
:10160000934313EACC13DBD04FF00000704700BFC8
:10161000D01A01BAB1FA81F101F0180122FA01F0F1
:10162000CB40C1F12001DBB2C0B2C01A2CFA01F3E9
:10163000D11A914311EAC311E6D1704708B5694642
:101640008DF800000320ABBE08BD5FEA400C08BF68
:1016500091F0000F4FEA8C234FEAC12243EA515127
:101660004FEA1C5018BF00F5F0404FEA300018BF99
:1016700041F000415FEA6C5C00F02980BCF1FF3F63
:1016800008BF40F080407047130C06BF12044FF0B3
:10169000100C4FF0000C130E04BF12020CF1080CDA
:1016A000130F04BF12010CF1040C930F04BF92003E
:1016B0000CF1020CD30F04BF52000CF1010C1146C7
:1016C0004FF00002A0F11F00A0EB0C00704711F0DA
:1016D000004F08BF704731F000413FF4D5AF0B0C0D
:1016E00006BF09044FF0100C4FF0000C0B0E04BFA6
:1016F00009020CF1080C0B0F04BF09010CF1040CDA
:101700008B0F04BF89000CF1020CCB0F04BF490002
:101710000CF1010CCCF12003A0EB0C0022FA03F336
:1017200002FA0CF241EA030100F10100704720F0D7
:101730007F4C80EA030023F07F47ACEB070303F5FF
:101740007C5300F0004003F1FF032DE980494FEA8C
:10175000154B09B44FEA144325EA0B4E24EA03481B
:101760000FF2042606EB132749083E785FEA32029F
:1017700003FB0667C7F5000707FB06F64FEA543779
:101780004FEAD64606F1020607FB066CCCF1005C78
:101790004FEA1C472CEA074C07FB06F40CFB06F546
:1017A00004EB15464FEA961634BF00204FF0004078
:1017B0004FEAD13706FB07FC4FEA1C4C0CFB0BF73A
:1017C000D21B03FB0CF761EB07010CFB0EF7B0EB30
:1017D000074072EB17420CFB08F734BFA2EB07423D
:1017E000B2EB074261EB17414FEA0C444FEA910715
:1017F00006FB07FC4FEA1C4C0CFB0BF7B0EBC74099
:1018000072EB573203FB0CF734BFA2EBC742B2EBCB
:10181000C74261EB57310CFB0EF7B0EBC70072EB20
:1018200057720CFB08F734BFA2EBC702B2EBC7023A
:1018300061EB5771039F4FEA816141EA921104EB1A
:10184000CC044FEAD1374FEA826206FB07FC42EA3A
:1018500090124FEA80604FEA1C4C0CFB0BF7D21B36
:1018600003FB0CF761EB07010CFB0EF7B0EB074035
:1018700072EB17420CFB08F734BFA2EB0742B2EB46
:10188000074261EB17414FEA8C554FEA910704EB91
:101890009C2406FB07FC4FEA1C4C0CFB0BF7B0EB3F
:1018A000C74072EB573203FB0CF734BFA2EBC742C1
:1018B000B2EBC74261EB57310CFB0EF7B0EBC70040
:1018C00072EB57720CFB08F734BFA2EBC702B2EB06
:1018D000C70261EB577115EB4C254FEA816141EA74
:1018E00092114FEA82624FEAD13742EA901206FB28
:1018F00007FC44F100044FEA80604FEA1C4C0CFBEB
:101900000BF7D21B03FB0CF761EB07010CFB0EF787
:10191000B0EB074072EB17420CFB08F734BFA2EBA9
:101920000742B2EB074261EB174115EB1C154FEA7A
:10193000813141EA92414FEA823242EA90424FEAD3
:1019400080304FEA0C7644F1000448EA03434EEA43
:101950000B484FF0000EB2EB080C71EB030724BFED
:10196000624639464EEB0E0E4FF0000B0018524106
:1019700049414BEB0B0BB2EB080C71EB03077BF10E
:10198000000B24BF624639464EEB0E0E4FF0000BA3
:101990000018524149414BEB0B0BB2EB080C71EBB9
:1019A00003077BF1000B24BF624639464EEB0E0E57
:1019B00051EA020718BF46F0010616EB0E7655F104
:1019C000000254F1000103D5BDE88901BDE800889B
:1019D000BDE88901BDE80048B619524141EB01015B
:1019E000A3F10103704780807F7E7D7C7B7A7978CC
:1019F000777676757473727171706F6E6E6D6C6CD4
:101A00006B6A6A6968686766666564646363626175
:101A10006160605F5F5E5E5D5D5C5C5B5B5A5A59F6
:101A20005958585757565655555554545353525262
:101A30005251515050504F4F4F4E4E4D4D4D4C4CBA
:101A40004C4B4B4B4A4A4A49494948484847474703
:101A50004746464645454544444444434343434240
:101A6000424242414141002B9C4630D477002BD06A
:101A70001CB54FEA370703B44FF010004FF01001C8
:101A8000BAF1000F06D0BCF1000FDCBF40F0080037
:101A900040F008014FF000000FBCBDE810400BF112
:101AA000010BBBF1010F08BF5FEA170722BF12F15C
:101AB000010211F101014FF0004143F1000300F078
:101AC000004043EA00007047F9D35708D0E746EAE0
:101AD000064613F1400F4FEA16461FDD13F1200FA3
:101AE000DFBF16430A46002120335B42BED0C3F15C
:101AF000200746EA064602FA07F74FEA164646EA84
:101B00000706C3F1200722FA03F201FA07F721FAC8
:101B100003F14FF0000342EA0702A7E746EA020694
:101B200046EA06464FEA164646EA0106BCBF46EAC2
:101B30000646360C4FF000034FF000024FF0000154
:101B400094E72DE9804C9A46934670B491E83800AA
:101B500007C831EA400C48BF34EA430C03D5FFF70D
:101B6000E6FDFFF780FFF0BCBDE8008C2DE9804C5E
:101B70009A46934670B491E8380007C810F0804F39
:101B800008BF13F0804F03D100F005F8FFF76BFF9B
:101B9000F0BCBDE8008C20F07F4780EA030023F012
:101BA0007F4C07EB0C03A3F57C5300F00040A3F13E
:101BB000FE0392F0000F00F0B38095F0000F00F0EC
:101BC00077802DE901494FEA11404FEA144621EA96
:101BD000004800FB06FC24EA064708FB06F607FB64
:101BE00008F800FB07F718EB06484CEB164C4FEAD9
:101BF000124B18EB07484FEA15464CEB174022EA08
:101C00000B4E0BFB06FC25EA06470EFB06F607FB10
:101C10000EFE0BFB07F71EEB064E4CEB164C4FF07F
:101C200000061EEB074E4CEB174B18EB0B0840F170
:101C3000000018EB0E0B58EB000840F100008F1A63
:101C40004FF000013CBFC943661B14BFB5EB040C49
:101C500000213CBFC943F61B4FEA17444EEA8E0EE3
:101C600027EA04454FEA1C4704FB07622CEA074CAD
:101C700005FB07F70CFB05F604FB0CFC16EB07460F
:101C800042EB174216EB0C4642EB1C421BEB0606DE
:101C900058EB0202414146EA9E0601D5BDE80189A2
:101CA000B619524141EB0101A3F10103BDE80189DD
:101CB0004FEA14454FEA114724EA054621EA074C4A
:101CC00005FB07F406FB07F70CFB06F105FB0CFC14
:101CD00011EB074144EB17444FEA124711EB0C415B
:101CE00044EB1C4422EA074C05FB07F206FB07F70E
:101CF0000CFB06F605FB0CFC16EB074642EB174205
:101D000016EB0C4642EB1C456A1854F1000148BF23
:101D10007047B619524141EB0101A3F1010370472D
:101D200095F0000F37D04FEA11424FEA144721EAED
:101D3000024624EA074C02FB07F106FB07F70CFBFF
:101D400006F402FB0CFC14EB074441EB17414FEA8D
:101D5000154714EB0C4441EB1C4125EA074C02FBF0
:101D600007F506FB07F70CFB06F602FB0CFC16EB6F
:101D7000074645EB174516EB0C4645EB1C4212197E
:101D800051F1000148BF7047B619524141EB0101C2
:101D9000A3F1010370474FEA14454FEA114724EAC3
:101DA000054621EA074C05FB07F106FB07F70CFB8C
:101DB00006F24FF0000605FB0CFC12EB074241EB6C
:101DC000174112EB0C4251EB1C4148BF704792186F
:101DD00041EB0101A3F101037047F8B507461C462A
:101DE00015460E46182001F0B3FC002805D02B46FE
:101DF00032463946009402F0ADF8F8BD7047FEE770
:101E00002DE9FF5F0024DDF838B09A462746A0464A
:101E1000A1465E4625460C21324800F011F901E04A
:101E20006D1CADB216F8010B0028F9D1BAF1000F04
:101E300037D14FF6FF7A34E01BF807306D1E7F1C58
:101E4000ADB2BFB20A2B3DD027480299406946780F
:101E500009FB0611067801980AB208FB060001B2D8
:101E6000009801F03BFD08F101001FFA80F8D04511
:101E70000ED309F101001FFA80F91A484FF000084B
:101E8000817A491C81728188A14200D28480002419
:101E900014480188491C0180134840690078204497
:101EA00084B2002DC8D1104841690E480A78827169
:101EB0004978C1718188A14200D2848004B0094868
:101EC000BDE8F09F09F101001FFA80F905484FF0C5
:101ED0000008817A491C81728188A14200D28480E5
:101EE0000024DEE7960600200C0100202DE9FF4FBC
:101EF00083B04B48002500954069DDF840A09B4623
:101F000040782F46A846A9465446102800D21020F3
:101F1000019000260C21434800F092F801E0761C65
:101F2000B6B214F8010B0028F9D13E4CBBF1000FFA
:101F300041D14FF6FF7B3EE0761E1AF80700B6B29D
:101F40008DF800007F280CD90AEB0701BF1C4978E7
:101F50008DF80110761E6188BFB2491CB6B261804F
:101F600001E07F1CBFB20A2817D07F2836D9059A16
:101F700001996B4609FB012002B20498404401B26A
:101F8000039801F0D7FA00208DF8010008F1100045
:101F900010351FFA80F8ADB23FE009F101001FFAD9
:101FA00080F9A07A4FF00008401CA072A088A842D7
:101FB00000D2A5800025002EBED1194840690178C5
:101FC000A1714078E071102020726072A088A84250
:101FD00000D2A58007B01348BDE8F08F10486B46CB
:101FE00040694078C0F1100105980A18019909FB71
:101FF000012002B20498404401B2039801F03CFD74
:1020000007484069027802EB08011FFA81F821882D
:10201000491C21800078284485B2D845CBD3BCE741
:102020000C010020AE0600200020044B4FF480611C
:1020300002461A54401C8842FBD37047D00100204E
:10204000002201E000F8012B491E89B2FAD2704744
:1020500030B590F840500124AC40C56B6C6004680A
:1020600063604368102B036803D099600068C26006
:1020700030BD9A600068C16030BD704770B58E1881
:10208000002900DA00210C4605B205E0012221B248
:10209000284602F031FB641CB442F7DB70BD2DE929
:1020A000FF5F8146500001278846C2F10106C0F15A
:1020B000000B00251446DDF838A03AE0002E03DBC3
:1020C0000BF1020B5E44641EBF1C03986D1C3E4462
:1020D000C00715D00AEB4400401CC2B2A8EB0401B3
:1020E00009EB0500FFF7CAFFA54209DA0AEB450034
:1020F000401CC2B2A8EB050109EB0400FFF7BEFFCC
:102100000398800715D50AEB4400401CC2B2A8EB27
:102110000401A9EB0500FFF7B1FFA54209DA0AEBBC
:102120004500401CC2B2A8EB0501A9EB0400FFF773
:10213000A5FFA542C2DBBDE8FF9F2DE9F0411C468B
:1021400016460D46074608E02819401E01B23246E1
:10215000384600F0C7F9641EA4B2002CF4D1BDE8E3
:10216000F08100002DE9F84F05680446067CA88838
:1021700000281BD0E888002818D0607C012817D0E0
:10218000B5F90080B5F90290B5F90470B5F906000B
:10219000A4F80880A4F80A90A781E0812674C3B24D
:1021A0004946FAB24046009600F068F8BDE8F88F5C
:1021B000B4F90A0002F072FB0746B5F9020002F01A
:1021C0006DFB01463A46214802F0E9F802F04AFB6D
:1021D0000FFA80F9B4F9080002F060FB0746B5F980
:1021E000000002F05BFB014618483A46183002F046
:1021F000D6F802F037FB0FFA80F8A08902F066FBF0
:102200000746A88802F062FB014610483A46303083
:1022100002F0C5F802F026FB07B2E08902F056FB97
:102220008246E88802F052FB014608485246483090
:1022300002F0B5F802F016FB00B2B0EB460F00DA80
:102240007000B7EB460FA3DA7700A1E7500000203B
:1022500038B5049D18B1009501F05AFD38BD1046FF
:102260001C4639B10B78497800912A46214600F086
:1022700039F838BD03784178901CF5E72DE9F84F1F
:102280001D460A9C16008A46814626D0002D24D081
:10229000C4F1000806EB480082B209EB040738B22B
:1022A0000FFA8AF1FFF749FF05EB4800A0F101089A
:1022B00009EB06000AEB0405001B01232246294610
:1022C000401ECDF80080FFF7EAFE2946384602237B
:1022D0002246CDF80080FFF7E2FEBDE8F88F72B627
:1022E000FEE700002DE9F84F8346C8180A9C0FFA54
:1022F00080FC101907B2D01702EB507424F00700CD
:10230000161A002A08DA06F10800C51700EB557501
:1023100025F00705401B00E03046C5B20020BCF1A7
:10232000000F6FDB002F6DDB80296BDA402A69DA42
:102330003F2F00DD3F27DFF8A4A14FF0FF0E12F181
:10234000080F04DCE21003FB120080B23246C0E04A
:102350000C4602F10809B7E0002C03DA001B80B23A
:10236000002406E07F2C04DBACEB0402104480B2B6
:10237000ADE05B4B1B78022B4FD0032B21D0002A02
:102380000CDBD31004EBC3131BF800801AF80360B6
:1023900008FA05F846EA08060AF80360B9F13F0FA3
:1023A0002FDC75B31BF80060002AC5F1080326FA7C
:1023B00003F67ADA1AF8048046EA08060AF8046096
:1023C0007EE0002A0CDBD31004EBC3131BF8008063
:1023D0001AF8036008FA05F886EA08060AF80360A6
:1023E000B9F13F0F6CDC65B11BF80060002AC5F144
:1023F000080326FA03F606DA1AF8048086EA0806C5
:10240000DCE751E068E0D31004EBC31808EB0A03E3
:1024100093F8808086EA080650E0002A14DBD31087
:1024200004EBC31600961AF80630C5F108082EFA18
:1024300008F63340009E0AF806301BF80060AE40F4
:102440003343009E0AF80630B9F13F0F38DC5DB324
:10245000002A10DA1AF804600EFA05F31E400AF892
:1024600004601BF80030C5F1080823FA08F3334371
:102470000AF8043024E0D31004EBC31606EB0A0379
:102480000EFA05F693F8808008EA060883F8808043
:10249000CDF800801BF80060C5F1080826FA08F6A0
:1024A000DDF8008008E000E00AE0D31004EBC31878
:1024B00008EB0A0393F8808046EA080683F88060F8
:1024C000641C401C24B280B26445FFF645AF0FFA8D
:1024D00089F2BA42FFF63CAFBDE8F88FD001002088
:1024E0001500002070B514460E46054608E0281970
:1024F000401E00B20122314602F0FEF8641EA4B272
:10250000002CF4D170BD002804D00189012901D02C
:102510000069FAE77047002807D0C168002904D095
:102520000A89012A01D00846F7E7704770B50A48C2
:102530004178846801290DD10025457008E0A07D0F
:10254000012804D1A575E16809B120698847A4680C
:10255000002CF4D170BD0000B4000020037A012BE0
:1025600001D000207047C3790B70417911700021B0
:10257000417101720120704770B5044690F8200047
:10258000002501280CD0012084F8200094F8216057
:102590000020012E06D084F820000225284670BDB8
:1025A000022070BD022684F82160A06320680668BE
:1025B00026F0010606602046FFF74AFDE06A002883
:1025C0002068016802D041F00E0106E021F004010C
:1025D00001602068016841F00A010160206801681B
:1025E00041F001010160D9E770B5044600F004F93B
:1025F0000546601C02D004480078044400F0FCF852
:10260000401BA042FAD370BD000000202DE9F84F16
:10261000DFF8B8910024A9F1040B23460F2709F134
:10262000040AABF1040EC9E00125A5402A40AA42E4
:102630007DD1674ED1F804C0ACEB0608B44532D06A
:1026400014DCBCF1030F3AD009DCBCF1000F2AD036
:10265000BCF1010F1CD0BCF1020F31D11DE0BCF167
:10266000110F17D0BCF1120F2AD119E0B8F5881F4D
:1026700019D006DCB8F5803F15D0B8F5801F1FD102
:1026800011E0B8F5001F0ED0B8F5041F18D10AE00C
:10269000CB6815E0CB681B1D12E0CB6808330FE058
:1026A000CB680C330CE08B682BB1012B4FF0080387
:1026B00003D0456104E0042302E0056100E000234B
:1026C000FF2A01D8064601E000F104064FEA84051E
:1026D00001D9A5F12005D6F8008007FA05FC28EA03
:1026E0000C0803FA05F548EA0508C6F800804D68AD
:1026F000ED0062D5374DAE6946F00106AE61AD69B9
:1027000024F0030605F001050095334D06EB050C9A
:10271000DCF80850A607360F07FA06F825EA080580
:10272000DFF8B880404503D14FF0000817E044E0DF
:10273000DFF8AC80404502D14FF001080FE0DFF830
:10274000A480404502D14FF0020808E0DFF89880ED
:10275000404502D14FF0030801E04FF0040808FAA9
:1027600006F848EA0508CCF808804D68D9F80060FA
:10277000ED024D4601D5164300E096432E604D68AC
:10278000DAF80060AD02554601D5164300E09643E5
:102790002E604D68DBF80060AD035D4601D5164341
:1027A00000E096432E604D68DEF80060ED0375464C
:1027B00001D5164300E096432E60641C0D682A463E
:1027C000E5407FF431AFBDE8F88F00000804014018
:1027D00000001110001002400000014000080140FC
:1027E000000C014000100140001401400AB10161D9
:1027F00070470904FBE7000001488068704700004B
:10280000000000200248816802781144816070470E
:1028100000000020074810B5016841F01001016078
:10282000032000F067F80F2000F006F800F024F80D
:10283000002010BD0020024070B50D4D04464FF43D
:102840007A712878B1FBF0F00A490968B1FBF0F021
:1028500000F052FC48B9102C07D200222146501E2D
:1028600000F028F800206C6070BD012070BD0000F1
:10287000000000200C0000200C4808B5816941F0E0
:1028800001018161816901F001010091C16941F09B
:102890008051C161C06900F08050009004484168D7
:1028A00021F0E06141F00071416008BD001002407C
:1028B00000000140F0B40E4B1B680C46C3F302232A
:1028C000C3F10705042D00D90425191D072901D2DC
:1028D000002300E0DB1E012606FA05F1491E214017
:1028E00099409E40761E16403143F0BC01F01EBE5A
:1028F0000CED00E0064900F0070208684FF6FF0300
:10290000184040EA0220034A104308607047000064
:102910000CED00E00000FA052DE9F0470F46050038
:1029200061D0434E306800F00700B84209D23068E9
:1029300020F0070038433060306800F00700B842EC
:1029400051D128683B4C810712D5400703D56068F8
:1029500040F4E06060602878000703D5606840F4C8
:10296000605060606068A96820F0F0000843606013
:102970002878C00728D06868012810D0216802286C
:1029800010D0890700292EDA616821F00301014384
:102990006160FFF731FF804641F288390DE0216820
:1029A0008903EFE78901EDE7FFF726FFA0EB0801B8
:1029B000494502D90320BDE8F0876068696800F0E6
:1029C0000C00B0EB810FEFD1306800F00700B84287
:1029D0000BD9306820F0070038433060306800F0D1
:1029E0000700B84201D00120E5E72878400705D567
:1029F0006068E96820F4E0600843606028780007B8
:102A000006D56068296920F4605040EAC100606022
:102A100000F018F86168084AC1F30311515CC8401E
:102A20000649086006480068FFF706FF0020C2E775
:102A300000200240001002405C4C00080C00002006
:102A4000040000200E4A51680E4801F00C03042BCC
:102A500011D0082B0FD10C48C1F38343C903C05CCC
:102A60000AD55168084AC1F34041921E515C054A9B
:102A70005043B0FBF1F070470449484370470000F1
:102A80000010024000127A004C4C000800093D0082
:102A90002DE9F84F040070D02078C04DC00749D010
:102AA0006868C0F38100012807D06868C0F381001E
:102AB000022809D16868C00306D52868800339D583
:102AC00060680028E7D035E06068B0F5803F0BD043
:102AD00010B1B0F5A02F11D0286820F48030286004
:102AE000286820F4802002E0286840F480302860C4
:102AF000606890B1FFF780FE06460AE0286840F45F
:102B000080202860F0E700BFFFF776FE801B642876
:102B100073D828688003F7D50CE0FFF76DFE0646F2
:102B200005E000BFFFF768FE801B6428F0D8286826
:102B30008003F7D420789A4E80074FF001094FF0B8
:102B4000000839D5686810F00C0F07D06868C0F32A
:102B50008100022809D16868C00306D4286880076C
:102B600014D52069012808D110E02069B0B1C6F859
:102B70000090FFF741FE074605E00AE1FFF73CFE43
:102B8000C01B0228C4D828688007F7D52868616967
:102B900020F0F80040EAC10028600DE0C6F800808F
:102BA000FFF72AFE074604E0FFF726FEC01B0228B7
:102BB00023D828688007F7D4207800072CD57948D7
:102BC000A169D9B1C0F80090FFF716FE074604E0EE
:102BD000FFF712FEC01B02280FD8686A8007F7D5DE
:102BE00071484FF4FA510068B0FBF1F0009000BF5B
:102BF0000098411E0091FAD20EE080E0C0F80080FB
:102C0000FFF7FAFD074604E0FFF7F6FDC01B0228B8
:102C100075D8686A8007F7D42078400760D5E869DE
:102C20000027C00008D4E86940F08050E861E869F6
:102C3000012700F0805000905C480168C90513D45A
:102C40000168834641F480710160FFF7D5FD82463B
:102C500006E000BFFFF7D0FDA0EB0A0064284ED8C5
:102C6000DBF80000C005F5D5E06801280AD008B1FE
:102C7000052813D0286A20F001002862286A20F075
:102C8000040002E0286A40F001002862E06841F296
:102C9000883B98B1FFF7B0FD82460BE0286A40F010
:102CA00004002862EEE700BFFFF7A6FDA0EB0A01D3
:102CB00059455AD8286A8007F6D50CE0FFF79CFDE5
:102CC000824605E0FFF798FDA0EB0A0159454CD874
:102CD000286A8007F6D41FB1E86920F08050E861C7
:102CE000E06988B36968C1F38101022944D00228F0
:102CF000C6F8608004D0FFF77FFD044638E034E07A
:102D0000FFF77AFD074604E0FFF776FDC01B0228B7
:102D10002BD828688001F7D4206AB0F5803F05D110
:102D20006868A16820F4003008436860D4E90801AD
:102D30000843696821F4741108436860C6F860901C
:102D4000FFF75AFD044606E025E000BFFFF754FDFB
:102D5000001B022809D828688001F7D51BE000BFB6
:102D6000FFF74AFD001B022802D90320BDE8F88FB7
:102D700028688001F4D40EE00128F7D06868226A40
:102D800000F48031914204D1616A00F470108842ED
:102D900001D00120EAE70020E8E70000001002402F
:102DA00000004242800442420C00002000700040BB
:102DB000704770B5040009D0606A002540B12561F4
:102DC0006561A56294F8510040B10CE0012070BD2E
:102DD0006068B0F5827FF4D0E561F2E784F8505086
:102DE000204600F03FF8022084F851002068016876
:102DF00021F040010160A088218900F4827001F473
:102E000004410843A18901F400610843217C01F0D9
:102E100002010843217D01F001010843218B01F4E7
:102E200000710843217F01F03801084394F8201015
:102E300001F080010843218D01F40051084321680D
:102E40000860A069042101EA1040216848602068F8
:102E5000C16921F40061C1616565012084F85100F8
:102E6000002070BD00B585B0002100910191029154
:102E7000039100680F4988421AD10F48816941F4D3
:102E800080518161816901F480510491816941F02F
:102E9000040181618069694600F004000490A0206B
:102EA000009002200190032003900448FFF7AEFB3E
:102EB00005B000BD00300140001002400008014094
:102EC0002DE9F84F984616468A460446FFF794FCCB
:102ED000814694F8510001281ED1BAF1000F73D039
:102EE000002E71D094F85000012815D0012784F8E5
:102EF0005070032084F8510000256565C4F830A0A7
:102F0000A686E686A563A587E58765642564A0682F
:102F1000B0F5004F03D00CE00220BDE8F88F206828
:102F2000016821F0400101602068016841F480419E
:102F3000016020680168490603D4016841F040013E
:102F40000160E068B0F5006F606803D048B3012EFF
:102F500027D047E008B1012E1FD1206B21680088DF
:102F6000C86006E020688168890709D5216B098857
:102F7000C160206B801C2063E08E401EE0860CE068
:102F8000FFF73AFCA0EB0901414503D3B8F1FF3F3D
:102F900003D035E0B8F1000F32D0E08E0028E1D147
:102FA00023E0206B21680078087306E020688168C0
:102FB00089070AD5216B09780173206B401C2063B7
:102FC000E08E401EE0860DE02BE0FFF715FCA0EB45
:102FD0000901414503D3B8F1FF3F03D010E0B8F138
:102FE000000F0DD0E08E0028E0D14A464146204631
:102FF00000F038FF08B120206065A06830B109E01A
:1030000084F8517084F85050032086E72068C16826
:103010008068009084F8517004F8505F6068002860
:10302000F3D0012079E7000070B5044690F8510014
:1030300001281CD1C9B1C2B194F85000012816D0A2
:10304000012084F85000032084F8510000256565B4
:103050002163A286E286A56365642564A587E5876A
:10306000A068B0F5004F04D00DE0012070BD022033
:1030700070BD2068016821F040010160206801688E
:1030800041F480410160A16C1748C862A16C1748E7
:103090008862A16C16480863A06C4563E38E2268C1
:1030A000216B0C32A06CFFF767FA30B1606D40F015
:1030B0001000606584F85050D7E720680168490621
:1030C00003D4016841F04001016084F85050206849
:1030D000416841F0200141602068416841F00201EF
:1030E0004160002070BD0000F73D0008013E00086F
:1030F000D53D00087047704710B5401EB0F1807F85
:1031000001D3012010BD4FF0E02460610F21601752
:1031100001F00CFA0020A06107202061002010BD02
:1031200070B590F83C20012A26D0012480F83C405C
:10313000022280F83D2003685A689D6822F07006DC
:103140000A6832435A600D4B02689A4208D0B2F1C5
:10315000804F05D00A4B9A4202D00A4B9A4204D1C2
:10316000496825F080031943916080F83D400021B3
:1031700080F83C10084670BD022070BD002C014054
:10318000000400400008004010B5040003D094F88B
:103190003D0010B107E0012010BD002084F83C0084
:1031A000204600F01FF8022084F83D00211D206811
:1031B00001F084F8012084F8460084F83E0084F889
:1031C0003F0084F8400084F8410084F8420084F80D
:1031D000430084F8440084F8450084F83D00002052
:1031E00010BD000008B500680649884208D10648AD
:1031F000816941F400618161806900F400600090A0
:1032000008BD0000002C01400010024090F83D1065
:10321000012901D001207047022180F83D1001688A
:10322000CA6842F00102CA6000680B49884208D0AF
:10323000B0F1804F05D00949884202D00849884240
:1032400004D1816801F00701062903D0016841F02B
:103250000101016000207047002C01400004004083
:103260000008004070B5044690F83C000025012895
:1032700017D0012684F83C60022084F83D002068C5
:10328000826822F0770222F47F4282600868502828
:1032900038D00DDC20284FD005DC90B3102811D198
:1032A0004AE0022070BD302846D040280AD13BE0D9
:1032B00060282FD070280DD0B0F5805F03D0B0F516
:1032C000005F12D0012584F83D60002084F83C00A6
:1032D000284670BDCB68D1E90121206801F02AF8A9
:1032E0002068816841F0770109E0CB68D1E90121CC
:1032F000206801F01FF82068816841F480418160F6
:10330000E1E719E0CA684968206801F025F8502112
:10331000206806E0CA684968206801F02EF860213C
:10332000206801F011F8CEE7CA684968206801F00A
:1033300013F840212068F4E7226801461046F0E7C0
:10334000FEE700000D4BDA6812B9D86004E01A46B7
:10335000D368002BFBD1D060017061B100214170B6
:103360004FF4967141800021017141718171C171E9
:103370000172C16070470121F1E70000B400002034
:103380007CB50025164C8DF800508DF8045006468B
:10339000E07AA17A88420AD00120FFF725F9E07A85
:1033A000A17A884203D03070E172A17015E0A17853
:1033B0000C48491E032902D80121417000E04570E4
:1033C00001AA69460748FFF7C9F8002806D09DF80A
:1033D0000000022801D1A078307001207CBD0000DF
:1033E00010000020D00500202DE9F04186B0002417
:1033F0001F480094019402940394816941F02001D4
:103400008161816901F020010491816941F0040129
:103410008161816901F004010491816941F0080131
:1034200081618069134F00F0080004900022502150
:103430003846FFF7DBF9DFF84080002201214046E3
:10344000FFF7D4F9502001250226CDE90005CDE98A
:10345000024669463846FFF7D9F803960095CDE94C
:10346000015469464046FFF7D1F806B0BDE8F08147
:103470000010024000080140000C0140104810B547
:103480000E4901604FF48271416000218160C1608A
:103490004FF400720161C0E905120822C0E907215A
:1034A000416281620A21C162FFF783FC002803D0D8
:1034B000BDE81040FEF713BF10BD00000030014012
:1034C0003001002010B586B0002417480094019404
:1034D0000294039404941349059401604721C0E9C0
:1034E000011440F2E731C0E9031444618461FFF73D
:1034F0004BFE08B1FEF7F3FE4FF480500090694692
:103500000948FFF7AFFE08B1FEF7E9FE049404A9ED
:1035100005480594FFF704FE002801D0FEF7DFFE02
:1035200006B010BD002C014088010020FEE7704766
:10353000704770472DE9FC5F804657A0144600682D
:10354000019056480D4682469B4601F09DF80026A4
:103550000746B146022845D3584601F095F802289F
:1035600040D19BF800107F293CD97F1E3DE000BF71
:103570001AF806007F2837D9761C9BF801001AF844
:10358000062009F1010982422ED10AEB060010F84B
:10359000010C884228D1B9F1000F23D0B8F1000FF7
:1035A00026D005F10F0104F10F00002D26DB002CC1
:1035B00024DBB8F804208A4220DDB8F806208242D5
:1035C0001CDDB8F80200204400B20090B8F80000FA
:1035D000284403B2324800EB491201A90020203AE6
:1035E000FEF736FEBDE8FC9F761CBE42C0D3F9E76D
:1035F0002B482B4600EB49120094EEE7002D01DA30
:103600006A4200E0002212B20092002C01DA62420B
:1036100000E00022B8F8043012B28B4201DD102124
:1036200000E0591B0FFA81FAB8F80610814201DD5B
:10363000102000E0081B0FFA80FBD6B229E00098AA
:10364000C7B222E04FEA4900801E00EBD6011448C1
:1036500006F0070200EB01100121C05D9140084215
:1036600005D0A01902B2E81901B2012308E00D4803
:103670000078022807D1A01902B2E81901B200238C
:10368000404600F00FF97F1CFFB25745DADB761C8D
:10369000F6B25E45D3DBA5E7101000005E520008CD
:1036A00063520008150000203EB500F011FA002317
:1036B0000D4A19463220FEF790FB0C4801240C49B4
:1036C000447401600020CDE900040346024601462F
:1036D0000290074800F05AFC0649C16100F0FAFF69
:1036E000054804703EBD00006D3700083C00002016
:1036F000E00500207546000818000020002809D0C9
:10370000002305E039B10069002803D05B1C9BB29F
:103710009342F7D37047C068F6E7002808D00189C4
:10372000012905D00169CA7A012A01D00846F6E7C5
:10373000704700280AD0C168002907D00A89012AE9
:1037400004D0C27A012A01D00846F4E7704700008D
:1037500010B50446FCF7B2FD002803D00249CA6840
:103760002244CA6010BD00001000002004490A79FC
:1037700008B1104402E0002A01D10120087170470D
:10378000340000202DE9F041444CE07800B3601C87
:10379000FFF7F6FDFEF7CAFE607A002618B16672E2
:1037A0000020FFF7E3FFDFF8F48008F1240898F821
:1037B000040000286DD008F108052868002868D0AA
:1037C00000F0C2FCFEF730FCE079012805D00DE0E6
:1037D0003248C01C00F0ECFCDCE720692860266160
:1037E000A07900F0BBFEA6710220E071D5E90001CE
:1037F000814202D0207800F0B1FEFFF798FE284801
:10380000006800F0B5FE286800F0F0FBFFF791FEBD
:103810002868A26972B1FEF776FE90F824100906B6
:1038200008D501E092682AB111688142FAD1506846
:1038300000B180472B681846FFF76FFF0546184612
:10384000FFF777FF0746284600F0C2FE18B995F843
:103850002400800603D5E96909B12846884700F0AD
:10386000ABFABD4201D0ED68EDE70C482C30817C0D
:10387000012904D103216171FEF774FC6671FFF721
:1038800057FE00F085FE667098F80410491E88F80F
:103890000410BDE8F041FEF7B1BA000010000020AE
:1038A000B0000020F0B4002815D004884588868830
:1038B0000C44154424B22DB28E420CDDC0889042D7
:1038C00009DD002907DB002A05DB29462046F0BC7C
:1038D0001A4600F011BFF0BC704700002DE9FE4F02
:1038E000824663480E4615464769A3F120025F2AC7
:1038F00039787C78894600D32023203B03F0FF0BE6
:10390000BAF1000F39D0721E8B1834D4691E14EB33
:10391000010C30D4BAF80410B1422CDDBAF806001C
:10392000A84228DD002E3EDB002D3CDB504A8B42B6
:1039300039DA844537DA04EB8400C0F39C010A20AD
:10394000B1FBF0F300FB131000284FEAD40000D0C5
:10395000401C12690BFB09F101FB0022BAF80200BE
:10396000284400B20090BAF80000304403B239464F
:103970000020FEF76DFCBDE8FE8F04EB8401C1F36F
:103980009C020A21B2FBF1F301FB132100294FEA4B
:10399000D40100D0491C00690BFB09F202FB0102B3
:1039A00033460095E3E7002E01DA724200E0002280
:1039B00012B20292002D01DA6A4200E0002206EB08
:1039C00009035B1E12B28B4201DA494600E0891BF3
:1039D00009B201912919491E814201DA204600E00D
:1039E000401B00B20090D0B23DE00298C7B234E074
:1039F00004EB8400C0F39C010A20B1FBF0F200FB51
:103A0000121000284FEAD40000D0401C0BFB09F133
:103A100048434FEAD80209FB0201154800693844BF
:103A2000085C08F00701C84010F0010F06D008EB51
:103A3000050002B2B81901B2012309E00D4800786F
:103A4000022808D108EB050002B2B81901B2002320
:103A50005046FFF727FF7F1CFFB201988742C7DB64
:103A600008F10100C0B2009980468842BDDB82E7C0
:103A70000C010020150000202DE9F0470F4681467B
:103A80001D4690460C211048FEF7DAFA0E4C0F4EF8
:103A90000CE0424639464846FFF720FF706900783F
:103AA000384407B22088401C20806D1C2B78002BE6
:103AB000EFD170690178A1714078E07120884843A6
:103AC000A0800148BDE8F0878A0600200C01002094
:103AD000064810B5002141740121817400F036F8C8
:103AE000BDE8104001210248FFF72CBC3C0000203B
:103AF000D0050020002808D00279D30703D142F076
:103B00000102016002718068F4E77047FEE7F0B5DA
:103B10000446002901DA4A4200E00A4696B200282B
:103B20000AD00025CF0F0DE001223946FFF7E6FD50
:103B300008B1A04201D12046F0BD817A012901D10E
:103B40006D1CADB2B542EFD3F0BD000070B5564C60
:103B5000012240212046FEF749FE6420FEF744FD85
:103B6000002240212046FEF741FE6420FEF73CFD86
:103B7000012240212046FEF739FE0021AE2000F050
:103B8000ABF80021084600F0A7F80021102000F053
:103B9000A3F80021402000F09FF80021812000F0D0
:103BA0009BF80021CF2000F097F80021A12000F021
:103BB00093F80021C82000F08FF80021A62000F023
:103BC0008BF80021A82000F087F800213F2000F0AA
:103BD00083F80021D32000F07FF80021084600F090
:103BE0007BF80021D52000F077F80021802000F03C
:103BF00073F80021D92000F06FF80021F12000F0C7
:103C00006BF80021DA2000F067F80021122000F0A4
:103C100063F80021DB2000F05FF80021402000F075
:103C20005BF80021202000F057F80021084600F042
:103C300053F800218D2000F04FF80021142000F0EF
:103C40004BF80021A42000F047F80021A62000F046
:103C500043F80021AF2000F03FF80021AF2000F032
:103C60003BF8002404F1B000C0B2002100F034F8A9
:103C70000021084600F030F80021102000F02CF858
:103C800000250121002000F027F86D1CEDB2802DE9
:103C9000F7D3641CE4B2082CE4D3BDE870400021E3
:103CA000084600F003B800000008014010B50446C3
:103CB000B031C8B2002100F00FF8102040EA141013
:103CC000002100F009F804F00F00BDE8104040F0BA
:103CD00001000021AFF3008013B50A4C09B10122A5
:103CE00000E0002201212046FEF780FD0122694606
:103CF0000548FFF799F9012211462046FEF776FDA7
:103D00001CBD0000000C0140300100207047000085
:103D10002DE9F05F9946DDF828A01646834621B1CB
:103D20000F7891F80180002438E0377896F8018008
:103D3000961CF8E700252DE0E00878437119405CF7
:103D400004F00701C84010F0010F10D0BBF1000FC4
:103D500004EB0A0005D002B205EB090001B2012311
:103D600013E001B205EB090000B201221FE0114887
:103D7000007802280CD1BBF1000F04EB0A0011D02F
:103D800002B205EB090001B200235846FFF78AFD95
:103D90006D1CEDB2BD42CFD3641CE4B24445C9D31F
:103DA000BDE8F09F01B205EB090000B2002200F06F
:103DB000A3FCEDE71500002004480178002903D09A
:103DC00003490161891E4161704700000C01002018
:103DD0006E4C000810B5406A01684A6822F0030280
:103DE0004A60416D41F010014165012180F8511098
:103DF000FEF7DEFF10BD10B5406AFFF77CF910BD7D
:103E000038B50546446AFEF7F7FC024628680068A4
:103E1000800623D42068416821F020014160206899
:103E2000416821F0020141606421204600F01AF847
:103E300018B1606D40F020006065A068002118B9DD
:103E40002068C26880680090E186012084F85100F3
:103E5000606D18B12046FEF7ABFF38BD2046FFF776
:103E600049F938BDF8B515460E460B460092044692
:103E70000122022100F010F840B9334600228021CF
:103E80002046009500F008F8002804D0606D40F04E
:103E9000200060650320F8BD2DE9F8431E469146D9
:103EA00088460446089DFEF7A7FC401B351AFEF71E
:103EB000A3FC074625480068C0F3CB30684338E0D0
:103EC000701C37D0FEF798FCC01BA84203D215B176
:103ED000009860B32CE02068416821F0E001416067
:103EE0006068B0F5827F0BD1A068B0F5004F02D0BA
:103EF000B0F5806F04D12068016821F040010160B5
:103F0000A06AB0F5005F09D12068016821F4005172
:103F100001602068016841F400510160012084F8CB
:103F20005100002084F850000320BDE8F8830025EC
:103F3000401E00902068816838EA010004D000210A
:103F40004945BDD10020F0E70121F9E70C00002030
:103F50007047000070B50028049E14D00A4DAC686C
:103F600014B9A86004E02C46A568002DFBD1A06020
:103F7000002401258460C5758475C0E9004102757F
:103F80004475C0E9033670BDB40000202DE9F04748
:103F90001E46DDE909A5DDF8209017468846041E77
:103FA00021D03421FEF74CF8002345B12846FEF716
:103FB000B2FAC46020610089401C208102E0012027
:103FC00020812361A4F800806780A680A4F8069071
:103FD00084F80AA0E372E3606361A361E361A384F0
:103FE000E38420462362BDE8F08700002DE9F84F06
:103FF000DFF850810346D8F81C00FEF78CFA8346A0
:10400000D8F82000FFF795FB82461846FEF77BFAAA
:1040100081461846FEF77FFA00901846FFF77DFBB1
:1040200005461846FFF785FB0746D8F81C00002612
:1040300058B94846C8F81C90FEF76DFA83462846E2
:10404000C8F82050FFF775FB8246D8F81C404C4555
:104050004CD000BF94F82400400706D5E08C40F017
:104060000400E084E16920468847D8F820008442B3
:1040700001D1012600E056B194F82400C00606D50F
:10408000E08C40F01000E084E16920468847544508
:1040900000D100265C4501D0E468DBE74FEA090463
:1040A00094F82400800706D5E08C40F00200E084FC
:1040B000E16920468847AC4201D1012600E056B1B3
:1040C00094F82400000706D5E08C40F00800E08456
:1040D000E16920468847BC4200D10026009884420E
:1040E00001D0E468DCE7C8F81C9022E0D8F8204052
:1040F000AC4224D094F82400C00606D5E08C40F0F1
:104100001000E084E16920468847544501D0E46806
:10411000F0E72C4694F82400000706D5E08C40F028
:104120000800E084E16920468847BC4201D0E46889
:10413000F0E7C8F82050BDE8F84FFDF775BFBDE8BF
:10414000F88F00001000002010B5184C0023A4F1D7
:104150002C02D4E90001814200D0D3716060117952
:1041600099B151781170012915D0022916D003296F
:1041700019D0042916D1FEF7C6F98069002811D09C
:10418000817A01290ED153700BE00848BDE8104038
:10419000283800F00DB84FF0FF3100E00121FFF7A3
:1041A000B6FC206010BD4069E8E700003C0000203C
:1041B000044A0021D31C1170984201D191705170B2
:1041C00070470000100000202DE9F0410546074629
:1041D000002634460C211E48FDF732FF01E0761C14
:1041E000B6B217F8010B0028F9D11A494A691849E3
:1041F00014E02B5C7F2B07D94B88401C5B1C1034D0
:1042000080B24B80A4B207E00A2B17D01378234466
:104210009CB20B885B1C0B80401C80B2B042E8D380
:10422000107888715078C871102008724872888898
:10423000A04200D28C800648BDE8F0818B7A5B1CDE
:104240008B728B88A34200D28C800024E1E70000AF
:10425000BA0600200C010020FEF7D4BA30B58FB0AA
:1042600028216846FCF774F814210AA8FCF770F8B6
:1042700001210804CDE900100024029402250491D4
:10428000CDE907504FF4E01009906846FEF700FCB6
:1042900008B172B6FEE70F20CDE90A054FF4806041
:1042A000CDE90C4002210AA80E94FEF735FB002848
:1042B00001D072B6FEE70FB030BD7047F0B50268AE
:1042C000194B1A4C1A4D4FF08047984205D0B8420E
:1042D00003D0A04201D0A84203D122F070064A6860
:1042E0003243984205D0B84203D0A04201D0A84240
:1042F00003D122F44074CA6822434C6922F0800240
:10430000224302608A68C2620A688262984201D1CE
:1043100009690163012141610169C90703D001698C
:1043200021F001010161F0BD002C014000040040BA
:104330000008004010B5846842EA032224F47F4458
:104340000A432243826010BD826822F070020A4351
:1043500042F007018160704710B5036A046A24F0D7
:1043600001040462846924F0F00444EA021423F096
:104370000A020A438461026210BD10B5036A046A2E
:1043800024F010040462846923F0A00324F4704430
:1043900044EA023243EA01118261016210BD2DE953
:1043A000F04190460A4604464146104600F0D4FBD0
:1043B0000546216800F0D2FA0646A08900F086FA88
:1043C000314600F097FAA08902D200F07FFA0CE0A3
:1043D000404200F063FA314600F08CFB04D2A08921
:1043E000404200F05BFA00E030460646294660692C
:1043F00000F0CAF907466061A08900F067FA394603
:1044000000F078FAA08902D200F060FA0CE0404295
:1044100000F044FA616900F06DFB04D2A0894042CB
:1044200000F03CFA00E0606960612846216900F014
:1044300093FB07462561A08900F048FA394600F051
:1044400059FAA08902D200F041FA0CE0404200F093
:1044500025FA394600F04EFB04D2A089404200F014
:104460001DFA00E03846A16800F078FA0546616858
:10447000606900F073FA314600F086F9294600F0D1
:1044800083F90546A08900F021FA294600F032FAA6
:10449000A08902D200F01AFA0CE0404200F0FEF9C6
:1044A000294600F027FB04D2A089404200F0F6F92B
:1044B00000E0284601464046BDE8F04100F064B9FE
:1044C000FEE7000010B57F2818DA402916DA002828
:1044D00014DB002912DBCB1701EB5374E31024F03B
:1044E000070400EBC3100C1B054B0121A140002A5F
:1044F0001A5C01D00A4300E08A431A5410BD000040
:10450000D0010020490050EAC12018BF04204A0D04
:1045100018BF40F0010040F2FF72B2EB515F08BFDC
:1045200040F00200012808BF052070470907090E66
:10453000002804DB00F1E02080F80014704700F050
:104540000F0000F1E02080F8141D704730380A2871
:1045500001D20120704700207047000003490A780B
:10456000002A02D04860002008707047B400002084
:1045700010B5002808D0054C2178002904D16168C5
:10458000FFF7B8FA0120207010BD0000B400002031
:1045900010B500210846FFF789FB012211460848A3
:1045A000FEF724F907484FF6FF714FF0FF334088BC
:1045B000BDE8104001EAC01203490448FEF780BC80
:1045C000000C014034000020D00100203001002008
:1045D000B0F9001080290FDAB0F90220402A0BDA76
:1045E000002901DB002A09DA83881944002903DD48
:1045F000C0881044002801DC00207047012070476B
:10460000FFF7C0B80FB4F8B514460D4606460AAB1E
:1046100064210C48099AFBF781FE0A48FFF7D4FD94
:1046200041880848002900904FF00003224629469F
:10463000304604D0FDF75AFCF8BC5DF814FBFDF7DA
:10464000DFFBF9E7C6060020FEF7E4F8FFF706FEF9
:10465000FEF7CAFEFEF712FFFEF734FF0448FEF72E
:10466000D5FD00F047F800BFFFF7CAFFFCE70000E8
:1046700088010020002202A311461046FFF7C2BFA6
:10468000D7CCC9FA313233000146002000E0401C8B
:104690000A5C002AFBD1704730B5CA1701EB52748F
:1046A000E3100022002810DB00290EDB05467F28DE
:1046B0000BDA402909DA064A05EBC310105C24F036
:1046C0000702891AC84000F00102104630BD000000
:1046D000D0010020064810B5446906E0207A18B1E0
:1046E0002068C16901B188476468002CF6D110BD0B
:1046F00010000020FEF7D8BF70B505460B480C46E9
:10470000007868B101280AD0032809D12846FFF7AC
:10471000C3FF10B10022214602E00122FBE7002284
:104720002846BDE87040FFF7CDBE00001500002010
:1047300010B500290AD00878002807D00548784429
:10474000FCF73CFF002801D0002010BD024878444F
:1047500010BD0000820C00007A0C000010B500298A
:104760000AD00878002807D005487844FCF726FFCF
:10477000002801D0002010BD0248784410BD000080
:10478000720C00006A0C000090EA010F48BF81F033
:10479000004100F1E881421A3CBF801A89184FEAB3
:1047A000D0524FF07F4C1CEA410FA2EBD15318BFFF
:1047B0009CEA026F00F03B804FF0004C4CEA002076
:1047C0004CEA012121FA03FC10EB0C0C1ED202F181
:1047D000FF325FEA1C2040EBC25038BF70471CF02C
:1047E0007F0F4FEA400C18BFBCF17F4F38BF7047B6
:1047F000C3F12003994008BF20F00100BCF17F4FB6
:1048000038BF7047A0F1C04000F06FB94FEA3C00DC
:10481000000A40EBC25028BF1CF0FF0F4FEA400CCB
:10482000E6D018BFBCF17F4F38BF7047EAE79CEA7B
:10483000026F05D010EA5C0F08BF00F0004070471F
:1048400010B500F00CF900BF64FBBE3E401058BF2D
:10485000C0F14040491058BFC1F140418142EFF3DF
:104860000080704741000B0ED3F19E0208D950F42E
:1048700000034FEA032323FA02F048BF4042704787
:1048800010B500F0ECF800BF49922480002070477A
:104890006FF0004282EA20007047000010F00041F3
:1048A00048BF4042B0FA80F310FA03F2C3F19D030F
:1048B0000BD051EAC35101EB1220530638BF7047A9
:1048C00000F1010008BF20F001007047B0FA80F34A
:1048D00010FA03F2C3F19D030AD0D90501EB1220AF
:1048E000530638BF704700F1010008BF20F00100F7
:1048F0007047000050EA010C00F113801CF5000F16
:1049000058BFBCF5000F01D48842704707D710F597
:10491000000F58BF11F5000F15D488427047894227
:1049200070471CF5000F04D5BCF5000FF7D5814288
:1049300070474FF0807C1CEB400F38BF1CEB410FE1
:1049400001D28142704710B500F089F892244900E5
:104950004FF000504FF08051FFF778BF4FF47F0CBD
:104960001CEAD0121EBF1CEAD11392EA0C0F93EA84
:104970000C0F00F0478090EA010F48BF42F48072AC
:104980004FF0004C4CEA00204CEA012102EB0302FC
:10499000A0FB0113A2F50002002918BF43F0010398
:1049A0005B0028BF4FEA330342EB22425FEA132C3D
:1049B0004CEBC2502EBFBCEB436FB2F57C0F70477F
:1049C0004FEA036CBCF1004F08BF20F00100B2F5C4
:1049D0007C0F38BF70470BD582F0FF0212F5803F85
:1049E000C8BF704700F1C040D8BF00F0004070471A
:1049F00000F5000C5FEA4C0C48BF7047B0F1C040B6
:104A000000F073B890EA010F0CEAD11348BF42F4EA
:104A10008072624538BF634504D280EA010000F02D
:104A20000040704710B500F01AF800BF8900013E41
:104A300000F007B800F009B85FEA410C5FEA1C6CAF
:104A400008D080EA010000F050B85FEA400C5FEA4D
:104A50001C6CF6D14FF00040A0F5800070470EF1BD
:104A6000020E2EF0030E5EF8044B244204D44FEAEB
:104A70004102B2F17F4F11D84FEA4003B3F17F4FAB
:104A80000CD80ED14FEAD07CB2F17F4F0CEB4C0C1E
:104A90000CF1020C08BF4CEBD17C04E04FF0080C89
:104AA00001E04FEAD17C0CEB4C0324FA03F404F050
:104AB0000704B4F1040C06D20EEB840CBDE81040E0
:104AC0004CF0010C6047DFE80CF0070802024FF0E1
:104AD0000040A0F5800010BD0846420018BFD2F18A
:104AE000807288BF00F0004010BDFF2141EAD05025
:104AF000C005704751EA000C00F113801CF5000F4F
:104B000058BFBCF5000F01D48142704707D711F59B
:104B1000000F58BF10F5000F15D48142704789422D
:104B200070471CF5000F04D5BCF5000FF7D588427F
:104B300070474FF0807C1CEB410F38BF1CEB400FDF
:104B400001D28842704780EA010081EA000180EAD0
:104B50000100FFF7F8BE000090EA010F48BF81F0A6
:104B600000413FF518AE421A04D882F00042A0EB93
:104B7000020011444FEAD0524FF07F4C1CEA410F23
:104B8000A2EBD15318BF9CEA026F4AD04FF0004C01
:104B90004CEA00204CEA012121FA03FCB0EB0C0C9A
:104BA0000FD412F0FE0F36D05FEA4C001DD5001274
:104BB00040EBC25038BF70471CF03F0F18BF704722
:104BC0000BE0A2F101025FEA1C2040EBC25038BFAB
:104BD00070471CF07F0F18BF7047C3F12003994046
:104BE00014BF401E20F00100704780084FEA1223D6
:104BF00008BF7047B0FA80FCA2EB0C02CCF1280C85
:104C000060FA0CF093EA122F04BF00EBC250704719
:104C10004FEAC3707047130A5FEADC1008BF7047A1
:104C2000F6E79CEA026F04D010EA5C0F08BF002090
:104C3000704710B5FFF713FF40DFF63E81F00040EC
:104C40007047FCF778B8FCF7ADB901020203040520
:104C5000060708090A0B0C0D0E0F101000000000CB
:104C60000000000001020304060708090810000004
:104C70000000000000000000000000000000000034
:104C800000F80000000000000033300000000010B9
:104C90000C06100C0600000000000000000040C0E0
:104CA0007840C0784000043F04043F0404000070D2
:104CB00088FC08300000001820FF211E0000F008CA
:104CC000F000E018000000211C031E211E0000F06F
:104CD0000888700000001E212324192721101016B7
:104CE0000E000000000000000000000000000000B6
:104CF00000E0180402000000000718204000000235
:104D00000418E000000000402018070000004040A8
:104D100080F0804040000202010F0102020000000A
:104D200000F0000000000101011F0101010000006E
:104D300000000000000080B07000000000000000D3
:104D4000000000000000000101010101010100005C
:104D500000000000000000303000000000000000F3
:104D6000000080601804006018060100000000E0E8
:104D700010080810E000000F102020100F00001095
:104D800010F8000000000020203F202000000070EC
:104D900008080888700000302824222130000030E4
:104DA0000888884830000018202020110E000000DC
:104DB000C02010F8000000070424243F240000F85D
:104DC0000888880808000019212020110E0000E042
:104DD000108888180000000F112020110E000038E4
:104DE0000808C83808000000003F000000000070FC
:104DF000880808887000001C222121221C0000E085
:104E000010080810E0000000312222110F000000FD
:104E100000C0C000000000000030300000000000B2
:104E20000080000000000000806000000000000022
:104E300080402010080000010204081020004040BB
:104E400040404040400004040404040404000008FE
:104E500010204080000000201008040201000070B3
:104E600048080808F0000000003036010000C0309B
:104E7000C828E810E0000718272423140B000000BE
:104E8000C038E0000000203C23020227382008F848
:104E9000888888700000203F202020110E00C0303C
:104EA000080808083800071820202010080008F813
:104EB00008080810E000203F202020100F0008F80C
:104EC0008888E8081000203F20202320180008F8D8
:104ED0008888E8081000203F200003000000C03050
:104EE00008080838000007182020221E020008F8D1
:104EF00008000008F808203F210101213F20000898
:104F000008F8080800000020203F202000000000D2
:104F10000808F8080800C08080807F00000008F8BA
:104F200088C028180800203F20012638200008F8F3
:104F3000080000000000203F20202020300008F85A
:104F4000F800F8F80800203F003F003F200008F874
:104F500030C00008F808203F200007183F00E0108C
:104F600008080810E0000F10202020100F0008F89B
:104F700008080808F000203F210101010000E010AE
:104F800008080810E0000F18242438504F0008F8D3
:104F9000888888887000203F2000030C3020007033
:104FA0008808080838000038202121221C00180831
:104FB00008F8080818000000203F2000000008F84A
:104FC00008000008F808001F202020201F00087893
:104FD000880000C83808000007380E010000F808F3
:104FE00000F80008F800033C0700073C030008181D
:104FF00068808068180820302C03032C3020083883
:10500000C800C83808000000203F20000000100839
:105010000808C83808002038262120201800000081
:1050200000FE020202000000007F40404000000C31
:1050300030C000000000000000010638C00000027F
:105040000202FE000000004040407F00000000001F
:105050000402020204000000000000000000000042
:10506000000000000000808080808080808000023E
:10507000020400000000000000000000000000002A
:105080008080808000000019242222223F2008F81E
:10509000008080000000003F112020110E00000061
:1050A000008080800000000E1120202011000000F0
:1050B00000808088F800000E112020103F200000A2
:1050C000808080800000001F2222222213000080A6
:1050D00080F0888888180020203F202000000000F1
:1050E000808080808000006B94949493600008F826
:1050F000008080800000203F210000203F200080B1
:105100009898000000000020203F202000000000B0
:1051100000809898000000C08080807F000008F820
:10512000000080808000203F24022D3020000008F5
:1051300008F8000000000020203F202000008080B0
:10514000808080808000203F20003F20003F8080C2
:10515000008080800000203F210000203F200000D0
:10516000808080800000001F202020201F00808081
:1051700000808000000080FFA12020110E000000B0
:10518000008080808000000E112020A0FF808080A1
:1051900080008080800020203F212000010000004E
:1051A0008080808080000033242424241900008023
:1051B00080E0808000000000001F20200000808030
:1051C000000000808000001F202020103F208080F1
:1051D00080000080808000010E3008060100808081
:1051E0000080008080800F300C030C300F000080A6
:1051F0008000808080000020312E0E3120008080D1
:1052000080000080808080818E7018060100008000
:105210008080808080000021302C2221300000001E
:105220000000807C020200000000003F40400000BF
:105230000000FF00000000000000FF00000000026E
:10524000027C800000000040403F0000000000069B
:105250000101020204040000000000000000D7CC9D
:10526000C9FA001060028C0008C8398E0808CC3BCF
:1052700088080004047E0100635A46E100635A4630
:10528000E100008040301E101010FF1010101010B0
:10529000100000404042424242427F42424242426B
:1052A00040400000000000000000000030313233B8
:1052B000343536373839414243444546403058004A
:1052C000303132333435363738396162636465667C
:1052D00040307800040000080000000000000002D8
:1052E000000100001030313233343536373839613F
:1052F0006263646566787000303132333435363736
:1053000038394142434445465850000002400000AD
:10531000000000A00000000005400000000000C8E0
:10532000000000000C4000000000409C0000000055
:10533000194000000020BCBE000000003440000006
:10534000BFC91B8E00000004B5400000504BCFD0F9
:105350006607E2CF010000006C4100003E8251AAC6
:10536000DFEEA73401000000D9420000DCB5A0E266
:105370003A301F97FFFFFFFFB4450000FD25A0C88E
:10538000E9A3C14FFFFFFFFFFF3F000000000080C7
:1053900000000000FF3F000000000080000000004F
:1053A000EC54000800000020300100002801000833
:1053B0003855000830010020600C0000840100080E
:1053C0001C00000043000000F8FFFFFF0C0000007D
:1053D0000E0000000F0000002E0000001001000071
:1053E00043000000F8FFFFFF0040404040404040C5
:1053F00040404141414141404040404040404040A8
:10540000404040404040404040050202020202024B
:10541000020202020202020202202020202020209A
:1054200020202002020202020202909090909090AE
:10543000101010101010101010101010101010106C
:1054400010101010020202020202888888888888E0
:1054500008080808080808080808080808080808CC
:1054600008080808020202024000000000000000D4
:10547000000000000000000000000000000000002C
:10548000000000000000000000000000000000001C
:10549000000000000000000000000000000000000C
:1054A00000000000000000000000000000000000FC
:1054B00000000000000000000000000000000000EC
:1054C00000000000000000000000000000000000DC
:1054D00000000000000000000000000000000000CC
:1054E00000000000000000000000000032018210F7
:1054F00043127A2A0114011C12801208A924123CBA
:10550000121E1240122062031E3F9A99993E04E334
:10551000BE0F094618B97C692C810A21231885CD54
:10552000CCCC3EE95C1A640281136E4C1B086C04FF
:085530004B6E4D084100000024
:04000005080000ED02
:00000001FF
