:020000040800F2
:10000000C00E002001010008A14100080D2D0008CC
:10001000D53A00085F090008594C000800000000AC
:10002000000000000000000000000000654500081E
:10003000C90B000800000000B14300086D4800082B
:100040001B0100081B0100081B0100081B01000820
:100050001B0100081B0100081B0100081B01000810
:100060001B0100081B0100081B0100081B01000800
:100070001B0100081B0100081B0100081B010008F0
:100080001B0100081B0100081B0100081B010008E0
:100090001B0100081B0100081B0100081B010008D0
:1000A0001B010008D14800081B0100081B010008C3
:1000B0001B0100081B0100081B0100081B010008B0
:1000C000112D00081B0100081B0100081B0100087E
:1000D0001B0100081B0100081B0100081B01000890
:1000E0001B0100081B0100081B010008DFF80CD0F1
:1000F00000F0B4FB00480047695C0008C00E002017
:100100000648804706480047FEE7FEE7FEE7FEE7B1
:10011000FEE7FEE7FEE7FEE7FEE7FEE7CF48000862
:10012000ED000008202A04DB203A21FA02F0002129
:10013000704721FA02F3D040C2F1200291400843F7
:1001400019467047D2B201E000F8012B491EFBD2DC
:1001500070470022F6E710B513460A4604461946D2
:10016000FFF7F0FF204610BDF0B480EA0102D40F83
:100170004200B2EB410F02D20246084611464A0045
:1001800042D0C30DDDB2C1F3C752AD1A202D35DA0E
:10019000C1F3160141F4000204B15242C5F1200638
:1001A00002FA06F12A411044B3EBD05F23D0C4B168
:1001B000012DA0EBC35009DCF0BC4FF0004202EA75
:1001C000C352DBB200F5000000F08DBA400000F130
:1001D000807000EBC350A0F1807040EAD1704900FC
:1001E00009E0490841EAC071A0EBC35000F50000E6
:1001F000400800EBC350F0BC00F06CBA6142012231
:1002000002EB4101001BF6E7F0BC704781F00041B2
:10021000AAE780F00040A7E780EA010210B502F0EB
:100220000043400022D04A001FD0010E01EB1261B2
:10023000C0F35600C2F3560240F4000042F400023C
:10024000A0FB022000047F39140400D0401C50EAB7
:10025000124001D44000491EC2B20C0604EBD0107B
:10026000401C4008802A02D003E0002010BD20F08E
:100270000100002900DA0020184310BD2DE9FE4FCF
:10028000804681EA0300C00F0C46009021F0004137
:1002900023F00045B8EB0200A94105D240462146B3
:1002A00090461C460B46024623F00040104347D0C0
:1002B000270DC7F30A00C3F30A510290401A0190B8
:1002C00040286BDAC3F3130040F4801B0098924679
:1002D00020B10023D2EB030A63EB0B0B01985946C4
:1002E000C0F14002504600F0D4F906460D46504693
:1002F0005946019A00F0DCF910EB08006141002436
:1003000087EA115284EAE7731A4340D0009A62B335
:10031000019A012A4FEA075215DC001B61EB02012A
:100320004FF0004202EA0752CDE90042001C41F5BD
:10033000801132462B4600F013FA03B0BDE8F08F6F
:1003400040462146F9E7001B61EB0201001C41F524
:10035000801300185B412018A2F5001747EB03013A
:1003600040EAD570B6196D4111E06D084FEA3606C6
:1003700045EAC0754FEA0752001B61EB0201001C01
:1003800041F5801149084FEA3000001951413246C9
:100390002B4603B0BDE8F04F00F0D3B9009801221E
:1003A00040000023D0EB020263EBE073009821468B
:1003B0004FEAE074B8EB000061EB0401E9E783F079
:1003C00000435BE781F0004158E72DE9FE4F81EAE9
:1003D000030404F0004421F0004100944FF0000BAE
:1003E00023F0004350EA01045ED052EA03045BD0DC
:1003F000C3F30A54C1F30A552C44A4F2F334019414
:10040000A0FB0254C1F3130141F48011C3F31303A1
:1004100043F4801301FB024400FB034E840A970A55
:1004200044EA815447EA8357A4FB076802958D0A82
:1004300005FB07854FEA932C04FB0C542705029D0E
:100440004FEA065847EA1637B5EB08056EEB070C7E
:10045000870E920E47EA811742EA8312A7FB020138
:10046000B6EB0B0164EB00042B0D43EA0C335E1872
:1004700044EB1C50DA465146E7FB0201C5F3130476
:100480004FEA0B3343EA14534FEA0432019C43EA28
:100490000603A4F10C040294009CCDE900B400F022
:1004A0005FF903B0BDE8F08F00200146F9E72DE9C0
:1004B000F04D81EA030404F0004B21F0004514469E
:1004C0004FF0000A23F0004150EA050220D054EA20
:1004D00001021DD0C5F30A570246C5F31303C1F349
:1004E0001300C1F30A5640F4801543F48013A7EBC0
:1004F0000608101BD64608F2FD3873EB050002D340
:1005000008F1010801E092185B41B8F1000F03DA2D
:1005100000200146BDE8F08D00204FF48011064612
:1005200084460EE0171B73EB050705D3121B63EB24
:10053000050306434CEA010C49084FEA30009218C3
:100540005B4150EA0107EDD152EA030012D082EA82
:10055000040083EA0501084305D0101BAB4106D215
:100560000122002306E000224FF0004302E06FF07A
:10057000010253101AEB06004CEB085110EB0A0075
:1005800041EB0B01BDE8F04D00F0DBB8C10F80EA94
:10059000E0700844CA079623002100F0A4B896230F
:1005A0000022114600F09FB800F0004220F0004009
:1005B000C10DC0F3160040F400007F2901DA0020CD
:1005C0007047962903DCC1F19601C84001E09639D5
:1005D0008840002AF4D0404270470000002801DB28
:1005E000C0F10040002901DBC1F1004181427047A8
:1005F000002801DBC0F10040002901DBC1F100410E
:100600008842704730B50B46014600202022012465
:1006100009E021FA02F59D4205D303FA02F5491BD0
:1006200004FA02F52844151EA2F10102F1DC30BDE6
:100630002DE9F05F0546002092469B468846064617
:10064000814640241BE02846414647462246FFF7A4
:1006500069FD53465A46C01A914110D311461846B7
:10066000224600F016F82D1A67EB01084F46224685
:100670000120002100F00DF817EB00094E41201E6B
:10068000A4F10104DFDC484631462A464346BDE872
:10069000F09F202A04DB203A00FA02F10020704784
:1006A0009140C2F1200320FA03F3194390407047B0
:1006B000202A06DBCB17203A41FA02F043EAE07326
:1006C00006E041FA02F3D040C2F120029140084313
:1006D000194670470029A8BF7047401C490008BF51
:1006E00020F00100704710B4B0FA80FC00FA0CF062
:1006F00050EA010404BF10BC704749B1CCF120049A
:1007000021FA04F411FA0CF118BF01212143084326
:10071000A3EB0C01CB1D4FEA00614FEA102042BF52
:10072000002010BC704700EBC35010440029A4BF48
:1007300010BC7047401C490008BF20F0010010BCED
:10074000704710B5141E73F1000408DA401C41F123
:10075000000192185B411A4301D120F0010010BD45
:100760002DE9F04D92469B4611B1B1FA81F202E0BB
:10077000B0FA80F220329046FFF78BFF04460F4616
:1007800040EA0A0041EA0B0153465A46084313D097
:10079000114653EA010019D0C8F140025046FFF754
:1007A000C1FC05460E46504659464246FFF771FFCA
:1007B000084305D0012004E020463946BDE8F08D0D
:1007C0000020054346EAE0762C4337430A98630548
:1007D000E40AA0EB08000022FD0A44EA47540A306C
:1007E00002D500200146E9E7010510196941DDE95C
:1007F000084500196941BDE8F04DA2E7C1F30A526E
:10080000C1F3130140F2FF3341F480119A4202DA3E
:1008100000200146704740F233439A42A2F233422D
:1008200002DC5242FFF77EBCFFF733BF30B5041E37
:1008300071F1000404DB4FF00044404264EB01011D
:10084000141E73F1000405DB1C464FF000435242B6
:1008500063EB0403994208BF904230BD064C074D3C
:1008600006E0E06840F0010394E807009847103480
:10087000AC42F6D3FFF73EFCF868000818690008A0
:1008800070B58C1810F8015B15F0070301D110F852
:10089000013B2A1106D110F8012B03E010F8016B7F
:1008A00001F8016B5B1EF9D12B0705D40023521E02
:1008B0000DD401F8013BFAE710F8013BCB1A921C6A
:1008C00003E013F8015B01F8015B521EF9D5A14268
:1008D000D8D3002070BDF8B507461C4615460E4615
:1008E000182003F06BFA002805D02B463246394613
:1008F000009403F039FEF8BD10B50346006809B155
:1009000010B104E0002010BD196004E018464368EF
:10091000002BFBD14160012008720020C1E90020BA
:10092000084610BD024600F128010148FFF7E4BF68
:100930002400002070B50E4604000ED0F00709D048
:100940001546042003F03AFA206218B10021018014
:10095000206A4580A08C3043A08470BD7047FEE7BC
:100960002DE9FF5F0024DDF838B09A462746A046FF
:10097000A1465E4625460C21324800F01DF901E0F3
:100980006D1CADB216F8010B0028F9D1BAF1000FB9
:1009900037D14FF6FF7A34E01BF807306D1E7F1C0D
:1009A000ADB2BFB20A2B3DD02748029940694678C4
:1009B00009FB0611067801980AB208FB060001B28D
:1009C000009803F0C1FA08F101001FFA80F8D04541
:1009D0000ED309F101001FFA80F91A484FF0000800
:1009E000817A491C81728188A14200D284800024CE
:1009F00014480188491C018013484069007820444C
:100A000084B2002DC8D1104841690E480A7882711D
:100A10004978C1718188A14200D2848004B009481C
:100A2000BDE8F09F09F101001FFA80F905484FF079
:100A30000008817A491C81728188A14200D2848099
:100A40000024DEE786070020200100202DE9FF4F6B
:100A500083B04B48002500954069DDF840A09B46D7
:100A600040782F46A846A9465446102800D21020A8
:100A7000019000260C21434800F09EF801E0761C0E
:100A8000B6B214F8010B0028F9D13E4CBBF1000FAF
:100A900041D14FF6FF7B3EE0761E1AF80700B6B252
:100AA0008DF800007F280CD90AEB0701BF1C49789C
:100AB0008DF80110761E6188BFB2491CB6B2618004
:100AC00001E07F1CBFB20A2817D07F2836D9059ACB
:100AD00001996B4609FB012002B20498404401B21F
:100AE000039802F0FBFF00208DF8010008F11000D0
:100AF00010351FFA80F8ADB23FE009F101001FFA8E
:100B000080F9A07A4FF00008401CA072A088A8428B
:100B100000D2A5800025002EBED119484069017879
:100B2000A1714078E071102020726072A088A84204
:100B300000D2A58007B01348BDE8F08F10486B467F
:100B400040694078C0F1100105980A18019909FB25
:100B5000012002B20498404401B2039803F0C2FAA3
:100B600007484069027802EB08011FFA81F82188E2
:100B7000491C21800078284485B2D845CBD3BCE7F6
:100B8000200100209E070020017A012901D00020C9
:100B9000704700210172012070472830FFF7F4BF31
:100BA0000020044B4FF4806102461A54401C8842D6
:100BB000FBD370478C020020002201E000F8012BDB
:100BC000491E89B2FAD27047704770B58E18002955
:100BD00000DA00210C4605B205E0012221B22846C8
:100BE00005F01EFB641CB442F7DB70BD2DE9FF5F0E
:100BF0008146500001278846C2F10106C0F1000B72
:100C000000251446DDF838A03AE0002E03DB0BF196
:100C1000020B5E44641EBF1C03986D1C3E44C0075B
:100C200015D00AEB4400401CC2B2A8EB040109EB4A
:100C30000500FFF7CAFFA54209DA0AEB4500401C90
:100C4000C2B2A8EB050109EB0400FFF7BEFF039851
:100C5000800715D50AEB4400401CC2B2A8EB040182
:100C6000A9EB0500FFF7B1FFA54209DA0AEB450041
:100C7000401CC2B2A8EB0501A9EB0400FFF7A5FFD9
:100C8000A542C2DBBDE8FF9F2DE9F0411C46164698
:100C90000D46074608E02819401E01B23246384684
:100CA00000F014FA641EA4B2002CF4D1BDE8F08167
:100CB0002DE9FE4F161ACDE900104FF000085D1A1D
:100CC00047464FF0FF30002E02DD4FF0010102E0F9
:100CD00003D14FF000018B4602E08346C6F10006C7
:100CE000002D02DD4FF0010002E003D14FF00000C3
:100CF000824602E08246C5F10005AE4201DD34467F
:100D000000E02C46601C4FF00009029019E00098AA
:100D1000012201B2019800B205F082FAB0442F44DA
:100D2000A04504DD0198A8EB040858440190A742AF
:100D300003DD00983F1B5044009009F101001FFAA9
:100D400080F902998945E2DDBDE8FE8F2DE9F84F73
:100D500005680446067CA88800281BD0E88800287F
:100D600018D0607C012817D0B5F90080B5F9029041
:100D7000B5F90470B5F90600A4F80880A4F80A9043
:100D8000A781E0812674C3B24946FAB24046009674
:100D900000F068F8BDE8F88FB4F90A00FFF7F6FB39
:100DA0000746B5F90200FFF7F1FB01463A46214834
:100DB00003F0B5FEFFF7F8FB0FFA80F9B4F908006D
:100DC000FFF7E4FB0746B5F90000FFF7DFFB01463C
:100DD00018483A46183003F0A2FEFFF7E5FB0FFA79
:100DE00080F8A089FFF7DBFB0746A888FFF7D7FB51
:100DF000014610483A46303003F091FEFFF7D4FB2D
:100E000007B2E089FFF7CBFB8246E888FFF7C7FB14
:100E1000014608485246483003F081FEFFF7C4FB04
:100E200000B2B0EB460F00DA7000B7EB460FA3DA62
:100E30007700A1E75000002038B5049D18B1009557
:100E400003F0B8FA38BD10461C4639B10B78497822
:100E500000912A46214600F039F838BD03784178E0
:100E6000901CF5E72DE9F84F1D460A9C16008A46AE
:100E7000814626D0002D24D0C4F1000806EB48009E
:100E800082B209EB040738B20FFA8AF1FFF7FCFED1
:100E900005EB4800A0F1010809EB06000AEB040588
:100EA000001B012322462946401ECDF80080FFF793
:100EB0009DFE2946384602232246CDF80080FFF7E2
:100EC00095FEBDE8F88F72B6FEE700002DE9F84FF9
:100ED0008346C8180A9C0FFA80FC101907B2D01775
:100EE00002EB507424F00700161A002A08DA06F103
:100EF0000800C51700EB557525F00705401B00E0FD
:100F00003046C5B20020BCF1000F6FDB002F6DDB57
:100F100080296BDA402A69DA3F2F00DD3F27DFF8AE
:100F2000A4A14FF0FF0E12F1080F04DCE21003FB46
:100F3000120080B23246C0E00C4602F10809B7E068
:100F4000002C03DA001B80B2002406E07F2C04DBB7
:100F5000ACEB0402104480B2ADE05B4B1B78022B7B
:100F60004FD0032B21D0002A0CDBD31004EBC3138A
:100F70001BF800801AF8036008FA05F846EA08062C
:100F80000AF80360B9F13F0F2FDC75B31BF800605E
:100F9000002AC5F1080326FA03F67ADA1AF8048063
:100FA00046EA08060AF804607EE0002A0CDBD3104B
:100FB00004EBC3131BF800801AF8036008FA05F865
:100FC00086EA08060AF80360B9F13F0F6CDC65B1E8
:100FD0001BF80060002AC5F1080326FA03F606DABA
:100FE0001AF8048086EA0806DCE751E068E0D310CE
:100FF00004EBC31808EB0A0393F8808086EA08061E
:1010000050E0002A14DBD31004EBC31600961AF844
:101010000630C5F108082EFA08F63340009E0AF89B
:1010200006301BF80060AE403343009E0AF80630DD
:10103000B9F13F0F38DC5DB3002A10DA1AF804600A
:101040000EFA05F31E400AF804601BF80030C5F1E3
:10105000080823FA08F333430AF8043024E0D310D5
:1010600004EBC31606EB0A030EFA05F693F880802C
:1010700008EA060883F88080CDF800801BF800603D
:10108000C5F1080826FA08F6DDF8008008E000E05F
:101090000AE0D31004EBC31808EB0A0393F880802E
:1010A00046EA080683F88060641C401C24B280B2C3
:1010B0006445FFF645AF0FFA89F2BA42FFF63CAF3E
:1010C000BDE8F88F8C0200201500002070B5144692
:1010D0000E46054608E02819401E00B2012231469E
:1010E00005F09EF8641EA4B2002CF4D170BD002857
:1010F00004D00189012901D00069FAE7704700286E
:1011000007D0C168002904D00A89012A01D0084605
:10111000F7E7704770B50A484178846801290DD116
:101120000025457008E0A07D012804D1A575E1687F
:1011300009B120698847A468002CF4D170BD000073
:10114000B40000202DE9F04107461448012600258F
:10115000846846701EE0E07D01281AD1206838447A
:1011600020606168884214D32560607D012803D91E
:10117000A0F10100607501E000D1E575207D012836
:1011800001D028B105E0E16819B12069884700E085
:10119000A675A468002CDED1BDE8F081B400002063
:1011A000037A012B01D000207047C3790B7041797D
:1011B00011700021417101720120704710B590F843
:1011C00021100024022903D00421816301243DE081
:1011D00001680A6822F00E020A6001680A6822F0BB
:1011E00001020A601A4A0168914201D1012121E0FD
:1011F000174A1432914201D110211BE0144A2832BF
:10120000914201D1891515E0114A3C32914201D138
:1012100089140FE00E4A5032914202D14FF48031CE
:1012200008E00B4A6432914202D14FF4801101E090
:101230004FF08071064A083A5160012180F8211070
:10124000002180F82010416B01B18847204610BD75
:101250000800024070B5044600F094F90546601C91
:1012600002D004480078044400F08CF9401BA042EE
:10127000FAD370BD000000202DE9F04300233E4F5B
:101280000F2573E001229A400A406DD023F0030439
:10129000E619D6F808809C074FEA147C05FA0CF989
:1012A00009EA0804DFF8D480404502D14FF0000875
:1012B00016E0DFF8CC80404502D14FF001080FE086
:1012C000DFF8C080404502D14FF0020808E0DFF8A7
:1012D000B880404502D14FF0030801E04FF0040808
:1012E00008FA0CF8A04522D1284CD4F800C02CEA0A
:1012F000020CC4F800C0241DD4F800C02CEA020C73
:10130000C4F800C0214C0C34D4F800C02CEA020C04
:10131000C4F800C0241FD4F800C02CEA020CC4F8A2
:1013200000C0D6F808C02CEA090CC6F808C0FF2A8D
:1013300001D8064601E000F104064FEA830401D912
:10134000A4F12004D6F800C005FA04F82CEA080C31
:101350004FF0040808FA04F84CEA080CC6F800C07C
:10136000C46824EA0204C46003F1010331FA03F201
:1013700088D1BDE8F0830000000001400008014072
:10138000000C014000100140001401400004014025
:101390002DE9F84FDFF8B8910024A9F1040B23469A
:1013A0000F2709F1040AABF1040EC9E00125A5409D
:1013B0002A40AA427DD1674ED1F804C0ACEB0608A2
:1013C000B44532D014DCBCF1030F3AD009DCBCF1D7
:1013D000000F2AD0BCF1010F1CD0BCF1020F31D19B
:1013E0001DE0BCF1110F17D0BCF1120F2AD119E08A
:1013F000B8F5881F19D006DCB8F5803F15D0B8F5D0
:10140000801F1FD111E0B8F5001F0ED0B8F5041FE2
:1014100018D10AE0CB6815E0CB681B1D12E0CB6841
:1014200008330FE0CB680C330CE08B682BB1012B39
:101430004FF0080303D0456104E0042302E0056196
:1014400000E00023FF2A01D8064601E000F104066F
:101450004FEA840501D9A5F12005D6F8008007FAE6
:1014600005FC28EA0C0803FA05F548EA0508C6F861
:1014700000804D68ED0062D5374DAE6946F001063B
:10148000AE61AD6924F0030605F001050095334D0A
:1014900006EB050CDCF80850A607360F07FA06F82D
:1014A00025EA0805DFF8B880404503D14FF0000871
:1014B00017E044E0DFF8AC80404502D14FF001086E
:1014C0000FE0DFF8A480404502D14FF0020808E0A9
:1014D000DFF89880404502D14FF0030801E04FF05B
:1014E000040808FA06F848EA0508CCF808804D68B0
:1014F000D9F80060ED024D4601D5164300E0964351
:101500002E604D68DAF80060AD02554601D51643ED
:1015100000E096432E604D68DBF80060AD035D4649
:1015200001D5164300E096432E604D68DEF800605A
:10153000ED03754601D5164300E096432E60641C0A
:101540000D682A46E5407FF431AFBDE8F88F000012
:10155000080401400000111000100240000001408A
:1015600000080140000C014000100140001401403F
:101570008068084000D0012070470AB101617047BF
:101580000904FBE701488068704700000000002064
:10159000704710B5040013D0242084F83D00206863
:1015A000016821F001010160204600F02FFC0020BD
:1015B000206484F83D0044F8300FA073207310BD00
:1015C000012010BD2DE9F041016804464A694E68CA
:1015D00090F83E000025D743FA050BD4F243D2051C
:1015E00008D46FF4807201254A6121680A6842F4C8
:1015F00000420A60B90508D4F143C90505D4226840
:101600006FF4007145F002055161790525D4F1436D
:10161000C90522D4638D94F83D10226B202808D18F
:101620003BB9212910D029290ED0282901D1212AFE
:101630000AD022686FF48061516145F004051028DA
:1016400006D0402804D008E0204601F0D9FD04E08F
:101650002068016841F400710160380508D4F04346
:10166000C00505D421686FF4006045F008054861A5
:10167000002D07D0206C284320642046BDE8F041AF
:1016800001F0B2BBBDE8F08110B50548FFF781FF5E
:10169000034800F0BBFBBDE8104002F029B9000090
:1016A0005001002070B5040025D094F83D000025BD
:1016B00020B984F83C50204600F0C8FB242084F870
:1016C0003D002068016821F0010101602068016887
:1016D00041F4004101602068016821F4004101608B
:1016E00000F02AFD4D4A6168914201D84C4900E062
:1016F0004C49884201D2012070BD4B492368B0FBA0
:10170000F1F15E6826F03F060E435E606368934227
:1017100006D94FF4967359434FF47A73B1FBF3F142
:101720002368491C1E6A26F03F063143196261682E
:10173000914210D84900401EB0FBF1F2521CC2F396
:101740000B02042A01D2042022E0B0FBF1F0401C7D
:10175000C0F30B001CE0A268F2B301EBC10303EB82
:101760000116431EB3FBF6F35B1C43F480431B05D9
:1017700049D092B301EBC10202EB0111401EB0FB54
:10178000F1F0401CC0F30B0040F4804040F40040F6
:101790002168CA694CF6FF739A431043C861D4E9C3
:1017A000071001432068026822F0C0021143016063
:1017B000D4E9030101432068826848F2FF339A4369
:1017C00011438160D4E9050108432168CA6822F009
:1017D000FF021043C86001E00EE016E020680168D7
:1017E00041F0010101602564202084F83D0025635B
:1017F00084F83E50002070BD01EB4106431EB3FB50
:10180000F6F35B1CB3E70120C2E701EB4101401E88
:10181000B0FBF1F0401CC0F30B00B7E7A08601005D
:1018200080841E0000093D0040420F007047000008
:101830002DE9F84F0025DDF82890984617468A468E
:1018400004460095FFF79EFE064694F83D002028CA
:101850007AD11923012286492046009601F044FDE1
:101860000028F5D194F83C0001286DD0012084F8BF
:101870003C0020680168C90703D1016841F00101FB
:1018800001602068016821F400610160222084F871
:101890003D00102084F83E0025646762A4F82A8089
:1018A000608D20857348E06233464A4651462046A3
:1018B00001F05EFB00287CD1208DDFF8BC81202761
:1018C00068B1012814D00228206801681ED041F4B4
:1018D000806101602068416980690090BBE02068F8
:1018E000416981690091016841F400710160B2E0D1
:1018F0002068016821F48061016072B62068416946
:1019000081690091016841F400710AE041F40061CD
:10191000016072B62068416981690091016821F413
:101920008061016062B696E0032865D801280CD07A
:1019300002284B464FF000024146204600960BD04D
:1019400001F0D2FCA8BB0CE090E0324649462046AC
:1019500001F070FD68BB71E001F0C6FC48BB72B6D7
:1019600033E02068016821F48061016072B620686C
:101970000069616A0870606A401C6062208D401EC8
:101980002085608D401E60853C4846F2A8110068A5
:10199000B0FBF1F0C0EBC00000EB80000090401EF7
:1019A000009007D020684069C04340070DD50098DB
:1019B000F5E727E044F8305F6773A573206940F0CE
:1019C0002000206162B625731CE02068016841F4A4
:1019D0000071016020680069616A0870606A401CDB
:1019E0006062218D491E2185618D491E618562B627
:1019F00021680969017025E032464946204601F018
:101A000019FD10B10120BDE8F88F20680069616AF6
:101A10000870606A401C6062208D401E81B2218582
:101A2000608D401E608520684269D243520712D4FF
:101A3000032903D1016821F48061016020680069F5
:101A4000616A0870606A401C6062208D401E2085BB
:101A5000608D401E6085208D00287FF465AF84F87E
:101A60003D7084F83E5084F83C50CCE70220CAE731
:101A7000020010000000FFFF040001000C00002025
:101A80002DE9FF4F83B00025DDE910799A46934692
:101A90000446DDF848800095FFF774FD064694F88B
:101AA0003D0020287CD11923012288492046009638
:101AB00001F01AFC0028F5D194F83C0001286FD001
:101AC000012084F83C0020680168C90703D101683F
:101AD00041F0010101602068016821F400610160AA
:101AE000222084F83D00402084F83E00256467628F
:101AF000A4F82A90608D20857548E062CDE90086C3
:101B000053465A462046049901F0A8FA00287CD191
:101B1000208DDFF8C091202768B1012814D0022859
:101B2000206801681ED041F480610160206841692D
:101B300080690090BCE0206841698169009101687A
:101B400041F400710160B3E02068016821F4806114
:101B5000016072B62068416981690091016841F4B1
:101B600000710AE041F40061016072B620684169C9
:101B700081690091016821F48061016062B697E09B
:101B8000032865D801280CD0022843464FF00002F4
:101B90004946204600960BD001F0A6FBA8BB0CE0FE
:101BA00091E032464146204601F044FC68BB72E0B9
:101BB00001F09AFB48BB72B633E02068016821F45B
:101BC0008061016072B620680069616A0870606AAD
:101BD000401C6062208D401E2085608D401E608507
:101BE0003D4846F2A8110068B0FBF1F0C0EBC00020
:101BF00000EB80000090401E009007D020684069F4
:101C0000C04340070DD50098F5E727E044F8305F62
:101C10006773A573206940F02000206162B62573C8
:101C20001CE02068016841F40071016020680069CF
:101C3000616A0870606A401C6062218D491E2185BE
:101C4000618D491E618562B621680969017026E0CF
:101C500032464146204601F0EDFB18B1012007B0A5
:101C6000BDE8F08F20680069616A0870606A401CF6
:101C70006062208D401E81B22185608D401E60858E
:101C800020684269D243520712D4032903D1016864
:101C900021F48061016020680069616A0870606AEF
:101CA000401C6062208D401E2085608D401E608536
:101CB000208D00287FF464AF84F83D7084F83E5096
:101CC00084F83C50CBE70220C9E700000200100076
:101CD0000000FFFF040001000C0000202DE9FF4F71
:101CE00083B09A46DDE9119793460446DDF84080BB
:101CF000FFF748FC054694F83D0020287FD11923C2
:101D0000012240492046009501F0EEFA002876D1E4
:101D100094F83C00012872D0012084F83C0020682F
:101D20000168C90703D1016841F001010160206821
:101D3000016821F400610160212084F83D00402009
:101D400084F83E0000262664C4F82480A4F82A9073
:101D5000608D20852C48E062CDE9007553465A46D7
:101D60002046049901F0F8F970B930E02A46394666
:101D7000204601F097FB58B1206C042804D120685C
:101D8000016841F400710160012007B0BDE8F08FE7
:101D9000606A216800780861606A401C6062218D79
:101DA000491E89B22185628D521E6285226853695F
:101DB000DB435B070BD469B100781061606A401C9B
:101DC0006062208D401E2085608D401E6085208DC4
:101DD0000028CBD12A463946204601F059FA00287E
:101DE000CAD154F83D0B016841F400710160202014
:101DF00004F81E09E67766770020C6E7FFE70220B1
:101E0000C3E70000020010000000FFFF10B50068EB
:101E10000B49884212D10B48C16921F40011C161FC
:101E2000094C40212046FFF727FA80212046FFF782
:101E300023FABDE81040202000F098B810BD000043
:101E40000054004000100240000C014000B585B075
:101E50000021009101910291039100681349884289
:101E600022D11348C16941F40011C161C16901F473
:101E700000110491816941F008018161806969461E
:101E800000F008000490C020009012200190032070
:101E900003900848FFF77CFA00221146202000F04A
:101EA00083F8202000F073F805B000BD0054004016
:101EB00000100240000C0140704700000248816899
:101EC000027811448160704700000020074810B577
:101ED000016841F010010160032000F085F80F2037
:101EE00000F006F800F024F8002010BD00200240A9
:101EF00070B50D4D04464FF47A712878B1FBF0F0BF
:101F00000A490968B1FBF0F000F017FC48B9102C41
:101F100007D200222146501E00F046F800206C60D7
:101F200070BD012070BD0000000000200C000020EA
:101F30000C4808B5816941F001018161816901F0B6
:101F400001010091C16941F08051C161C06900F097
:101F5000805000900448416821F0E06141F0007138
:101F6000416008BD001002400000014000280DDB68
:101F700000F01F02012191404009800000F1E020A3
:101F8000C0F88011BFF34F8FBFF36F8F70470028E9
:101F900009DB00F01F02012191404009800000F19F
:101FA000E020C0F800117047F0B40E4B1B680C46DF
:101FB000C3F30223C3F10705042D00D90425191D1D
:101FC000072901D2002300E0DB1E012606FA05F1F5
:101FD000491E214099409E40761E16403143F0BC78
:101FE00003F086B80CED00E0064900F0070208682F
:101FF0004FF6FF03184040EA0220034A10430860EE
:10200000704700000CED00E00000FA052DE9F047F4
:102010000F46050061D0434E306800F00700B8421B
:1020200009D2306820F0070038433060306800F093
:102030000700B84251D128683B4C810712D54007B0
:1020400003D5606840F4E06060602878000703D53D
:10205000606840F4605060606068A96820F0F0003B
:10206000084360602878C00728D06868012810D02D
:102070002168022810D0890700292EDA616821F032
:10208000030101436160FFF77DFA804641F2883920
:102090000DE021688903EFE78901EDE7FFF772FAA8
:1020A000A0EB0801494502D90320BDE8F08760682C
:1020B000696800F00C00B0EB810FEFD1306800F0E0
:1020C0000700B8420BD9306820F007003843306071
:1020D000306800F00700B84201D00120E5E7287819
:1020E000400705D56068E96820F4E0600843606057
:1020F0002878000706D56068296920F4605040EA16
:10210000C100606000F028F86168084AC1F303115B
:10211000515CC8400649086006480068FFF7E8FEC1
:102120000020C2E700200240001002406A6200085E
:102130000C0000200400002004480549006849689C
:10214000044AC1F30221515CC84070470C000020D2
:10215000001002407A6200080E4A51680E4801F0F1
:102160000C03042B11D0082B0FD10C48C1F383436F
:10217000C903C05C0AD55168084AC1F34041921EA8
:10218000515C054A5043B0FBF1F0704704494843A5
:10219000704700000010024000127A005A620008E6
:1021A00000093D002DE9F84F040070D02078C04DA3
:1021B000C00749D06868C0F38100012807D068686B
:1021C000C0F38100022809D16868C00306D52868D9
:1021D000800339D560680028E7D035E06068B0F545
:1021E000803F0BD010B1B0F5A02F11D0286820F49B
:1021F00080302860286820F4802002E0286840F4BD
:1022000080302860606890B1FFF7BCF906460AE0AC
:10221000286840F480202860F0E700BFFFF7B2F99B
:10222000801B642873D828688003F7D50CE0FFF77B
:10223000A9F9064605E000BFFFF7A4F9801B642852
:10224000F0D828688003F7D420789A4E80074FF0A2
:1022500001094FF0000839D5686810F00C0F07D05D
:102260006868C0F38100022809D16868C00306D4F9
:102270002868800714D52069012808D110E020695A
:10228000B0B1C6F80090FFF77DF9074605E00AE116
:10229000FFF778F9C01B0228C4D828688007F7D553
:1022A0002868616920F0F80040EAC10028600DE06C
:1022B000C6F80080FFF766F9074604E0FFF762F909
:1022C000C01B022823D828688007F7D4207800078D
:1022D0002CD57948A169D9B1C0F80090FFF752F91F
:1022E000074604E0FFF74EF9C01B02280FD8686AC2
:1022F0008007F7D571484FF4FA510068B0FBF1F050
:10230000009000BF0098411E0091FAD20EE080E0DC
:10231000C0F80080FFF736F9074604E0FFF732F90E
:10232000C01B022875D8686A8007F7D42078400758
:1023300060D5E8690027C00008D4E86940F0805003
:10234000E861E869012700F0805000905C4801686E
:10235000C90513D40168834641F480710160FFF719
:1023600011F9824606E000BFFFF70CF9A0EB0A0066
:1023700064284ED8DBF80000C005F5D5E0680128D8
:102380000AD008B1052813D0286A20F0010028627D
:10239000286A20F0040002E0286A40F00100286268
:1023A000E06841F2883B98B1FFF7ECF882460BE019
:1023B000286A40F004002862EEE700BFFFF7E2F869
:1023C000A0EB0A0159455AD8286A8007F6D50CE0D7
:1023D000FFF7D8F8824605E0FFF7D4F8A0EB0A0132
:1023E00059454CD8286A8007F6D41FB1E86920F017
:1023F0008050E861E06988B36968C1F3810102290E
:1024000044D00228C6F8608004D0FFF7BBF8044629
:1024100038E034E0FFF7B6F8074604E0FFF7B2F81B
:10242000C01B02282BD828688001F7D4206AB0F599
:10243000803F05D16868A16820F4003008436860D7
:10244000D4E908010843696821F4741108436860FD
:10245000C6F86090FFF796F8044606E025E000BF56
:10246000FFF790F8001B022809D828688001F7D5EB
:102470001BE000BFFFF786F8001B022802D90320EB
:10248000BDE8F88F28688001F4D40EE00128F7D069
:102490006868226A00F48031914204D1616A00F4D4
:1024A0007010884201D00120EAE70020E8E7000030
:1024B0000010024000004242800442420C00002012
:1024C0000070004070B5040009D0606A002540B17A
:1024D00025616561A56294F8510040B10CE00120CE
:1024E00070BD6068B0F5827FF4D0E561F2E784F8F2
:1024F0005050204600F040F8022084F85100206837
:10250000016821F040010160A088218900F48270F7
:1025100001F404410843A18901F400610843217CCE
:1025200001F002010843217D01F001010843218BE4
:1025300001F400710843217F01F03801084394F849
:10254000201001F080010843218D01F4005108435F
:1025500021680860A069042101EA104021684860F0
:102560002068C16921F40061C1616565012084F8BA
:102570005100002070BD000000B585B00021009121
:1025800001910291039100680F4988421AD10F48C6
:10259000816941F480518161816901F48051049124
:1025A000816941F0040181618069694600F004009D
:1025B0000490A02000900220019003200390044882
:1025C000FEF7E6FE05B000BD0030014000100240FD
:1025D000000801402DE9F84F984616468A46044601
:1025E000FEF7D0FF814694F8510001281ED1BAF1C0
:1025F000000F73D0002E71D094F85000012815D030
:10260000012784F85070032084F851000025656587
:10261000C4F830A0A686E686A563A587E58765642D
:102620002564A068B0F5004F03D00CE00220BDE89F
:10263000F88F2068016821F040010160206801687E
:1026400041F48041016020680168490603D40168B3
:1026500041F040010160E068B0F5006F606803D0B0
:1026600048B3012E27D047E008B1012E1FD1206BBF
:1026700021680088C86006E020688168890709D55C
:10268000216B0988C160206B801C2063E08E401E96
:10269000E0860CE0FEF776FFA0EB0901414503D38D
:1026A000B8F1FF3F03D035E0B8F1000F32D0E08E33
:1026B0000028E1D123E0206B21680078087306E050
:1026C0002068816889070AD5216B09780173206B1E
:1026D000401C2063E08E401EE0860DE02BE0FEF7FC
:1026E00051FFA0EB0901414503D3B8F1FF3F03D0EF
:1026F00010E0B8F1000F0DD0E08E0028E0D14A467E
:102700004146204601F0B8FE08B120206065A0686F
:1027100030B109E084F8517084F85050032086E706
:102720002068C1688068009084F8517004F8505F98
:1027300060680028F3D0012079E710B5401EB0F1A1
:10274000807F01D3012010BD4FF0E02460610F2194
:10275000601702F0CDFC0020A0610720206100205E
:1027600010BD70477047000070B590F83C20012AFA
:1027700026D0012480F83C40022280F83D200368E6
:102780005A689D6822F070060A6832435A600D4B01
:1027900002689A4208D0B2F1804F05D00A4B9A42A3
:1027A00002D00A4B9A4204D1496825F080031943AC
:1027B000916080F83D40002180F83C10084670BDD3
:1027C000022070BD002C01400004004000080040C1
:1027D00010B5040003D094F83D0010B107E00120CB
:1027E00010BD002084F83C00204600F01FF80220B5
:1027F00084F83D00211D206802F070F8012084F863
:10280000460084F83E0084F83F0084F8400084F8D5
:10281000410084F8420084F8430084F8440084F8BE
:10282000450084F83D00002010BD000008B5006898
:102830000B49884212D10B48816941F400618161E2
:102840008069002200F40060009011461920FFF713
:10285000ABFBBDE808401920FFF799BB08BD00009D
:10286000002C01400010024090F83D10012901D0D9
:1028700001207047022180F83D100168CA6842F0CB
:102880000102CA6000680B49884208D0B0F1804F4D
:1028900005D00949884202D00849884204D181689C
:1028A00001F00701062903D0016841F00101016030
:1028B00000207047002C0140000400400008004048
:1028C00070B5044690F83C000025012817D0012679
:1028D00084F83C60022084F83D002068826822F081
:1028E000770222F47F4282600868502838D00DDCDD
:1028F00020284FD005DC90B3102811D14AE00220E7
:1029000070BD302846D040280AD13BE060282FD047
:1029100070280DD0B0F5805F03D0B0F5005F12D005
:10292000012584F83D60002084F83C00284670BDF5
:10293000CB68D1E90121206802F019F8206881688C
:1029400041F0770109E0CB68D1E90121206802F06C
:102950000EF82068816841F480418160E1E719E068
:10296000CA684968206802F0B7F85021206806E07C
:10297000CA684968206802F0C0F86021206802F047
:1029800000F8CEE7CA684968206802F0A5F840213F
:102990002068F4E7226801461046F0E770472DE909
:1029A000F04104460068C66805694FF00007A907B2
:1029B00013D5B10711D5F91E0161012020772068D8
:1029C00080698007204602D0FFF7E8FF04E000F0AE
:1029D000A3F8204600F046F92777680716D5700758
:1029E00014D521686FF00400086102202077206868
:1029F000806910F4407F204602D0FFF7CFFF04E04B
:102A000000F08AF8204600F02DF92777280715D521
:102A1000300713D521686FF0080008610420207783
:102A20002068C0698007204602D0FFF7B7FF04E0A6
:102A300000F072F8204600F015F92777E80616D561
:102A4000F00614D521686FF0100008610820207787
:102A50002068C06910F4407F204602D0FFF79EFF37
:102A600004E000F059F8204600F0FCF82777E8076A
:102A700008D0F00706D021686FF0010008612046F9
:102A800000F040F9280608D5300606D521686FF019
:102A9000800008612046FFF764FE680608D57006CE
:102AA00006D521686FF040000861204600F02DF93E
:102AB000A8060AD5B00608D521686FF02000086185
:102AC0002046BDE8F041FFF74DBEBDE8F0810000B3
:102AD00000B585B000210091019102910391006839
:102AE000B0F1804F11D10A48816941F00401816140
:102AF0008069694600F004000490032000900220E1
:102B0000019003900348FEF743FC05B000BD0000B0
:102B10000010024000080140704770B5044690F86C
:102B20003C0000260D4601280FD0012084F83C000F
:102B30006AB1042A1DD0082A2FD00C2A3FD00126C2
:102B4000002084F83C00304670BD022070BD206833
:102B500001F020FF2068816941F00801816120684F
:102B6000816921F004018161206881692A6911432A
:102B700011E0206801F036FF2068816941F40061AE
:102B800081612068816921F48061816120688169A7
:102B90002A6941EA02218161D2E7206801F04EFFF3
:102BA0002068C16941F00801C1612068C16921F054
:102BB0000401C1612068C1692A69114311E02068DC
:102BC00001F068FF2068C16941F40061C1612068BB
:102BD000C16921F48061C1612068C1692A6941EA43
:102BE0000221C161ACE710B5040003D094F83D00A8
:102BF00010B107E0012010BD002084F83C00204601
:102C000000F01EF8022084F83D00211D206801F02C
:102C100065FE012084F8460084F83E0084F83F00F9
:102C200084F8400084F8410084F8420084F84300AE
:102C300084F8440084F8450084F83D00002010BD6D
:102C400008B50068B0F1804F08D10548C16941F06E
:102C50000101C161C06900F00100009008BD0000E1
:102C6000001002407047000010B50446022249B12E
:102C700004290ED0082913D094F84100012816D059
:102C8000012010BD94F83E000128F9D184F83E20BF
:102C90000FE094F83F000128F2D184F83F2008E0CB
:102CA00094F840000128EBD184F8402001E084F83A
:102CB00041200122206801F04DFE0F492068884222
:102CC00003D1426C42F4004242642068884208D03A
:102CD000B0F1804F05D00949884202D008498842A6
:102CE00004D1816801F00701062903D0016841F091
:102CF00001010160002010BD002C014000040040D3
:102D000000080040012001F02BBA7047FEE70000E8
:102D10000148FEF757BC00005001002038B5406A5A
:102D2000002190F83D202B4B46F2A8141B68B3FB02
:102D3000F4F3C3EBC30303EB830300933BB15B1ECC
:102D4000009303681B689B0505D5009BF6E7036CA1
:102D500043F020030364436B03B19962836B03B1B7
:102D6000996203681C6824F480641C604185436B8D
:102D700003B15963836B03B1596303681C6824F082
:102D800001041C6090F83D402023602C0BD02824C7
:102D900034EA02020FD080F83D3080F83E1000BFC8
:102DA000FEF772FC38BD80F83D3080F83E100164BB
:102DB000FEF7EEFB38BD0268136843F001031360B1
:102DC0000268136843F480631360016380F83D4038
:102DD000E6E700000C00002000684169C9430906CD
:102DE00001D400210161704770B5044690F83D00A0
:102DF00094F83E10102901D0402906D1222804D190
:102E000021680A6822F400620A60282131EA00027F
:102E10004FF000054FF0200626D0216849680905CB
:102E200005D4602803D084F83D6084F83E502563C3
:102E300020684168090537D5416821F40061416087
:102E4000606B90F821203C49012A11D04163606BEE
:102E5000FEF7B4F938B32068016821F00101016080
:102E600084F83D60606B1CE0256384F83D10DFE76B
:102E7000A06B4163A06BFEF7A1F9A0B12068416986
:102E8000C943490605D40069616A0870606A401C3C
:102E900060622068016821F00101016084F83D60F2
:102EA000A06B416B884710E094F83D10602910D06A
:102EB0004169C943490605D40069616A0870606ABE
:102EC000401C60622046FEF7DFFB206CC1071CD16E
:102ED00015E084F83D6025644169C943490605D47D
:102EE0000069616A0870606A401C6062206801685D
:102EF00021F0010101602046FEF74AFBE5E781076A
:102F000003D4410701D4000704D52068416821F4A7
:102F1000E061416094F83D00216C49070BD52828F9
:102F200009D10648E062256384F83D6084F83E508C
:102F30002046FEF77BFC70BD1D2D00080000FFFF42
:102F400001684A69D24352050FD46FF480624A6126
:102F5000002140F8301F202242738173026942F041
:102F600004020261017301207047002070470000D5
:102F70002DE9F84F0446C06A1E4693460D46216867
:102F80000A6842F480620A60082807D0012805D048
:102F900010F5803F02D0206B112804D12068016811
:102FA00041F4807101604FF001195B4600224946EF
:102FB0002046009600F098F94FF4007840B1206860
:102FC0000068C00501D5C4F840800320BDE8F88F33
:102FD0002069DFF884A0B0F5804F0FD0062021686B
:102FE00000EAD51747F0F000086133465A460AF167
:102FF0000601204600F0C0F958BB03E0E8B240F0FB
:1030000001001CE02168E8B2086133465A46514687
:10301000204600F0B1F9E0B920684169816900916A
:10302000016841F4807101605B46002249462046F8
:10303000009600F059F90028C1D147F0F10021684D
:10304000086133465A465146204600F095F900285B
:10305000BCD00120BAE70000020001002DE9F84FC2
:103060000446006889460B9D01689846174641F45E
:10307000806101602068016841F480710160009501
:103080004FF0011B0022594620460A9B00F02CF904
:103090004FF4007A40B120680068C00501D5C4F83B
:1030A00040A00320BDE8F88F216809F0FE00086108
:1030B0002B46284920460A9A00F05EF9F0BB2068AA
:1030C0004169806900902A4620460A9900F0EAF991
:1030D00040B1206C04283AD12068016841F40071A5
:1030E000016034E0FEB2B8F1010F09D02168380A5E
:1030F00008612A4620460A9900F0D4F90028E8D150
:10310000206806612A4620460A9900F0CBF900287B
:10311000DFD12068016841F48071016000950022D0
:10312000594620460A9B00F0DFF80028B3D12168F9
:1031300009F0FF0040F00100086100E007E02B46C5
:10314000044920460A9A00F017F90028AAD0012065
:10315000A8E70000020001002DE9F84304460068DA
:103160000D46DDE9089701689846164641F48071DE
:1031700001604B4600224FF001112046009700F0FD
:10318000B3F848B120680068C00502D54FF400705C
:1031900020640320BDE8F883216805F0FE00086183
:1031A0003B464A461549204600F0E6F888B92068B3
:1031B0004169806900903A464946204600F072F91C
:1031C00048B1206C042804D12068016841F40071E2
:1031D00001600120DEE7F5B2B8F1010F09D02168E6
:1031E000300A08613A464946204600F05BF900285B
:1031F000E7D1206805610020CCE700000200010053
:103200002DE9F04190F83D300446C26A00212026A5
:103210001E4F00686FF48065082A01D0202A01D172
:10322000282B04D0212B17D04561BDE8F081E7623F
:10323000426822F4E06242602068456120680268CA
:1032400022F480620260216384F83D6084F83E10BD
:103250002046FEF7EBFAE8E7E7622122226384F8D2
:103260003D6084F83E10416821F4E06141602068CF
:1032700045612068016821F4806101602046FFF704
:10328000ABFD2046FEF718FECFE700000000FFFF71
:1032900070B516460D4604461EE02046FFF750FE68
:1032A00008B1012070BD681C16D0FEF76BF9801BB9
:1032B000A84200D885B920684069C04340070BD5B3
:1032C000002044F8300F20216173A073216941F080
:1032D000200121612073E4E720684069C043400772
:1032E000DBD4002070BD00002DE9F047984617465A
:1032F0000D460446C1F30746DDF820902AE000BFE2
:10330000B8F1FF3F26D0FEF73DF9A0EB090141459A
:1033100002D8B8F1000F1DD12068012E16D08069A7
:1033200025EA00000004000C12D00020B84211D1A0
:10333000002044F8300F20216173A073216941F00F
:103340002001216120730120BDE8F0874069E7E793
:103350000120EBE72068012E0AD0806925EA0000F1
:103360000004000C06D00020B842C9D00020EBE7D2
:103370004069F3E70120F7E72DE9F0479846164644
:103380000D4604464FF000094FF0200AC1F30747ED
:1033900023E020684069C043400515D420680168D7
:1033A00041F40071016021686FF480604861C4F8E5
:1033B000309084F83DA084F83E90216C41F00401E7
:1033C000216484F83C9021E0701C06D0FEF7DAF806
:1033D000A0EB0800B04203D816B1012F1FD021E0A6
:1033E0002068012F15D0806925EA00000004000C38
:1033F00018D000BF44F8309F84F80DA084F80E90D8
:10340000216941F02001216184F80C900120BDE880
:10341000F087406925EA00000004000CEAD120682A
:10342000406901E02068806925EA00000004000C82
:10343000AFD1ECE72DE9F041002590460E46044659
:10344000202728E04069C043C0060CD454F8301B44
:103450006FF01000486144F810596777A577206A2B
:103460002062257714E0FEF78DF8A0EB0800B0424B
:1034700000D886B920684069C04340060BD544F89F
:10348000305F6773A573206940F0200020612573C9
:103490000120BDE8F08120684169C9434906D1D4C3
:1034A0000020F6E770B516460D4604461EE020469D
:1034B000FFF746FD08B1012070BD681C16D0FEF76D
:1034C00061F8801BA84200D885B920684069C043D4
:1034D00000060BD5002044F8300F20216173A07343
:1034E000216941F0200121612073E4E720684069EF
:1034F000C0430006DBD4002070BD007F02F0B8BAE4
:1035000070B544680546B4B1216A204688472878DA
:10351000012101EB4000C1B2626B20469047216B54
:10352000204688470546A26B012120469047616AE4
:10353000204688470DB1002070BD012070BD0000FD
:1035400070B50C46016800293AD041684C6144606E
:103550006568BDB1296809B12846884719482862BD
:10356000194868621948E8621948A862194828632E
:10357000194868631948A8631948E863194828641A
:1035800019486864A06800B180471848E06218488C
:103590002063184860631848A0631848E06318481F
:1035A00020641848A0621848E06118482062184852
:1035B00060621848A061184860640020606170BDB6
:1035C0000460C4E7DB4D0008134E0008F94C000806
:1035D000C14C0008434E0008874D0008314D0008DB
:1035E000C94F0008C14F0008D34F0008D74F00084B
:1035F000954E000845500008114F00083150000852
:10360000FD4E000801350008A5600008CF610008E4
:1036100077610008C54F00089D4C00082DE9F84F60
:103620001B4DDFF87080DFF87090DFF870A0DFF8D6
:1036300070B005F198000024CDF8000004EBC40040
:1036400005EBC0001749C0F81CA0C0F80880C0E90D
:10365000051B1549C0E9039104EB440101EB04117A
:1036600080F8224005EB8106001D706506F15000D0
:10367000074601460098FFF763FFD6F894103846D6
:103680008847641C14F0FF04D8D0BDE8F88F000010
:103690001C080020C9360008CB360008CD360008CB
:1036A000E1360008AD360008FB340008807F054A8B
:1036B00002EB001009B1012200E0002281880068BD
:1036C000FDF75BBFBC68000870477047807F034907
:1036D00001EB001081898068FDF74ABFBC680008D3
:1036E000807F064A02EB0010083009B1012200E099
:1036F000002281880068FDF740BF0000BC68000818
:103700000D4BDA6812B9D86004E01A46D368002B72
:10371000FBD1D060017061B1002141704FF496710E
:1037200041800021017141718171C1710172C160DB
:1037300070470121F1E70000B400002070B5204976
:1037400000224FF49675C968012336E00C7A012CEB
:1037500032D04C780E78B44220D14C88844207D9BC
:10376000241A2404240C4C800DD00C7914B107E0E9
:103770004A8008E0C8244C804C79641C4C710B7161
:10378000CB714C88C4B98C790444E4B28C71C82CD8
:1037900001D98A710B720224CC710DE00A718A7111
:1037A0004C88AC4201D204444C80CC79012C03D12A
:1037B0004C88AC4200D30B72C9680029C6D170BDD9
:1037C000B40000207CB50025164C8DF800508DF813
:1037D00004500646E07AA17A88420AD00120FDF71B
:1037E00039FDE07AA17A884203D03070E172A1708D
:1037F00015E0A1780C48491E032902D80121417027
:1038000000E0457001AA69460748FDF7C9FC002899
:1038100006D09DF80000022801D1A0783070012068
:103820007CBD0000100000208C0600202DE9F04334
:1038300085B000252B480095019502950395816977
:1038400041F020018161816901F0200104918169C9
:1038500041F004018161816901F0040104918169F1
:1038600041F0080181618069DFF87C8000F0080088
:103870000490002250214046FDF77FFEDFF86C9057
:10388000002201214846FDF778FE4FF440570122FF
:1038900039464846FDF771FE5020012402268DE886
:1038A000710069464046FDF773FD01AA009482E865
:1038B000700069464846FDF76BFD11200097CDE981
:1038C00001040320039069464846FDF761FDB800F6
:1038D000CDE90005694602944846FDF759FD05B05B
:1038E000BDE8F0830010024000080140000C0140D8
:1038F0000D4810B50B4901600C49416000214FF49F
:1039000080428160C0E9031241618161C16101624D
:10391000FDF7C8FE002803D0BDE81040FDF7D3BA7C
:1039200010BD00000054004050010020A08601009E
:10393000104810B50E4901604FF4827141600021BA
:103940008160C1604FF400720161C0E90512082274
:10395000C0E90721416281620A21C162FEF7B2FD1E
:10396000002803D0BDE81040FDF7ADBA10BD00003F
:1039700000300140A401002010B586B00024174893
:1039800000940194029403940494134905940160F3
:103990004721C0E9011440F2E731C0E90314446152
:1039A0008461FEF715FF08B1FDF78DFA4FF48050E2
:1039B000009069460948FEF783FF08B1FDF783FAD6
:1039C000049404A905480594FEF7CEFE002801D012
:1039D000FDF779FA06B010BD002C0140FC01002073
:1039E00010B58AB0002407941C2168460894FCF79F
:1039F000B0FB19484FF0804101604721C0E9011434
:103A00006321C0E903148461FFF7EDF808B1FDF705
:103A10005AFA079407A910480894FEF7A5FE08B1C2
:103A2000FDF751FA6020CDE90004029400226946B6
:103A300009480494FFF771F808B1FDF744FA04222D
:103A400069460548FFF769F808B1FDF73CFA0248F6
:103A5000FFF73EF80AB010BD440200203EB5002337
:103A6000174A19463220FCF736FF16480125164939
:103A7000457400240160CDE90045234622462146D5
:103A80001148029400F08CFD1049C1610E48FCF70A
:103A900049FF322201210C48FCF74CFF00230A4861
:103AA000CDE900451A4619463430029400F078FDFD
:103AB0000749C161BDE83E4003483430FCF732BFDE
:103AC000D93D00083C0000209C060020C15F000892
:103AD0001D5D0008FEE77047704770472DE9FC5FE9
:103AE000804657A014460068019056480D4682460D
:103AF0009B4602F0A1FA00260746B146022845D3AC
:103B0000584602F099FA022840D19BF800107F290C
:103B10003CD97F1E3DE000BF1AF806007F2837D948
:103B2000761C9BF801001AF8062009F1010982426F
:103B30002ED10AEB060010F8010C884228D1B9F109
:103B4000000F23D0B8F1000F26D005F10F0104F1CA
:103B50000F00002D26DB002C24DBB8F804208A425D
:103B600020DDB8F8062082421CDDB8F802002044AF
:103B700000B20090B8F80000284403B2324800EBCD
:103B8000491201A90020203AFDF756F9BDE8FC9F33
:103B9000761CBE42C0D3F9E72B482B4600EB4912F6
:103BA0000094EEE7002D01DA6A4200E0002212B232
:103BB0000092002C01DA624200E00022B8F80430E2
:103BC00012B28B4201DD102100E0591B0FFA81FA7D
:103BD000B8F80610814201DD102000E0081B0FFA42
:103BE00080FBD6B229E00098C7B222E04FEA490034
:103BF000801E00EBD601144806F0070200EB01100E
:103C00000121C05D9140084205D0A01902B2E81917
:103C100001B2012308E00D480078022807D1A0195D
:103C200002B2E81901B20023404600F071F97F1C8E
:103C3000FFB25745DADB761CF6B25E45D3DBA5E76B
:103C40001010000074680008796800081500002052
:103C50002DE9F14F3C4800250468002C71D0204626
:103C6000016939B10289012A04D0CA7A012A01D036
:103C70000846F5E7814620004FF0000601D13046A6
:103C800009E0C16839B10A89012A04D0C27A012A3F
:103C900001D00846F5E780460CB9344604E0208997
:103CA000012801D02469FAE7200001D1304606E05E
:103CB000C16821B10A89012A01D00846F8E7DFF876
:103CC00088B007464FF0010AABF12C0B206A28B3ED
:103CD0004C4501D1012500E025B394F82410490694
:103CE00024D402880099114489B20180206A428854
:103CF000914210D30680E08C40F00100E08408E09F
:103D00000680E08C40F00100E084E16909B12046C2
:103D100088478BF809A0444500D10025BC4210D04B
:103D2000E468D3E794F824104906F4D50288009992
:103D3000114489B20180206A42889142E0D2EAE7C8
:103D4000FFE7BDE8F88F00003C00002010B500F050
:103D5000F5F9FFF783FE02F095F90249012008709A
:103D600010BD000018000020002809D0002305E045
:103D700039B10069002803D05B1C9BB29342F7D392
:103D80007047C068F6E7002808D00189012905D0EE
:103D90000169CA7A012A01D00846F6E7704700286F
:103DA0000AD0C168002907D00A89012A04D0C27A42
:103DB000012A01D00846F4E77047000010B5044618
:103DC00001F076FF002803D00249CA682244CA6085
:103DD00010BD00001000002004490A7908B1104409
:103DE00002E0002A01D10120087170473400002050
:103DF0002DE9F041444CE07800B3601CFFF7E2FC91
:103E0000FDF788F9607A002618B166720020FFF786
:103E1000E3FFDFF8F48008F1240898F80400002894
:103E20006DD008F108052868002868D000F096FCDD
:103E3000FCF7B6FEE079012805D00DE03248C01C41
:103E400000F0C0FCDCE7206928602661A07901F061
:103E5000F5FDA6710220E071D5E90001814202D092
:103E6000207801F0EBFDFFF736FE2848006801F0EE
:103E7000EFFD286800F0C4FBFFF72FFE2868A26959
:103E800072B1FDF734F990F82410090608D501E065
:103E900092682AB111688142FAD1506800B1804716
:103EA0002B681846FFF76FFF05461846FFF777FFA8
:103EB0000746284601F08EFE18B995F824008006C2
:103EC00003D5E96909B12846884700F0C7FABD4221
:103ED00001D0ED68EDE70C482C30817C012904D13C
:103EE00003216171FCF732FF6671FFF7F5FD01F008
:103EF000D9FD667098F80410491E88F80410BDE8D2
:103F0000F041FCF72BBD000010000020B0000020A5
:103F1000F0B4002815D00488458886880C441544E0
:103F200024B22DB28E420CDDC088904209DD0029FA
:103F300007DB002A05DB29462046F0BC1A4602F0C2
:103F40006FB9F0BC704700002DE9FE4F8246634810
:103F50000E4615464769A3F120025F2A39787C781E
:103F6000894600D32023203B03F0FF0BBAF1000F5A
:103F700039D0721E8B1834D4691E14EB010C30D466
:103F8000BAF80410B1422CDDBAF80600A84228DDC8
:103F9000002E3EDB002D3CDB504A8B4239DA844553
:103FA00037DA04EB8400C0F39C010A20B1FBF0F384
:103FB00000FB131000284FEAD40000D0401C126907
:103FC0000BFB09F101FB0022BAF80200284400B201
:103FD0000090BAF80000304403B239460020FCF7E4
:103FE0002BFFBDE8FE8F04EB8401C1F39C020A2184
:103FF000B2FBF1F301FB132100294FEAD40100D0F9
:10400000491C00690BFB09F202FB010233460095D3
:10401000E3E7002E01DA724200E0002212B20292BF
:10402000002D01DA6A4200E0002206EB09035B1E64
:1040300012B28B4201DA494600E0891B09B20191B4
:104040002919491E814201DA204600E0401B00B2D6
:104050000090D0B23DE00298C7B234E004EB840097
:10406000C0F39C010A20B1FBF0F200FB1210002803
:104070004FEAD40000D0401C0BFB09F148434FEA43
:10408000D80209FB0201154800693844085C08F0B1
:104090000701C84010F0010F06D008EB050002B27E
:1040A000B81901B2012309E00D480078022808D1AF
:1040B00008EB050002B2B81901B200235046FFF721
:1040C00027FF7F1CFFB201988742C7DB08F1010080
:1040D000C0B2009980468842BDDB82E72001002003
:1040E000150000202DE9F0470F4681461D469046F9
:1040F0000C211048FCF760FD0E4C0F4E0CE04246C0
:1041000039464846FFF720FF70690078384407B207
:104110002088401C20806D1C2B78002BEFD170690B
:104120000178A1714078E07120884843A08001485F
:10413000BDE8F0877A07002020010020064810B56E
:10414000002141740121817400F04AF8BDE810405B
:1041500001210248FFF7D4BA3C0000208C06002061
:1041600010B504460748007A00280AD02046FFF719
:104170006FFD2046FCF7E6FF2046BDE81040FFF744
:10418000DDBA10BD10000020002808D00279D30746
:1041900003D142F00102016002718068F4E77047C8
:1041A000FEE7F0B50446002901DA4A4200E00A467B
:1041B00096B200280AD00025CF0F0DE00122394623
:1041C000FFF7D2FD08B1A04201D12046F0BD817AAF
:1041D000012901D16D1CADB2B542EFD3F0BD000095
:1041E00070B5594C002210212046FDF7C6F9012276
:1041F00040212046FDF7C1F96420FDF72BF800228D
:1042000040212046FDF7B9F96420FDF723F801228B
:1042100040212046FDF7B1F90021AE2000F0ACF8B6
:104220000021084600F0A8F80021102000F0A4F8B2
:104230000021402000F0A0F80021812000F09CF82F
:104240000021CF2000F098F80021A12000F094F880
:104250000021C82000F090F80021A62000F08CF882
:104260000021A82000F088F800213F2000F084F809
:104270000021D32000F080F80021084600F07CF8EF
:104280000021D52000F078F80021802000F074F89B
:104290000021D92000F070F80021F12000F06CF826
:1042A0000021DA2000F068F80021122000F064F804
:1042B0000021DB2000F060F80021402000F05CF8D5
:1042C0000021202000F058F80021084600F054F8A2
:1042D00000218D2000F050F80021142000F04CF84F
:1042E0000021A42000F048F80021A62000F044F8A6
:1042F0000021AF2000F040F80021AF2000F03CF892
:104300005FF0000404F1B000C0B2002100F034F806
:104310000021084600F030F80021102000F02CF8B1
:1043200000250121002000F027F86D1CEDB2802D42
:10433000F7D3641CE4B2082CE4D3BDE8704000213C
:10434000084600F003B800000008014010B504461C
:10435000B031C8B2002100F00FF8102040EA14106C
:10436000002100F009F804F00F00BDE8104040F013
:1043700001000021AFF3008013B50B4C09B10122FD
:1043800000E0002201212046FDF7F7F84FF0FF334F
:10439000012269460548FEF71DF901221146204613
:1043A000FDF7EBF81CBD0000000C0140A40100204B
:1043B000704700002DE9F05F9946DDF828A0164609
:1043C000834621B10F7891F80180002438E03778D6
:1043D00096F80180961CF8E700252DE0E008784368
:1043E0007119405C04F00701C84010F0010F10D0B3
:1043F000BBF1000F04EB0A0005D002B205EB090087
:1044000001B2012313E001B205EB090000B2012261
:104410001FE01148007802280CD1BBF1000F04EB1B
:104420000A0011D002B205EB090001B20023584680
:10443000FFF76EFD6D1CEDB2BD42CFD3641CE4B23C
:104440004445C9D3BDE8F09F01B205EB090000B2B5
:10445000002201F0E5FEEDE7150000200448017898
:10446000002903D003490161891E416170470000A2
:104470002001002084620008F8B515460E460B4660
:10448000009204460122022100F010F840B93346A0
:10449000002280212046009500F008F8002804D072
:1044A000606D40F0200060650320F8BD2DE9F84301
:1044B0001E46914688460446089DFDF763F8401B5A
:1044C000351AFDF75FF8074625480068C0F3CB3082
:1044D000684338E0701C37D0FDF754F8C01BA84281
:1044E00003D215B1009860B32CE02068416821F038
:1044F000E00141606068B0F5827F0BD1A068B0F543
:10450000004F02D0B0F5806F04D12068016821F01F
:1045100040010160A06AB0F5005F09D12068016820
:1045200021F4005101602068016841F400510160EC
:10453000012084F85100002084F850000320BDE8D9
:10454000F8830025401E00902068816838EA010049
:1045500004D000214945BDD10020F0E70121F9E751
:104560000C0000207047000070B50028049E14D095
:104570000A4DAC6814B9A86004E02C46A568002D6B
:10458000FBD1A060002401258460C5758475C0E955
:10459000004102754475C0E9033670BDB4000020C7
:1045A0002DE9F0471E46DDE909A5DDF82090174604
:1045B0008846040021D03421FCF7FEFA002345B1DF
:1045C0002846FCF79CFDC46020610089401C2081C6
:1045D00002E0012020812361A4F800806780A6808A
:1045E000A4F8069084F80AA0E372E3606361A36113
:1045F000E361A384E38420462362BDE8F0870000E2
:104600002DE9F84FDFF850810346D8F81C00FCF77D
:1046100076FD8346D8F82000FFF7C1FB8246184696
:10462000FCF765FD81461846FCF769FD00901846C9
:10463000FFF7A9FB05461846FFF7B1FB0746D8F878
:104640001C00002658B94846C8F81C90FCF757FDD6
:1046500083462846C8F82050FFF7A1FB8246D8F8C9
:104660001C404C454CD000BF94F82400400706D5B0
:10467000E08C40F00400E084E16920468847D8F8E7
:104680002000844201D1012600E056B194F82400B4
:10469000C00606D5E08C40F01000E084E1692046B9
:1046A0008847544500D100265C4501D0E468DBE72B
:1046B0004FEA090494F82400800706D5E08C40F006
:1046C0000200E084E16920468847AC4201D101261E
:1046D00000E056B194F82400000706D5E08C40F0C5
:1046E0000800E084E16920468847BC4200D10026EA
:1046F0000098844201D0E468DCE7C8F81C9022E00E
:10470000D8F82040AC4224D094F82400C00606D546
:10471000E08C40F01000E084E16920468847544571
:1047200001D0E468F0E72C4694F82400000706D591
:10473000E08C40F00800E084E16920468847BC42F4
:1047400001D0E468F0E7C8F82050BDE8F84FFCF766
:1047500027BABDE8F88F00001000002010B5184CF3
:104760000023A4F12C02D4E90001814200D0D371CE
:104770006060117999B151781170012915D0022921
:1047800016D0032919D0042916D1FCF7B0FC806992
:10479000002811D0817A01290ED153700BE008480E
:1047A000BDE81040283800F00DB84FF0FF3100E0B0
:1047B0000121FFF7F6FC206010BD4069E8E700002A
:1047C0003C000020044A0021D31C1170984201D102
:1047D0009170517070470000100000202DE9F041E9
:1047E00005460746002634460C211E48FCF7E4F92E
:1047F00001E0761CB6B217F8010B0028F9D11A496E
:104800004A69184914E02B5C7F2B07D94B88401C60
:104810005B1C103480B24B80A4B207E00A2B17D087
:10482000137823449CB20B885B1C0B80401C80B225
:10483000B042E8D3107888715078C871102008729F
:1048400048728888A04200D28C800648BDE8F0817A
:104850008B7A5B1C8B728B88A34200D28C800024E5
:10486000E1E70000AA07002020010020FDF726BB99
:1048700030B58FB028216846FBF76BFC14210AA8DD
:10488000FBF767FC01210804CDE900100024029425
:1048900002250491CDE907504FF4E01009906846D5
:1048A000FDF780FC08B172B6FEE70F20CDE90A05DE
:1048B0004FF48060CDE90C4002210AA80E94FDF768
:1048C000A5FB002801D072B6FEE70FB030BD7047DF
:1048D0000148FEF764B80000FC010020F0B5026852
:1048E000194B1A4C1A4D4FF08047984205D0B842E8
:1048F00003D0A04201D0A84203D122F070064A683A
:104900003243984205D0B84203D0A04201D0A84219
:1049100003D122F44074CA6822434C6922F0800219
:10492000224302608A68C2620A688262984201D1A8
:1049300009690163012141610169C90703D0016966
:1049400021F001010161F0BD002C01400004004094
:104950000008004010B501F01F030121046A9940CE
:104960008C430462016A9A401143016210BD10B584
:10497000846842EA032224F47F440A43224382608B
:1049800010BD826822F070020A4342F00701816084
:104990007047000030B5036A026A22F00102026229
:1049A0004268846924F073050C682C4323F00205E7
:1049B0008B682B430A4DA8420BD123F00805CB6826
:1049C00022F440722B434D6923F0040315438A6996
:1049D0002A434260846149684163036230BD00003C
:1049E000002C014030B5026A036A23F01003036211
:1049F000436884690D6824F4E64444EA05248D681C
:104A000022F0200242EA05120B4DA8420ED1CD68D9
:104A100022F0800242EA05124D6923F4406343EA22
:104A200085038D6922F0400243EA85034360846177
:104A300049688163026230BD002C014030B5036AD1
:104A4000026A22F4807202624268C46923F400732D
:104A500024F073050C682C438D6843EA05230C4D44
:104A6000A8420ED1CD6823F4006343EA05234D69C3
:104A700022F4405242EA05128D6923F4806342EA2F
:104A800005124260C4614968C163036230BD000021
:104A9000002C014030B5046A026A22F4805202629E
:104AA0004268C3690D6823F4E64343EA05238D6831
:104AB00024F4005444EA0534064DA84204D14D695B
:104AC00022F4804242EA85124260C361496801646F
:104AD000046230BD002C014010B5036A046A24F062
:104AE00001040462846924F0F00444EA021423F00F
:104AF0000A020A438461026210BD10B5036A046AA7
:104B000024F010040462846923F0A00324F47044A8
:104B100044EA023243EA01118261016210BD2DE9CB
:104B2000F04190460A46044641461046FBF76EFBAC
:104B300005462168FBF770FB0646A089FBF72FFDB1
:104B40003146FBF74BFDA08902D2FBF728FD0CE0B4
:104B50004042FBF71BFD3146FBF74AFD04D2A0891A
:104B60004042FBF713FD00E03046064629466069E7
:104B7000FBF7FAFA07466061A089FBF710FD39469A
:104B8000FBF72CFDA08902D2FBF709FD0CE04042A7
:104B9000FBF7FCFC6169FBF72BFD04D2A0894042C6
:104BA000FBF7F4FC00E06069606128462169FBF7CF
:104BB0002DFB07462561A089FBF7F1FC3946FBF781
:104BC0000DFDA08902D2FBF7EAFC0CE04042FBF7A6
:104BD000DDFC3946FBF70CFD04D2A0894042FBF70F
:104BE000D5FC00E03846A168FBF716FB0546616876
:104BF0006069FBF711FB3146FBF7B6FA2946FBF774
:104C0000B3FA0546A089FBF7CAFC2946FBF7E6FC88
:104C1000A08902D2FBF7C3FC0CE04042FBF7B6FCD4
:104C20002946FBF7E5FC04D2A0894042FBF7AEFC25
:104C300000E0284601464046BDE8F041FBF794BA43
:104C400010B50022002806D0C38C0B4202D00122EE
:104C50008B43C384104610BDFEE7000010B57F28CB
:104C600018DA402916DA002814DB002912DBCB17EA
:104C700001EB5374E31024F0070400EBC3100C1B8A
:104C8000054B0121A140002A1A5C01D00A4300E033
:104C90008A431A5410BD00008C02002010B504464F
:104CA0004068C16B01B18847E16819B12046884767
:104CB0000020E0602046A269BDE81040FF211047B7
:104CC00010B50269044600219047A1682046884734
:104CD0006269002120469047E168204688472269A2
:104CE000012120469047E1682046884720462269F6
:104CF000BDE810400021104710B5026904460021AC
:104D00009047A16820468847626901212046904764
:104D1000E168204688472269012120469047E168E2
:104D20002046884720462269BDE8104000211047F0
:104D30002DE9F0410F4641680446002588470026CA
:104D40002269002120469047E16820468847226971
:104D50000121204690476806050EA1692046884734
:104D600008B16D1CEDB2E16820468847761CF6B2AA
:104D7000082EE5D32FB1E16A204688472846BDE8D2
:104D8000F081A16AF8E770B50E468168044688474D
:104D900000252269002120469047E1682046884787
:104DA0006269F109204690477006060EE1682046C8
:104DB00088472269012120469047E16820468847BC
:104DC0006D1CEDB2082DE4D32269002120469047E6
:104DD0002046E168BDE87040084710B58168044688
:104DE00088476269012120469047226901212046B7
:104DF0009047E16820468847626900212046904735
:104E0000E1682046884720462269BDE8104000211D
:104E1000104710B581680446884762690021204622
:104E200090472269012120469047E1682046884743
:104E300062690121204690472046E168BDE81040A4
:104E4000084770B54168044600258847626901211A
:104E500020469047E1682046884722690121204684
:104E60009047E16820468847A169204688470600A8
:104E700007D0E168204688476D1C607FEDB285420F
:104E8000F2D32269002120469047E16820468847F6
:104E9000304670BD2DE9F041446816460F46054680
:104EA0008CB1216A204688472878012101EB400017
:104EB000C1B2626B20469047216B2046884728B1DB
:104EC000616A204688470120BDE8F0810025012E57
:104ED0000AD9761EB54207DAA26B00212046904718
:104EE00078556D1CEDB2F5E7A26B01212046904785
:104EF0007855616A204688470020E5E71FB582B0F3
:104F000003A900931346846B0122A04706B010BD8D
:104F10002DE9F0474468089E994690468A46074620
:104F20007CB1216A204688473878626B4006010EC2
:104F300020469047216B2046884701283CD0002519
:104F40000EE00120BDE8F087626B1AF805102046DC
:104F50009047216B2046884701282DD06D1CEDB26B
:104F60004545F1D3216A204688473878012101EB75
:104F70004000C1B2626B20469047216B20468847B3
:104F8000012819D00025012E0BD9761EB54208DA6A
:104F9000A26B00212046904709F805006D1CEDB278
:104FA000F4E7A26B01212046904709F80500616AE9
:104FB000204688470020C5E7616A20468847C0E749
:104FC0000177704701707047052101770021417713
:104FD0007047417770472DE9F041446816460F4607
:104FE00005467CB1216A204688472878626B4006D6
:104FF000010E20469047216B2046884728B1616A00
:10500000204688470120BDE8F081002509E0626B59
:10501000795D20469047216B2046884718B96D1C62
:10502000EDB2B542F3D3616A204688470020EAE733
:105030001FB582B003A900931346446B0122A04719
:1050400006B010BD2DE9F0474468089E9946174602
:10505000884605467CB1216A204688472878626BDD
:105060004006010E20469047216B204688470128C4
:1050700027D000250EE00120BDE8F087626B18F80C
:10508000051020469047216B20468847012818D0FC
:105090006D1CEDB2BD42F1D300250BE0626B19F837
:1050A000051020469047216B20468847012808D0EC
:1050B0006D1CEDB2B542F1D3616A204688470020ED
:1050C000DAE7616A20468847D5E700007CB5491ECB
:1050D0001C461546CDE90001044B6A462146284688
:1050E00000F0D8F8009A002111707CBDC359000867
:1050F0000907090E002804DB00F1E02080F8001405
:10510000704700F00F0000F1E02080F8141D704798
:1051100002E008C8121F08C1002AFAD17047704780
:10512000002001E001C1121F002AFBD170470000DE
:105130002DE9FF5FDDE90220010DDDF838B0024303
:1051400018D044F61050A1F2FF3141430D140F98CE
:10515000012820D0A5EB0B00401C5FEA000A4FF0AD
:105160000004474EDFF81C91A046504616D5CAF100
:10517000000728E00F98012443A2012808D000214D
:1051800000980F9BC0E90021C0E90243BDE8FF9FE2
:105190006FEA0B01F4E7CBF10000DEE7074612E00F
:1051A000F80707D02246334640464946FBF70DF93B
:1051B000804689462246334610461946FBF705F9D4
:1051C00004460E467F10002FEAD1DDE90201BAF154
:1051D000000F42464B4602DAFBF7F7F801E0FBF717
:1051E00066F904460E460022284BFBF71FFB03D846
:1051F0004FF0FF30014607E00022254B20463146A4
:10520000FBF73CF8FBF7FAFA102409E0002C0ADB64
:105210000A220023FBF70CFA019B30321A55641E58
:1052200050EA0102F2D1641C019AC4F11103144442
:105230000F9A012A03D0012208430DD10AE0084346
:1052400004D000204FF0110B0F9080E7A3EB0B056B
:105250006D1E0DE05B4504DD4FF0000205F1010518
:1052600004E003DA4FF00002A5F10105002AECD0BA
:1052700000980F99C0E90231C0E9004586E70000B7
:10528000000024400000F03F300000000000F04328
:105290000000E03F2DE9FF4F95B09B46894606464A
:1052A00000250FE2252877D100242746F84A01215E
:1052B000059400E0044316F8013F203B01FA03F097
:1052C0001042F7D130782A2811D06FF02F033078B0
:1052D000A0F13002092A16D8059A44F0020402EB24
:1052E000820203EB42021044761C0590EFE759F866
:1052F000042B0592002A03DA504244F4005405902E
:1053000044F00204761C30782E2816D116F8010FCE
:1053100044F004042A280DD06FF02F023078A0F159
:105320003003092B09D807EB870302EB4303C718A7
:10533000761CF3E759F8047B761C30786C280FD084
:1053400006DC4C2817D068280DD06A2814D104E058
:10535000742810D07A280FD10DE044F400140AE02C
:1053600044F4801401E044F440147278824202D183
:1053700004F58014761C761C307866280BD013DC7C
:10538000582877D009DC002875D04528F6D0462863
:10539000F4D047281AD19DE118E0632835D064285D
:1053A00079D0652812D195E1702873D008DC672880
:1053B000F1D069286FD06E280DD06F2806D1B5E0E6
:1053C00073282CD0752875D0782874D05A46179930
:1053D00090476D1C75E1C4F30250022809D00328E0
:1053E0000DD0D9F8001004280DD00D6009F1040982
:1053F00067E1D9F80010EA17C1E90052F6E7D9F8D9
:1054000000100D80F2E70D70F0E719F8041B8DF81D
:10541000001000208DF80100EA46012003E059F851
:1054200004AB4FF0FF3061074FF0000102D40DE0F4
:1054300008F101018846B9420FDA8045F8DB1AF815
:1054400008100029F4D108E008F1010188468142E2
:10545000FADB1AF808100029F6D105985B46A0EB94
:10546000080721463846179A00F094FA284400EBC2
:10547000080507E04DE029E10DE01AF8010B5A4656
:1054800017999047B8F10108F7D25B462146384694
:10549000179A13E142E00A220092C4F302524FF03D
:1054A000000A022A08D059F804CB032A4FEAEC710B
:1054B0000AD00DE029E02AE009F1070121F00702F6
:1054C000F2E802C1914609E00FFA8CFC4FEAEC7158
:1054D000042A03D14FFA8CFC4FEAEC71002907DA59
:1054E0000A460021DCF1000C61EB02012D2202E0F2
:1054F000220504D52B228DF80420012203E0E207C7
:1055000001D02022F7E7904659E00A2102E010225C
:105510000DE010214FF0000A00910BE010224FF037
:10552000000A44F004040827009203E008224FF028
:10553000000A0092C4F30252022A05D059F804CBA3
:105540000021032A08D009E009F1070121F0070230
:10555000F2E802C1914605E01FFA8CFC042A01D151
:105560000CF0FF0C4FF00008220728D5702806D059
:10557000009B83F0100353EA0A0305D00EE040229B
:105580008DF80420012208E05CEA010206D03022F6
:105590008DF804208DF8050002229046009B83F0D0
:1055A000080353EA0A030AD15CEA010201D1620747
:1055B00005D530228DF804204FF001087F1E5828B1
:1055C00004D034A003900EA802900DE036A0F9E7B5
:1055D00053466046009AFBF72BF884460398825C9A
:1055E0000298401E029002705CEA0100F0D102981D
:1055F00006A9081A00F1200A600702D524F48034B5
:1056000000E00127574502DDA7EB0A0000E000207B
:1056100000EB0A01009005984144401A0590E00310
:1056200006D45B462146179A059800F0B3F9054465
:10563000002706E001A85A46C05D179990476D1CE7
:105640007F1C4745F6DBE0030CD55B462146179AE5
:10565000059800F09FF9054404E030205A46179958
:1056600090476D1C0099481E00900029F5DC08E069
:10567000029802995A460078491C0291179990475E
:105680006D1CBAF10001AAF1010AF1DC65E100002C
:105690000928010030313233343536373839616208
:1056A00063646566000000003031323334353637CC
:1056B00038394142434445460000000000F058F9A3
:1056C0000544761C307800287FF4ECAD19B02846EC
:1056D000BDE8F08F620700D4062709F1070222F027
:1056E000070CFCE80223E14603F000485FEA080CDF
:1056F00002D00FF2702C0DE05FEA045C02D50FF2CD
:10570000682C07E05FEAC47C02D00FF2602C01E055
:10571000AFF2700C4FF0FF3823F00043CDF850C0CB
:1057200065280CD006DC452809D046281DD047281E
:105730003DD13DE0662818D067287ED138E00021B1
:10574000112F01DB112000E0781CCDE9000106A932
:105750000EA8FFF7EDFCDDE90F010E9A0391002181
:10576000009207F1010A04914DE04FF000400097CC
:10577000CDE9011006A90EA8FFF7DAFCDDE90F025A
:1057800003920E9B11990022DDF80CA00093049265
:1057900011B9791C00EB010AB7EB0A0004D4C0F17F
:1057A000FF3007F1010A0490AAEB0700019044E0E2
:1057B000012F00DA01270021112F01DD112000E067
:1057C0003846CDE9000106A90EA8FFF7B1FCDDE9D6
:1057D0000F010E9A0391002104910092BA4621070D
:1057E0000CD40399514500DA8A46BAF1010F05DD60
:1057F000009AAAF10101515C302908D0B84202DABE
:1058000010F1040F06DA0121CDE9011015E0AAF12B
:105810000101E9E7002805DC049901440491AAEBA1
:10582000000102E0411C514500DD8A460499401AFE
:10583000401C01904FF000400290200704D40198D2
:10584000504501DBCDF8048000208DF84F00029810
:105850000DF14F07B0F1004F25D02B200E9002988C
:105860004FF0020800280CDA404202902D200E90E2
:1058700007E00A210298FAF7C5FE3031029007F8D6
:10588000011DB8F10001A8F10108F2DC029800281E
:10589000EFD1791E0E980870307800F0200040F0AB
:1058A000450007F8020D12A8C01B00F10708149864
:1058B000007800B1012000EB0A01019801EBE071D2
:1058C00005984144401A401E0590E00306D45B460B
:1058D0002146179A059800F05DF805441498007861
:1058E00018B15A46179990476D1CE00324D55B46C2
:1058F0002146179A059800F04DF805441CE00498DD
:10590000002807DBDDE90301884203DD0098405CE5
:10591000179901E0179930205A469047049805F1ED
:105920000105401C04900198401E019004D12E20D6
:105930005A46179990476D1CBAF10001AAF1010A65
:10594000DDDC05E017F8010B5A46179990476D1CEE
:10595000B8F10001A8F10108F4DC5B462146179A72
:105960000598ABE62D0000002B0000002000000091
:105970002DE9F041044600251E461746880404D44C
:1059800005E039462020B0476D1C641EF9D5284635
:10599000BDE8F0812DE9F041044600251E46904601
:1059A000C80301D5302700E02027880404D505E08E
:1059B00041463846B0476D1C641EF9D52846BDE8FF
:1059C000F0814A68002A06D00A68531C0B601070E8
:1059D0004868401E4860704730B589B003AD0F205D
:1059E00013210095CDE9011001231A4648211148E1
:1059F000FCF746F804000CD00E48FBF7CAFD0D4832
:105A0000FCF704FAFDF774FF012C10D0022009B056
:105A100030BD094900202A5C0B5C9A4201D0042069
:105A2000F5E7401CC0B21328F5D30020EFE70320B0
:105A3000EDE7000050010020CC68000803490A7817
:105A4000002A02D04860002008707047B40000208F
:105A500010B5002808D0054C2178002904D16168D0
:105A6000FEF792FB0120207010BD0000B400002062
:105A700070B54FF0E024002265690949A3690968FF
:105A80004843A1699942FCD002D2A3EB010302E092
:105A9000A5EB010633441A440B468242F1D370BD94
:105AA0004401002010B500210846FEF74FFC0122FA
:105AB00011460848FBF761FD07484FF6FF714FF0AC
:105AC000FF334088BDE8104001EAC0120349044892
:105AD000FCF780BD000C0140340000208C02002047
