:020000040800F2
:10000000380D002001010008152800089F1E000877
:1000100011210008FB08000855310008000000000D
:10002000000000000000000000000000D92B0008C4
:100030004D0B000800000000252A0008E12E0008F2
:100040001B0100081B0100081B0100081B01000820
:100050001B0100081B0100081B0100081B01000810
:100060001B0100081B0100081B0100081B01000800
:100070001B0100081B0100081B0100081B010008F0
:100080001B0100081B0100081B0100081B010008E0
:100090001B0100081B0100081B0100081B010008D0
:1000A0001B010008452F00081B0100081B01000868
:1000B0001B0100081B0100081B0100081B010008B0
:1000C0001B0100081B0100081B0100081B010008A0
:1000D0001B0100081B0100081B0100081B01000890
:1000E0001B0100081B0100081B010008DFF80CD0F1
:1000F00000F0B4FB00480047913B0008380D002099
:100100000648804706480047FEE7FEE7FEE7FEE7B1
:10011000FEE7FEE7FEE7FEE7FEE7FEE7432F000807
:10012000ED000008202A04DB203A21FA02F0002129
:10013000704721FA02F3D040C2F1200291400843F7
:1001400019467047D2B201E000F8012B491EFBD2DC
:1001500070470022F6E710B513460A4604461946D2
:10016000FFF7F0FF204610BDF0B480EA0102D40F83
:100170004200B2EB410F02D20246084611464A0045
:1001800042D0C30DDDB2C1F3C752AD1A202D35DA0E
:10019000C1F3160141F4000204B15242C5F1200638
:1001A00002FA06F12A411044B3EBD05F23D0C4B168
:1001B000012DA0EBC35009DCF0BC4FF0004202EA75
:1001C000C352DBB200F5000000F08DBA400000F130
:1001D000807000EBC350A0F1807040EAD1704900FC
:1001E00009E0490841EAC071A0EBC35000F50000E6
:1001F000400800EBC350F0BC00F06CBA6142012231
:1002000002EB4101001BF6E7F0BC704781F00041B2
:10021000AAE780F00040A7E780EA010210B502F0EB
:100220000043400022D04A001FD0010E01EB1261B2
:10023000C0F35600C2F3560240F4000042F400023C
:10024000A0FB022000047F39140400D0401C50EAB7
:10025000124001D44000491EC2B20C0604EBD0107B
:10026000401C4008802A02D003E0002010BD20F08E
:100270000100002900DA0020184310BD2DE9FE4FCF
:10028000804681EA0300C00F0C46009021F0004137
:1002900023F00045B8EB0200A94105D240462146B3
:1002A00090461C460B46024623F00040104347D0C0
:1002B000270DC7F30A00C3F30A510290401A0190B8
:1002C00040286BDAC3F3130040F4801B0098924679
:1002D00020B10023D2EB030A63EB0B0B01985946C4
:1002E000C0F14002504600F0D4F906460D46504693
:1002F0005946019A00F0DCF910EB08006141002436
:1003000087EA115284EAE7731A4340D0009A62B335
:10031000019A012A4FEA075215DC001B61EB02012A
:100320004FF0004202EA0752CDE90042001C41F5BD
:10033000801132462B4600F013FA03B0BDE8F08F6F
:1003400040462146F9E7001B61EB0201001C41F524
:10035000801300185B412018A2F5001747EB03013A
:1003600040EAD570B6196D4111E06D084FEA3606C6
:1003700045EAC0754FEA0752001B61EB0201001C01
:1003800041F5801149084FEA3000001951413246C9
:100390002B4603B0BDE8F04F00F0D3B9009801221E
:1003A00040000023D0EB020263EBE073009821468B
:1003B0004FEAE074B8EB000061EB0401E9E783F079
:1003C00000435BE781F0004158E72DE9FE4F81EAE9
:1003D000030404F0004421F0004100944FF0000BAE
:1003E00023F0004350EA01045ED052EA03045BD0DC
:1003F000C3F30A54C1F30A552C44A4F2F334019414
:10040000A0FB0254C1F3130141F48011C3F31303A1
:1004100043F4801301FB024400FB034E840A970A55
:1004200044EA815447EA8357A4FB076802958D0A82
:1004300005FB07854FEA932C04FB0C542705029D0E
:100440004FEA065847EA1637B5EB08056EEB070C7E
:10045000870E920E47EA811742EA8312A7FB020138
:10046000B6EB0B0164EB00042B0D43EA0C335E1872
:1004700044EB1C50DA465146E7FB0201C5F3130476
:100480004FEA0B3343EA14534FEA0432019C43EA28
:100490000603A4F10C040294009CCDE900B400F022
:1004A0005FF903B0BDE8F08F00200146F9E72DE9C0
:1004B000F04D81EA030404F0004B21F0004514469E
:1004C0004FF0000A23F0004150EA050220D054EA20
:1004D00001021DD0C5F30A570246C5F31303C1F349
:1004E0001300C1F30A5640F4801543F48013A7EBC0
:1004F0000608101BD64608F2FD3873EB050002D340
:1005000008F1010801E092185B41B8F1000F03DA2D
:1005100000200146BDE8F08D00204FF48011064612
:1005200084460EE0171B73EB050705D3121B63EB24
:10053000050306434CEA010C49084FEA30009218C3
:100540005B4150EA0107EDD152EA030012D082EA82
:10055000040083EA0501084305D0101BAB4106D215
:100560000122002306E000224FF0004302E06FF07A
:10057000010253101AEB06004CEB085110EB0A0075
:1005800041EB0B01BDE8F04D00F0DBB8C10F80EA94
:10059000E0700844CA079623002100F0A4B896230F
:1005A0000022114600F09FB800F0004220F0004009
:1005B000C10DC0F3160040F400007F2901DA0020CD
:1005C0007047962903DCC1F19601C84001E09639D5
:1005D0008840002AF4D0404270470000002801DB28
:1005E000C0F10040002901DBC1F1004181427047A8
:1005F000002801DBC0F10040002901DBC1F100410E
:100600008842704730B50B46014600202022012465
:1006100009E021FA02F59D4205D303FA02F5491BD0
:1006200004FA02F52844151EA2F10102F1DC30BDE6
:100630002DE9F05F0546002092469B468846064617
:10064000814640241BE02846414647462246FFF7A4
:1006500069FD53465A46C01A914110D311461846B7
:10066000224600F016F82D1A67EB01084F46224685
:100670000120002100F00DF817EB00094E41201E6B
:10068000A4F10104DFDC484631462A464346BDE872
:10069000F09F202A04DB203A00FA02F10020704784
:1006A0009140C2F1200320FA03F3194390407047B0
:1006B000202A06DBCB17203A41FA02F043EAE07326
:1006C00006E041FA02F3D040C2F120029140084313
:1006D000194670470029A8BF7047401C490008BF51
:1006E00020F00100704710B4B0FA80FC00FA0CF062
:1006F00050EA010404BF10BC704749B1CCF120049A
:1007000021FA04F411FA0CF118BF01212143084326
:10071000A3EB0C01CB1D4FEA00614FEA102042BF52
:10072000002010BC704700EBC35010440029A4BF48
:1007300010BC7047401C490008BF20F0010010BCED
:10074000704710B5141E73F1000408DA401C41F123
:10075000000192185B411A4301D120F0010010BD45
:100760002DE9F04D92469B4611B1B1FA81F202E0BB
:10077000B0FA80F220329046FFF78BFF04460F4616
:1007800040EA0A0041EA0B0153465A46084313D097
:10079000114653EA010019D0C8F140025046FFF754
:1007A000C1FC05460E46504659464246FFF771FFCA
:1007B000084305D0012004E020463946BDE8F08D0D
:1007C0000020054346EAE0762C4337430A98630548
:1007D000E40AA0EB08000022FD0A44EA47540A306C
:1007E00002D500200146E9E7010510196941DDE95C
:1007F000084500196941BDE8F04DA2E7C1F30A526E
:10080000C1F3130140F2FF3341F480119A4202DA3E
:1008100000200146704740F233439A42A2F233422D
:1008200002DC5242FFF77EBCFFF733BF30B5041E37
:1008300071F1000404DB4FF00044404264EB01011D
:10084000141E73F1000405DB1C464FF000435242B6
:1008500063EB0403994208BF904230BD064C074D3C
:1008600006E0E06840F0010394E807009847103480
:10087000AC42F6D3FFF73EFC544300087443000833
:1008800070B58C1810F8015B15F0070301D110F852
:10089000013B2A1106D110F8012B03E010F8016B7F
:1008A00001F8016B5B1EF9D12B0705D40023521E02
:1008B0000DD401F8013BFAE710F8013BCB1A921C6A
:1008C00003E013F8015B01F8015B521EF9D5A14268
:1008D000D8D3002070BDF8B507461C4615460E4615
:1008E000182001F0A5FD002805D02B4632463946D8
:1008F000009402F073F9F8BD7047FEE72DE9FF5F41
:100900000024DDF838B09A462746A046A1465E4648
:1009100025460C21324800F011F901E06D1CADB202
:1009200016F8010B0028F9D1BAF1000F37D14FF6B4
:10093000FF7A34E01BF807306D1E7F1CADB2BFB2EA
:100940000A2B3DD0274802994069467809FB0611D9
:10095000067801980AB208FB060001B2009801F07F
:100960002DFE08F101001FFA80F8D0450ED309F1E1
:1009700001001FFA80F91A484FF00008817A491CDB
:1009800081728188A14200D28480002414480188A9
:10099000491C0180134840690078204484B2002D2E
:1009A000C8D1104841690E480A7882714978C171EE
:1009B0008188A14200D2848004B00948BDE8F09F3C
:1009C00009F101001FFA80F905484FF00008817A0B
:1009D000491C81728188A14200D284800024DEE714
:1009E000A2060020100100202DE9FF4F83B04B48E4
:1009F000002500954069DDF840A09B4640782F46D1
:100A0000A846A9465446102800D21020019000267E
:100A10000C21434800F092F801E0761CB6B214F8BD
:100A2000010B0028F9D13E4CBBF1000F41D14FF62C
:100A3000FF7B3EE0761E1AF80700B6B28DF8000084
:100A40007F280CD90AEB0701BF1C49788DF80110EB
:100A5000761E6188BFB2491CB6B2618001E07F1C7E
:100A6000BFB20A2817D07F2836D9059A01996B465C
:100A700009FB012002B20498404401B2039801F03E
:100A80004BFB00208DF8010008F1100010351FFA13
:100A900080F8ADB23FE009F101001FFA80F9A07AB9
:100AA0004FF00008401CA072A088A84200D2A58088
:100AB0000025002EBED1194840690178A171407807
:100AC000E071102020726072A088A84200D2A58038
:100AD00007B01348BDE8F08F10486B464069407876
:100AE000C0F1100105980A18019909FB012002B212
:100AF0000498404401B2039801F02EFE0748406973
:100B0000027802EB08011FFA81F82188491C218034
:100B10000078284485B2D845CBD3BCE7100100202B
:100B2000BA0600200020044B4FF4806102461A549C
:100B3000401C8842FBD37047DC010020002201E00A
:100B400000F8012B491E89B2FAD27047704770B580
:100B50008E18002900DA00210C4605B205E00122BA
:100B600021B2284603F0ACF8641CB442F7DB70BD38
:100B70002DE9FF5F8146500001278846C2F101063A
:100B8000C0F1000B00251446DDF838A03AE0002E35
:100B900003DB0BF1020B5E44641EBF1C03986D1C4B
:100BA0003E44C00715D00AEB4400401CC2B2A8EB7B
:100BB000040109EB0500FFF7CAFFA54209DA0AEBB9
:100BC0004500401CC2B2A8EB050109EB0400FFF789
:100BD000BEFF0398800715D50AEB4400401CC2B243
:100BE000A8EB0401A9EB0500FFF7B1FFA54209DA64
:100BF0000AEB4500401CC2B2A8EB0501A9EB0400BA
:100C0000FFF7A5FFA542C2DBBDE8FF9F2DE9F0413C
:100C10001C4616460D46074608E02819401E01B23C
:100C20003246384600F0C6F9641EA4B2002CF4D156
:100C3000BDE8F0812DE9F84F05680446067CA888D8
:100C400000281BD0E888002818D0607C012817D025
:100C5000B5F90080B5F90290B5F90470B5F9060050
:100C6000A4F80880A4F80A90A781E0812674C3B292
:100C70004946FAB24046009600F068F8BDE8F88FA1
:100C8000B4F90A00FFF782FC0746B5F90200FFF746
:100C90007DFC01463A46214802F0CBF9FFF784FC7F
:100CA0000FFA80F9B4F90800FFF770FC0746B5F9B0
:100CB0000000FFF76BFC014618483A46183002F076
:100CC000B8F9FFF771FC0FFA80F8A089FFF767FC0D
:100CD0000746A888FFF763FC014610483A463030C3
:100CE00002F0A7F9FFF760FC07B2E089FFF757FCB5
:100CF0008246E888FFF753FC0146084852464830D0
:100D000002F097F9FFF750FC00B2B0EB460F00DAA3
:100D10007000B7EB460FA3DA7700A1E75000002080
:100D200038B5049D18B1009501F07EFE38BD10461F
:100D30001C4639B10B78497800912A46214600F0CB
:100D400039F838BD03784178901CF5E72DE9F84F64
:100D50001D460A9C16008A46814626D0002D24D0C6
:100D6000C4F1000806EB480082B209EB040738B270
:100D70000FFA8AF1FFF74AFF05EB4800A0F10108DE
:100D800009EB06000AEB0405001B01232246294655
:100D9000401ECDF80080FFF7EBFE294638460223BF
:100DA0002246CDF80080FFF7E3FEBDE8F88F72B66B
:100DB000FEE700002DE9F84F8346C8180A9C0FFA99
:100DC00080FC101907B2D01702EB507424F0070012
:100DD000161A002A08DA06F10800C51700EB557547
:100DE00025F00705401B00E03046C5B20020BCF1ED
:100DF000000F6FDB002F6DDB80296BDA402A69DA88
:100E00003F2F00DD3F27DFF8A4A14FF0FF0E12F1C6
:100E1000080F04DCE21003FB120080B23246C0E08F
:100E20000C4602F10809B7E0002C03DA001B80B27F
:100E3000002406E07F2C04DBACEB0402104480B2FB
:100E4000ADE05B4B1B78022B4FD0032B21D0002A47
:100E50000CDBD31004EBC3131BF800801AF80360FB
:100E600008FA05F846EA08060AF80360B9F13F0FE8
:100E70002FDC75B31BF80060002AC5F1080326FAC1
:100E800003F67ADA1AF8048046EA08060AF80460DB
:100E90007EE0002A0CDBD31004EBC3131BF80080A8
:100EA0001AF8036008FA05F886EA08060AF80360EB
:100EB000B9F13F0F6CDC65B11BF80060002AC5F189
:100EC000080326FA03F606DA1AF8048086EA08060A
:100ED000DCE751E068E0D31004EBC31808EB0A0329
:100EE00093F8808086EA080650E0002A14DBD310CD
:100EF00004EBC31600961AF80630C5F108082EFA5E
:100F000008F63340009E0AF806301BF80060AE4039
:100F10003343009E0AF80630B9F13F0F38DC5DB369
:100F2000002A10DA1AF804600EFA05F31E400AF8D7
:100F300004601BF80030C5F1080823FA08F33343B6
:100F40000AF8043024E0D31004EBC31606EB0A03BE
:100F50000EFA05F693F8808008EA060883F8808088
:100F6000CDF800801BF80060C5F1080826FA08F6E5
:100F7000DDF8008008E000E00AE0D31004EBC318BD
:100F800008EB0A0393F8808046EA080683F880603D
:100F9000641C401C24B280B26445FFF645AF0FFAD2
:100FA00089F2BA42FFF63CAFBDE8F88FDC010020C1
:100FB0001500002070B514460E46054608E02819B5
:100FC000401E00B20122314602F07AFE641EA4B235
:100FD000002CF4D170BD002804D00189012901D072
:100FE0000069FAE77047002807D0C168002904D0DB
:100FF0000A89012A01D00846F7E7704770B50A4808
:101000004178846801290DD10025457008E0A07D54
:10101000012804D1A575E16809B120698847A46851
:10102000002CF4D170BD0000B40000202DE9F04187
:101030000746144801260025846846701EE0E07DBE
:1010400001281AD12068384420606168884214D38E
:101050002560607D012803D9A0F10100607501E0E1
:1010600000D1E575207D012801D028B105E0E168B7
:1010700019B12069884700E0A675A468002CDED16C
:10108000BDE8F081B4000020037A012B01D00020DC
:101090007047C3790B704179117000214171017261
:1010A0000120704770B5044600F004F90546601C45
:1010B00002D004480078044400F0FCF8401BA04231
:1010C000FAD370BD000000202DE9F84FDFF8B89189
:1010D0000024A9F1040B23460F2709F1040AABF100
:1010E000040EC9E00125A5402A40AA427DD1674EE1
:1010F000D1F804C0ACEB0608B44532D014DCBCF126
:10110000030F3AD009DCBCF1000F2AD0BCF1010F6B
:101110001CD0BCF1020F31D11DE0BCF1110F17D072
:10112000BCF1120F2AD119E0B8F5881F19D006DCDE
:10113000B8F5803F15D0B8F5801F1FD111E0B8F584
:10114000001F0ED0B8F5041F18D10AE0CB6815E0D7
:10115000CB681B1D12E0CB6808330FE0CB680C3363
:101160000CE08B682BB1012B4FF0080303D04561D5
:1011700004E0042302E0056100E00023FF2A01D817
:10118000064601E000F104064FEA840501D9A5F105
:101190002005D6F8008007FA05FC28EA0C0803FAB7
:1011A00005F548EA0508C6F800804D68ED0062D5EF
:1011B000374DAE6946F00106AE61AD6924F0030615
:1011C00005F001050095334D06EB050CDCF80850E1
:1011D000A607360F07FA06F825EA0805DFF8B880F3
:1011E000404503D14FF0000817E044E0DFF8AC8041
:1011F000404502D14FF001080FE0DFF8A4804045E0
:1012000002D14FF0020808E0DFF89880404502D193
:101210004FF0030801E04FF0040808FA06F848EA26
:101220000508CCF808804D68D9F80060ED024D46FD
:1012300001D5164300E096432E604D68DAF8006051
:10124000AD02554601D5164300E096432E604D6829
:10125000DBF80060AD035D4601D5164300E0964320
:101260002E604D68DEF80060ED03754601D516432B
:1012700000E096432E60641C0D682A46E5407FF42A
:1012800031AFBDE8F88F00000804014000001110E4
:10129000001002400000014000080140000C014025
:1012A00000100140001401400AB1016170470904B7
:1012B000FBE7000001488068704700000000002044
:1012C0000248816802781144816070470000002064
:1012D000074810B5016841F010010160032000F0DB
:1012E00075F80F2000F006F800F024F8002010BD7B
:1012F0000020024070B50D4D04464FF47A712878F5
:10130000B1FBF0F00A490968B1FBF0F000F0F7FB1F
:1013100048B9102C07D200222146501E00F036F8A2
:1013200000206C6070BD012070BD00000000002036
:101330000C0000200C4808B5816941F00101816171
:10134000816901F001010091C16941F08051C161E1
:10135000C06900F0805000900448416821F0E061CD
:1013600041F00071416008BD0010024000000140E2
:10137000002809DB00F01F02012191404009800094
:1013800000F1E020C0F8001170470000F0B40E4BEF
:101390001B680C46C3F30223C3F10705042D00D9D3
:1013A0000425191D072901D2002300E0DB1E0126B8
:1013B00006FA05F1491E214099409E40761E1640CE
:1013C0003143F0BC01F0FABE0CED00E0064900F03C
:1013D000070208684FF6FF03184040EA0220034A5C
:1013E00010430860704700000CED00E00000FA05B3
:1013F0002DE9F0470F46050061D0434E306800F0FC
:101400000700B84209D2306820F007003843306046
:10141000306800F00700B84251D128683B4C810782
:1014200012D5400703D5606840F4E060606028781A
:10143000000703D5606840F4605060606068A96888
:1014400020F0F000084360602878C00728D0686862
:10145000012810D02168022810D0890700292EDA2F
:10146000616821F0030101436160FFF723FF8046BB
:1014700041F288390DE021688903EFE78901EDE742
:10148000FFF718FFA0EB0801494502D90320BDE88A
:10149000F0876068696800F00C00B0EB810FEFD155
:1014A000306800F00700B8420BD9306820F0070020
:1014B00038433060306800F00700B84201D00120A6
:1014C000E5E72878400705D56068E96820F4E06022
:1014D000084360602878000706D56068296920F411
:1014E000605040EAC100606000F018F86168084A86
:1014F000C1F30311515CC840064908600648006802
:10150000FFF7F8FE0020C2E7002002400010024072
:101510000A3D00080C000020040000200E4A51681B
:101520000E4801F00C03042B11D0082B0FD10C48EE
:10153000C1F38343C903C05C0AD55168084AC1F3AB
:101540004041921E515C054A5043B0FBF1F0704798
:1015500004494843704700000010024000127A001E
:10156000FA3C000800093D002DE9F84F040070D056
:101570002078C04DC00749D06868C0F381000128B9
:1015800007D06868C0F38100022809D16868C003E9
:1015900006D52868800339D560680028E7D035E093
:1015A0006068B0F5803F0BD010B1B0F5A02F11D01E
:1015B000286820F480302860286820F4802002E029
:1015C000286840F480302860606890B1FFF772FEB0
:1015D00006460AE0286840F480202860F0E700BF53
:1015E000FFF768FE801B642873D828688003F7D54E
:1015F0000CE0FFF75FFE064605E000BFFFF75AFE6E
:10160000801B6428F0D828688003F7D420789A4E8D
:1016100080074FF001094FF0000839D5686810F0D5
:101620000C0F07D06868C0F38100022809D16868F0
:10163000C00306D42868800714D52069012808D182
:1016400010E02069B0B1C6F80090FFF733FE0746FE
:1016500005E00AE1FFF72EFEC01B0228C4D8286867
:101660008007F7D52868616920F0F80040EAC100DA
:1016700028600DE0C6F80080FFF71CFE074604E076
:10168000FFF718FEC01B022823D828688007F7D46C
:10169000207800072CD57948A169D9B1C0F800900D
:1016A000FFF708FE074604E0FFF704FEC01B022810
:1016B0000FD8686A8007F7D571484FF4FA5100686F
:1016C000B0FBF1F0009000BF0098411E0091FAD2EB
:1016D0000EE080E0C0F80080FFF7ECFD074604E074
:1016E000FFF7E8FDC01B022875D8686A8007F7D4A9
:1016F0002078400760D5E8690027C00008D4E86971
:1017000040F08050E861E869012700F080500090C7
:101710005C480168C90513D40168834641F48071AF
:101720000160FFF7C7FD824606E000BFFFF7C2FD7C
:10173000A0EB0A0064284ED8DBF80000C005F5D500
:10174000E06801280AD008B1052813D0286A20F0E3
:1017500001002862286A20F0040002E0286A40F0B4
:1017600001002862E06841F2883B98B1FFF7A2FDD2
:1017700082460BE0286A40F004002862EEE700BFD2
:10178000FFF798FDA0EB0A0159455AD8286A80074F
:10179000F6D50CE0FFF78EFD824605E0FFF78AFDE7
:1017A000A0EB0A0159454CD8286A8007F6D41FB12E
:1017B000E86920F08050E861E06988B36968C1F3A6
:1017C0008101022944D00228C6F8608004D0FFF7C6
:1017D00071FD044638E034E0FFF76CFD074604E095
:1017E000FFF768FDC01B02282BD828688001F7D4BA
:1017F000206AB0F5803F05D16868A16820F4003008
:1018000008436860D4E908010843696821F4741149
:1018100008436860C6F86090FFF74CFD044606E098
:1018200025E000BFFFF746FD001B022809D8286805
:101830008001F7D51BE000BFFFF73CFD001B02282D
:1018400002D90320BDE8F88F28688001F4D40EE0A7
:101850000128F7D06868226A00F48031914204D1EF
:10186000616A00F47010884201D00120EAE700208C
:10187000E8E70000001002400000424280044242BB
:101880000C0000200070004070B5040009D0606AB0
:10189000002540B125616561A56294F8510040B111
:1018A0000CE0012070BD6068B0F5827FF4D0E56186
:1018B000F2E784F85050204600F040F8022084F807
:1018C00051002068016821F040010160A088218951
:1018D00000F4827001F404410843A18901F400611D
:1018E0000843217C01F002010843217D01F0010140
:1018F0000843218B01F400710843217F01F0380176
:10190000084394F8201001F080010843218D01F470
:101910000051084321680860A069042101EA1040D1
:10192000216848602068C16921F40061C161656572
:10193000012084F85100002070BD000000B585B082
:101940000021009101910291039100680F498842A2
:101950001AD10F48816941F480518161816901F494
:1019600080510491816941F0040181618069694677
:1019700000F004000490A0200090022001900320B9
:1019800003900448FFF7A0FB05B000BD0030014004
:1019900000100240000801402DE9F84F9846164615
:1019A0008A460446FFF786FC814694F851000128D8
:1019B0001ED1BAF1000F73D0002E71D094F85000F0
:1019C000012815D0012784F85070032084F85100B5
:1019D00000256565C4F830A0A686E686A563A587C0
:1019E000E58765642564A068B0F5004F03D00CE07E
:1019F0000220BDE8F88F2068016821F040010160F5
:101A00002068016841F4804101602068016849064E
:101A100003D4016841F040010160E068B0F5006F57
:101A2000606803D048B3012E27D047E008B1012EEB
:101A30001FD1206B21680088C86006E0206881689B
:101A4000890709D5216B0988C160206B801C206340
:101A5000E08E401EE0860CE0FFF72CFCA0EB0901B5
:101A6000414503D3B8F1FF3F03D035E0B8F1000F93
:101A700032D0E08E0028E1D123E0206B216800788D
:101A8000087306E02068816889070AD5216B097808
:101A90000173206B401C2063E08E401EE0860DE049
:101AA0002BE0FFF707FCA0EB0901414503D3B8F198
:101AB000FF3F03D010E0B8F1000F0DD0E08E0028FA
:101AC000E0D14A464146204601F010F808B12020F6
:101AD0006065A06830B109E084F8517084F8505016
:101AE000032086E72068C1688068009084F8517000
:101AF00004F8505F60680028F3D0012079E710B542
:101B0000401EB0F1807F01D3012010BD4FF0E024D2
:101B100060610F21601701F051FB0020A0610720D8
:101B20002061002010BD70477047000070B590F82C
:101B30003C20012A26D0012480F83C40022280F873
:101B40003D2003685A689D6822F070060A68324397
:101B50005A600D4B02689A4208D0B2F1804F05D00E
:101B60000A4B9A4202D00A4B9A4204D1496825F0A6
:101B700080031943916080F83D40002180F83C10BB
:101B8000084670BD022070BD002C014000040040DA
:101B90000008004010B5040003D094F83D0010B1D7
:101BA00007E0012010BD002084F83C00204600F032
:101BB0001FF8022084F83D00211D206801F0C8F9BB
:101BC000012084F8460084F83E0084F83F0084F841
:101BD000400084F8410084F8420084F8430084F80F
:101BE000440084F8450084F83D00002010BD00004A
:101BF00008B500680B49884212D10B48816941F44D
:101C0000006181618069002200F40060009011464B
:101C10001920FFF7BBFBBDE808401920FFF7A8BB60
:101C200008BD0000002C01400010024090F83D105B
:101C3000012901D001207047022180F83D10016880
:101C4000CA6842F00102CA6000680B49884208D0A5
:101C5000B0F1804F05D00949884202D00849884236
:101C600004D1816801F00701062903D0016841F021
:101C70000101016000207047002C01400004004079
:101C80000008004070B5044690F83C00002501288B
:101C900017D0012684F83C60022084F83D002068BB
:101CA000826822F0770222F47F428260086850281E
:101CB00038D00DDC20284FD005DC90B3102811D18E
:101CC0004AE0022070BD302846D040280AD13BE0CF
:101CD00060282FD070280DD0B0F5805F03D0B0F50C
:101CE000005F12D0012584F83D60002084F83C009C
:101CF000284670BDCB68D1E90121206801F064F964
:101D00002068816841F0770109E0CB68D1E90121C1
:101D1000206801F059F92068816841F480418160B0
:101D2000E1E719E0CA684968206801F05FF95021CD
:101D3000206806E0CA684968206801F068F96021F7
:101D4000206801F04BF9CEE7CA684968206801F0C5
:101D50004DF940212068F4E7226801461046F0E77B
:101D600070472DE9F04104460068C66805694FF0E8
:101D70000007A90713D5B10711D5F91E016101208C
:101D80002077206880698007204602D0FFF7E8FFAF
:101D900004E000F07EF8204600F07CF82777680722
:101DA00016D5700714D521686FF004000861022071
:101DB00020772068806910F4407F204602D0FFF72A
:101DC000CFFF04E000F065F8204600F063F82777C5
:101DD000280715D5300713D521686FF00800086172
:101DE000042020772068C0698007204602D0FFF7D2
:101DF000B7FF04E000F04DF8204600F04BF82777DD
:101E0000E80616D5F00614D521686FF010000861B9
:101E1000082020772068C06910F4407F204602D057
:101E2000FFF79EFF04E000F034F8204600F032F89F
:101E30002777E80708D0F00706D021686FF0010087
:101E40000861204600F027F8280608D5300606D598
:101E500021686FF0800008612046FFF764FE680685
:101E600008D5700606D521686FF04000086120464D
:101E700000F014F8A8060AD5B00608D521686FF05E
:101E8000200008612046BDE8F041FFF74DBEBDE8E7
:101E9000F08170477047012000F09CBC7047FEE75E
:101EA0000D4BDA6812B9D86004E01A46D368002BEB
:101EB000FBD1D060017061B1002141704FF4967187
:101EC00041800021017141718171C1710172C16054
:101ED00070470121F1E70000B400002070B52049EF
:101EE00000224FF49675C968012336E00C7A012C64
:101EF00032D04C780E78B44220D14C88844207D935
:101F0000241A2404240C4C800DD00C7914B107E061
:101F10004A8008E0C8244C804C79641C4C710B71D9
:101F2000CB714C88C4B98C790444E4B28C71C82C50
:101F300001D98A710B720224CC710DE00A718A7189
:101F40004C88AC4201D204444C80CC79012C03D1A2
:101F50004C88AC4200D30B72C9680029C6D170BD51
:101F6000B40000207CB50025164C8DF800508DF88B
:101F700004500646E07AA17A88420AD00120FFF791
:101F800091F8E07AA17A884203D03070E172A170B2
:101F900015E0A1780C48491E032902D8012141709F
:101FA00000E0457001AA69460748FFF76DF8002870
:101FB00006D09DF80000022801D1A07830700120E1
:101FC0007CBD000010000020DC0500202DE9F04160
:101FD00086B000241F480094019402940394816900
:101FE00041F020018161816901F020010491816942
:101FF00041F004018161816901F00401049181696A
:1020000041F0080181618069134F00F008000490DD
:10201000002250213846FFF747F9DFF840800022C0
:1020200001214046FFF740F9502001250226CDE965
:102030000005CDE9024669463846FFF745F80396A4
:102040000095CDE9015469464046FFF73DF806B0DA
:10205000BDE8F0810010024000080140000C014082
:10206000104810B50E4901604FF4827141600021A3
:102070008160C1604FF400720161C0E9051208225D
:10208000C0E90721416281620A21C162FFF7FCFBBE
:10209000002803D0BDE81040FEF789BE10BD000047
:1020A000003001403C01002010B586B000241748E4
:1020B00000940194029403940494134905940160DC
:1020C0004721C0E9011440F2E731C0E9031444613B
:1020D0008461FFF75FFD08B1FEF769FE4FF48050A1
:1020E000009069460948FFF7CDFD08B1FEF75FFE95
:1020F000049404A905480594FFF718FD002801D0B1
:10210000FEF755FE06B010BD002C014094010020E2
:10211000FEE77047704770472DE9FC5F804657A087
:1021200014460068019056480D4682469B4601F0D1
:102130008FFD00260746B146022845D3584601F0D8
:1021400087FD022840D19BF800107F293CD97F1ED3
:102150003DE000BF1AF806007F2837D9761C9BF8AF
:1021600001001AF8062009F1010982422ED10AEB7A
:10217000060010F8010C884228D1B9F1000F23D0D5
:10218000B8F1000F26D005F10F0104F10F00002D6A
:1021900026DB002C24DBB8F804208A4220DDB8F8C6
:1021A000062082421CDDB8F80200204400B20090F4
:1021B000B8F80000284403B2324800EB491201A9E4
:1021C0000020203AFEF7ACFDBDE8FC9F761CBE4225
:1021D000C0D3F9E72B482B4600EB49120094EEE7F9
:1021E000002D01DA6A4200E0002212B20092002CB7
:1021F00001DA624200E00022B8F8043012B28B42E9
:1022000001DD102100E0591B0FFA81FAB8F8061021
:10221000814201DD102000E0081B0FFA80FBD6B2DE
:1022200029E00098C7B222E04FEA4900801E00EB87
:10223000D601144806F0070200EB01100121C05D31
:102240009140084205D0A01902B2E81901B2012359
:1022500008E00D480078022807D1A01902B2E81959
:1022600001B20023404600F08DF97F1CFFB25745B4
:10227000DADB761CF6B25E45D3DBA5E71010000072
:102280000C43000811430008150000202DE9F14F10
:102290003C4800250468002C71D02046016939B102
:1022A0000289012A04D0CA7A012A01D00846F5E73A
:1022B000814620004FF0000601D1304609E0C16898
:1022C00039B10A89012A04D0C27A012A01D008460C
:1022D000F5E780460CB9344604E02089012801D096
:1022E0002469FAE7200001D1304606E0C16821B137
:1022F0000A89012A01D00846F8E7DFF888B00746C6
:102300004FF0010AABF12C0B206A28B34C4501D1E8
:10231000012500E025B394F82410490624D402884E
:102320000099114489B20180206A4288914210D3F9
:102330000680E08C40F00100E08408E00680E08C3C
:1023400040F00100E084E16909B1204688478BF83C
:1023500009A0444500D10025BC4210D0E468D3E771
:1023600094F824104906F4D502880099114489B2E2
:102370000180206A42889142E0D2EAE7FFE7BDE8A7
:10238000F88F00003C0000203EB500F011FA002359
:102390000D4A19463220FEF79EFA0C4801240C49DA
:1023A000447401601421CDE9001400200A46029013
:1023B00001464623064800F02DFC0649C16101F0A4
:1023C0006DFC054804703EBD4D2400083C00002013
:1023D000EC050020293C000818000020002809D046
:1023E000002305E039B10069002803D05B1C9BB2D3
:1023F0009342F7D37047C068F6E7002808D00189F8
:10240000012905D00169CA7A012A01D00846F6E7F8
:10241000704700280AD0C168002907D00A89012A1C
:1024200004D0C27A012A01D00846F4E770470000C0
:1024300010B5044601F0C2FB002803D00249CA6867
:102440002244CA6010BD00001000002004490A792F
:1024500008B1104402E0002A01D101200871704740
:10246000340000202DE9F041444CE07800B3601CBA
:10247000FFF778FDFEF7C2FD607A002618B166729C
:102480000020FFF7E3FFDFF8F48008F1240898F854
:10249000040000286DD008F108052868002868D0DD
:1024A00000F096FCFEF73EFBE079012805D00DE038
:1024B0003248C01C00F0C0FCDCE7206928602661BF
:1024C000A07901F0EFFAA6710220E071D5E90001D0
:1024D000814202D0207801F0E5FAFFF71AFE284881
:1024E000006801F0E9FA286800F0C4FBFFF713FE6A
:1024F0002868A26972B1FEF76EFD90F824100906F3
:1025000008D501E092682AB111688142FAD1506879
:1025100000B180472B681846FFF76FFF0546184645
:10252000FFF777FF0746284601F0F6FA18B995F845
:102530002400800603D5E96909B12846884700F0E0
:10254000C7FABD4201D0ED68EDE70C482C30817C24
:10255000012904D103216171FEF76CFB6671FFF75D
:10256000D9FD01F0B9FA667098F80410491E88F890
:102570000410BDE8F041FEF7BFB9000010000020D4
:10258000B0000020F0B4002815D004884588868863
:102590000C44154424B22DB28E420CDDC08890420A
:1025A00009DD002907DB002A05DB29462046F0BCAF
:1025B0001A4601F085BBF0BC704700002DE9FE4FC4
:1025C000824663480E4615464769A3F120025F2AFA
:1025D00039787C78894600D32023203B03F0FF0B19
:1025E000BAF1000F39D0721E8B1834D4691E14EB67
:1025F000010C30D4BAF80410B1422CDDBAF8060050
:10260000A84228DD002E3EDB002D3CDB504A8B42E9
:1026100039DA844537DA04EB8400C0F39C010A20E0
:10262000B1FBF0F300FB131000284FEAD40000D0F8
:10263000401C12690BFB09F101FB0022BAF80200F1
:10264000284400B20090BAF80000304403B2394682
:102650000020FEF765FBBDE8FE8F04EB8401C1F3AB
:102660009C020A21B2FBF1F301FB132100294FEA7E
:10267000D40100D0491C00690BFB09F202FB0102E6
:1026800033460095E3E7002E01DA724200E00022B3
:1026900012B20292002D01DA6A4200E0002206EB3B
:1026A00009035B1E12B28B4201DA494600E0891B26
:1026B00009B201912919491E814201DA204600E040
:1026C000401B00B20090D0B23DE00298C7B234E0A7
:1026D00004EB8400C0F39C010A20B1FBF0F200FB84
:1026E000121000284FEAD40000D0401C0BFB09F167
:1026F00048434FEAD80209FB0201154800693844F3
:10270000085C08F00701C84010F0010F06D008EB84
:10271000050002B2B81901B2012309E00D480078A2
:10272000022808D108EB050002B2B81901B2002353
:102730005046FFF727FF7F1CFFB201988742C7DB97
:1027400008F10100C0B2009980468842BDDB82E7F3
:1027500010010020150000202DE9F0470F468146AA
:102760001D4690460C211048FEF7E8F90E4C0F4E1E
:102770000CE0424639464846FFF720FF7069007872
:10278000384407B22088401C20806D1C2B78002B19
:10279000EFD170690178A1714078E07120884843D9
:1027A000A0800148BDE8F0879606002010010020B7
:1027B000064810B5002141740121817400F04AF8E7
:1027C000BDE8104001210248FFF76ABB3C00002031
:1027D000DC05002010B504460748007A00280AD01E
:1027E0002046FFF753FD2046FEF720FC2046BDE8BB
:1027F0001040FFF773BB10BD10000020002808D068
:102800000279D30703D142F00102016002718068AE
:10281000F4E77047FEE7F0B50446002901DA4A42C2
:1028200000E00A4696B200280AD00025CF0F0DE03E
:1028300001223946FFF7D2FD08B1A04201D120465E
:10284000F0BD817A012901D16D1CADB2B542EFD343
:10285000F0BD000070B5594C002210212046FEF753
:1028600023FD012240212046FEF71EFD6420FEF7D5
:1028700019FC002240212046FEF716FD6420FEF7D9
:1028800011FC012240212046FEF70EFD0021AE2062
:1028900000F0ACF80021084600F0A8F80021102054
:1028A00000F0A4F80021402000F0A0F800218120D1
:1028B00000F09CF80021CF2000F098F80021A12022
:1028C00000F094F80021C82000F090F80021A62024
:1028D00000F08CF80021A82000F088F800213F20AB
:1028E00000F084F80021D32000F080F80021084691
:1028F00000F07CF80021D52000F078F8002180203D
:1029000000F074F80021D92000F070F80021F120C7
:1029100000F06CF80021DA2000F068F800211220A5
:1029200000F064F80021DB2000F060F80021402076
:1029300000F05CF80021202000F058F80021084643
:1029400000F054F800218D2000F050F800211420F0
:1029500000F04CF80021A42000F048F80021A62047
:1029600000F044F80021AF2000F040F80021AF2033
:1029700000F03CF85FF0000404F1B000C0B20021A8
:1029800000F034F80021084600F030F80021102053
:1029900000F02CF800250121002000F027F86D1C24
:1029A000EDB2802DF7D3641CE4B2082CE4D3BDE86B
:1029B00070400021084600F003B800000008014004
:1029C00010B50446B031C8B2002100F00FF8102055
:1029D00040EA1410002100F009F804F00F00BDE8EF
:1029E000104040F001000021AFF3008013B50B4C04
:1029F00009B1012200E0002201212046FEF754FC2B
:102A00004FF0FF33012269460548FEF7C5FF01225A
:102A100011462046FEF748FC1CBD0000000C01409A
:102A20003C010020704700002DE9F05F9946DDF879
:102A300028A01646834621B10F7891F80180002422
:102A400038E0377896F80180961CF8E700252DE0ED
:102A5000E00878437119405C04F00701C84010F0A9
:102A6000010F10D0BBF1000F04EB0A0005D002B239
:102A700005EB090001B2012313E001B205EB0900E7
:102A800000B201221FE01148007802280CD1BBF1EE
:102A9000000F04EB0A0011D002B205EB090001B2ED
:102AA00000235846FFF76EFD6D1CEDB2BD42CFD33B
:102AB000641CE4B24445C9D3BDE8F09F01B205EB04
:102AC000090000B2002201F0FBF8EDE7150000203C
:102AD00004480178002903D003490161891E41613E
:102AE00070470000100100201C3D0008F8B5154695
:102AF0000E460B46009204460122022100F010F817
:102B000040B93346002280212046009500F008F8A5
:102B1000002804D0606D40F0200060650320F8BDFF
:102B20002DE9F8431E46914688460446089DFEF767
:102B3000C1FB401B351AFEF7BDFB07462548006860
:102B4000C0F3CB30684338E0701C37D0FEF7B2FBDF
:102B5000C01BA84203D215B1009860B32CE02068D6
:102B6000416821F0E00141606068B0F5827F0BD1DF
:102B7000A068B0F5004F02D0B0F5806F04D1206896
:102B8000016821F040010160A06AB0F5005F09D141
:102B90002068016821F4005101602068016841F457
:102BA00000510160012084F85100002084F8500099
:102BB0000320BDE8F8830025401E0090206881684E
:102BC00038EA010004D000214945BDD10020F0E7DA
:102BD0000121F9E70C0000207047000070B50028C3
:102BE000049E14D00A4DAC6814B9A86004E02C46C9
:102BF000A568002DFBD1A060002401258460C57567
:102C00008475C0E9004102754475C0E9033670BDA2
:102C1000B40000202DE9F0471E46DDE909A5DDF8E6
:102C2000209017468846040021D03421FDF786FF06
:102C3000002345B12846FEF7D6F9C460206100891B
:102C4000401C208102E0012020812361A4F8008043
:102C50006780A680A4F8069084F80AA0E372E36077
:102C60006361A361E361A384E38420462362BDE83A
:102C7000F08700002DE9F84FDFF850810346D8F8BF
:102C80001C00FEF7B0F98346D8F82000FFF7C1FB1F
:102C900082461846FEF79FF981461846FEF7A3F9CB
:102CA00000901846FFF7A9FB05461846FFF7B1FB51
:102CB0000746D8F81C00002658B94846C8F81C90AA
:102CC000FEF791F983462846C8F82050FFF7A1FB8C
:102CD0008246D8F81C404C454CD000BF94F82400E4
:102CE000400706D5E08C40F00400E084E16920460E
:102CF0008847D8F82000844201D1012600E056B16F
:102D000094F82400C00606D5E08C40F01000E08462
:102D1000E16920468847544500D100265C4501D032
:102D2000E468DBE74FEA090494F82400800706D53D
:102D3000E08C40F00200E084E16920468847AC4224
:102D400001D1012600E056B194F82400000706D511
:102D5000E08C40F00800E084E16920468847BC42EE
:102D600000D100260098844201D0E468DCE7C8F86E
:102D70001C9022E0D8F82040AC4224D094F82400E3
:102D8000C00606D5E08C40F01000E084E1692046E2
:102D90008847544501D0E468F0E72C4694F82400B5
:102DA000000706D5E08C40F00800E084E169204689
:102DB0008847BC4201D0E468F0E7C8F82050BDE87D
:102DC000F84FFDF7AFBEBDE8F88F000010000020FF
:102DD00010B5184C0023A4F12C02D4E90001814263
:102DE00000D0D3716060117999B1517811700129C7
:102DF00015D0022916D0032919D0042916D1FEF7BF
:102E0000EAF88069002811D0817A01290ED1537027
:102E10000BE00848BDE81040283800F00DB84FF02E
:102E2000FF3100E00121FFF7F6FC206010BD406992
:102E3000E8E700003C000020044A0021D31C117088
:102E4000984201D19170517070470000100000202D
:102E50002DE9F04105460746002634460C211E4860
:102E6000FDF76CFE01E0761CB6B217F8010B0028E6
:102E7000F9D11A494A69184914E02B5C7F2B07D90C
:102E80004B88401C5B1C103480B24B80A4B207E01E
:102E90000A2B17D0137823449CB20B885B1C0B8041
:102EA000401C80B2B042E8D3107888715078C87165
:102EB0001020087248728888A04200D28C80064890
:102EC000BDE8F0818B7A5B1C8B728B88A34200D2A9
:102ED0008C800024E1E70000C606002010010020DD
:102EE000FEF7EEB930B58FB028216846FDF731F90D
:102EF00014210AA8FDF72DF901210804CDE90010DD
:102F00000024029402250491CDE907504FF4E0100B
:102F100009906846FEF728FB08B172B6FEE70F205D
:102F2000CDE90A054FF48060CDE90C4002210AA8E2
:102F30000E94FEF75DFA002801D072B6FEE70FB0DE
:102F400030BD70470148FEF70CBF0000940100201F
:102F5000F0B50268194B1A4C1A4D4FF08047984251
:102F600005D0B84203D0A04201D0A84203D122F03C
:102F700070064A683243984205D0B84203D0A04256
:102F800001D0A84203D122F44074CA6822434C699C
:102F900022F08002224302608A68C2620A6882626A
:102FA000984201D109690163012141610169C907A1
:102FB00003D0016921F001010161F0BD002C014045
:102FC000000400400008004010B5846842EA032273
:102FD00024F47F440A432243826010BD826822F0B9
:102FE00070020A4342F007018160704710B5036A1E
:102FF000046A24F001040462846924F0F00444EAC1
:10300000021423F00A020A438461026210BD10B563
:10301000036A046A24F010040462846923F0A003A4
:1030200024F4704444EA023243EA011182610162ED
:1030300010BD2DE9F04190460A460446414610462F
:10304000FDF7E4F805462168FDF7E6F80646A08995
:10305000FDF7A5FA3146FDF7C1FAA08902D2FDF7C6
:103060009EFA0CE04042FDF791FA3146FDF7C0FAB6
:1030700004D2A0894042FDF789FA00E030460646B6
:1030800029466069FDF770F807466061A089FDF781
:1030900086FA3946FDF7A2FAA08902D2FDF77FFA37
:1030A0000CE04042FDF772FA6169FDF7A1FA04D223
:1030B000A0894042FDF76AFA00E060696061284635
:1030C0002169FDF7A3F807462561A089FDF767FA96
:1030D0003946FDF783FAA08902D2FDF760FA0CE0C9
:1030E0004042FDF753FA3946FDF782FA04D2A0892F
:1030F0004042FDF74BFA00E03846A168FDF78CF836
:10310000054661686069FDF787F83146FDF72CF8E0
:103110002946FDF729F80546A089FDF740FA29461A
:10312000FDF75CFAA08902D2FDF739FA0CE04042C3
:10313000FDF72CFA2946FDF75BFA04D2A08940423C
:10314000FDF724FA00E0284601464046BDE8F0417C
:10315000FDF70AB8FEE7000010B57F2818DA40290D
:1031600016DA002814DB002912DBCB1701EB5374AD
:10317000E31024F0070400EBC3100C1B054B0121E6
:10318000A140002A1A5C01D00A4300E08A431A5485
:1031900010BD0000DC0100207CB5491E1C46154610
:1031A000CDE90001044B6A462146284600F0D8F8D4
:1031B000009A002111707CBD8F3A00080907090EA2
:1031C000002804DB00F1E02080F80014704700F0D4
:1031D0000F0000F1E02080F8141D704702E008C8DD
:1031E000121F08C1002AFAD170477047002001E081
:1031F00001C1121F002AFBD1704700002DE9FF5FBB
:10320000DDE90220010DDDF838B0024318D044F6A4
:103210001050A1F2FF3141430D140F98012820D026
:10322000A5EB0B00401C5FEA000A4FF00004474E7C
:10323000DFF81C91A046504616D5CAF1000728E0D9
:103240000F98012443A2012808D0002100980F9B69
:10325000C0E90021C0E90243BDE8FF9F6FEA0B010E
:10326000F4E7CBF10000DEE7074612E0F80707D0ED
:103270002246334640464946FDF7A7F88046894630
:103280002246334610461946FDF79FF804460E467F
:103290007F10002FEAD1DDE90201BAF1000F4246AA
:1032A0004B4602DAFDF791F801E0FDF700F904461C
:1032B0000E460022284BFDF7B9FA03D84FF0FF3035
:1032C000014607E00022254B20463146FCF7D6FF99
:1032D000FDF794FA102409E0002C0ADB0A220023EF
:1032E000FDF7A6F9019B30321A55641E50EA01021F
:1032F000F2D1641C019AC4F1110314440F9A012AFB
:1033000003D0012208430DD10AE0084304D0002075
:103310004FF0110B0F9080E7A3EB0B056D1E0DE036
:103320005B4504DD4FF0000205F1010504E003DA1E
:103330004FF00002A5F10105002AECD000980F998A
:10334000C0E90231C0E9004586E7000000002440E2
:103350000000F03F300000000000F0430000E03FBC
:103360002DE9FF4F95B09B468946064600250FE2A2
:10337000252877D100242746F84A0121059400E04A
:10338000044316F8013F203B01FA03F01042F7D145
:1033900030782A2811D06FF02F033078A0F1300256
:1033A000092A16D8059A44F0020402EB820203EBC4
:1033B00042021044761C0590EFE759F8042B059261
:1033C000002A03DA504244F40054059044F0020409
:1033D000761C30782E2816D116F8010F44F004041C
:1033E0002A280DD06FF02F023078A0F13003092B7E
:1033F00009D807EB870302EB4303C718761CF3E7F2
:1034000059F8047B761C30786C280FD006DC4C28E9
:1034100017D068280DD06A2814D104E0742810D081
:103420007A280FD10DE044F400140AE044F480142B
:1034300001E044F440147278824202D104F5801411
:10344000761C761C307866280BD013DC582877D091
:1034500009DC002875D04528F6D04628F4D0472846
:103460001AD19DE118E0632835D0642879D0652809
:1034700012D195E1702873D008DC6728F1D0692853
:103480006FD06E280DD06F2806D1B5E073282CD0F0
:10349000752875D0782874D05A46179990476D1CB6
:1034A00075E1C4F30250022809D003280DD0D9F8E1
:1034B000001004280DD00D6009F1040967E1D9F866
:1034C0000010EA17C1E90052F6E7D9F800100D80A4
:1034D000F2E70D70F0E719F8041B8DF800100020DA
:1034E0008DF80100EA46012003E059F804AB4FF0E3
:1034F000FF3061074FF0000102D40DE008F1010137
:103500008846B9420FDA8045F8DB1AF8081000291E
:10351000F4D108E008F1010188468142FADB1AF88B
:1035200008100029F6D105985B46A0EB0807214654
:103530003846179A00F094FA284400EB080507E093
:103540004DE029E10DE01AF8010B5A461799904712
:10355000B8F10108F7D25B4621463846179A13E1C5
:1035600042E00A220092C4F302524FF0000A022AFB
:1035700008D059F804CB032A4FEAEC710AD00DE0C9
:1035800029E02AE009F1070121F00702F2E802C16F
:10359000914609E00FFA8CFC4FEAEC71042A03D142
:1035A0004FFA8CFC4FEAEC71002907DA0A46002139
:1035B000DCF1000C61EB02012D2202E0220504D5B2
:1035C0002B228DF80420012203E0E20701D0202203
:1035D000F7E7904659E00A2102E010220DE01021A1
:1035E0004FF0000A00910BE010224FF0000A44F067
:1035F00004040827009203E008224FF0000A00921A
:10360000C4F30252022A05D059F804CB0021032A40
:1036100008D009E009F1070121F00702F2E802C130
:10362000914605E01FFA8CFC042A01D10CF0FF0C36
:103630004FF00008220728D5702806D0009B83F0A1
:10364000100353EA0A0305D00EE040228DF804204F
:10365000012208E05CEA010206D030228DF8042045
:103660008DF8050002229046009B83F0080353EA80
:103670000A030AD15CEA010201D1620705D53022B2
:103680008DF804204FF001087F1E582804D034A084
:1036900003900EA802900DE036A0F9E7534660466D
:1036A000009AFCF7C5FF84460398825C0298401E8E
:1036B000029002705CEA0100F0D1029806A9081A93
:1036C00000F1200A600702D524F4803400E00127CD
:1036D000574502DDA7EB0A0000E0002000EB0A01DD
:1036E000009005984144401A0590E00306D45B46DB
:1036F0002146179A059800F0B3F90544002706E023
:1037000001A85A46C05D179990476D1C7F1C47451C
:10371000F6DBE0030CD55B462146179A059800F0CE
:103720009FF9054404E030205A46179990476D1CD4
:103730000099481E00900029F5DC08E002980299E3
:103740005A460078491C0291179990476D1CBAF1AE
:103750000001AAF1010AF1DC65E10000092801007D
:1037600030313233343536373839616263646566F7
:1037700000000000303132333435363738394142B9
:10378000434445460000000000F058F90544761C0B
:10379000307800287FF4ECAD19B02846BDE8F08FF2
:1037A000620700D4062709F1070222F0070CFCE8A3
:1037B0000223E14603F000485FEA080C02D00FF252
:1037C000702C0DE05FEA045C02D50FF2682C07E074
:1037D0005FEAC47C02D00FF2602C01E0AFF2700C03
:1037E0004FF0FF3823F00043CDF850C065280CD0CF
:1037F00006DC452809D046281DD047283DD13DE0AC
:10380000662818D067287ED138E00021112F01DB0F
:10381000112000E0781CCDE9000106A90EA8FFF7F1
:10382000EDFCDDE90F010E9A03910021009207F1F2
:10383000010A04914DE04FF000400097CDE90110DE
:1038400006A90EA8FFF7DAFCDDE90F0203920E9B32
:1038500011990022DDF80CA00093049211B9791C93
:1038600000EB010AB7EB0A0004D4C0F1FF3007F106
:10387000010A0490AAEB0700019044E0012F00DA4E
:1038800001270021112F01DD112000E03846CDE98C
:10389000000106A90EA8FFF7B1FCDDE90F010E9AA1
:1038A0000391002104910092BA4621070CD4039998
:1038B000514500DA8A46BAF1010F05DD009AAAF1F6
:1038C0000101515C302908D0B84202DA10F1040F2E
:1038D00006DA0121CDE9011015E0AAF10101E9E7BD
:1038E000002805DC049901440491AAEB000102E0E0
:1038F000411C514500DD8A460499401A401C019044
:103900004FF000400290200704D40198504501DB9D
:10391000CDF8048000208DF84F0002980DF14F077C
:10392000B0F1004F25D02B200E9002984FF00208E6
:1039300000280CDA404202902D200E9007E00A2168
:103940000298FCF75FFE3031029007F8011DB8F1D4
:103950000001A8F10108F2DC02980028EFD1791EDD
:103960000E980870307800F0200040F0450007F80D
:10397000020D12A8C01B00F107081498007800B1CE
:10398000012000EB0A01019801EBE0710598414428
:10399000401A401E0590E00306D45B462146179A64
:1039A000059800F05DF805441498007818B15A465F
:1039B000179990476D1CE00324D55B462146179A62
:1039C000059800F04DF805441CE00498002807DB3A
:1039D000DDE90301884203DD0098405C179901E0AE
:1039E000179930205A469047049805F10105401C6C
:1039F00004900198401E019004D12E205A46179938
:103A000090476D1CBAF10001AAF1010ADDDC05E066
:103A100017F8010B5A46179990476D1CB8F1000131
:103A2000A8F10108F4DC5B462146179A0598ABE63D
:103A30002D0000002B000000200000002DE9F041C7
:103A4000044600251E461746880404D405E039467E
:103A50002020B0476D1C641EF9D52846BDE8F081D2
:103A60002DE9F041044600251E469046C80301D5C5
:103A7000302700E02027880404D505E04146384679
:103A8000B0476D1C641EF9D52846BDE8F0814A6830
:103A9000002A06D00A68531C0B6010704868401E4C
:103AA0004860704703490A78002A02D04860002025
:103AB00008707047B400002010B5002808D0054CED
:103AC0002178002904D16168FEF798FE012020705A
:103AD00010BD0000B400002010B500210846FEF71C
:103AE0006FFF012211460848FDF7DEFB07484FF63D
:103AF000FF714FF0FF334088BDE8104001EAC0126B
:103B000003490448FDF748BF000C01403400002081
:103B1000DC0100203C010020B0F9001080290FDA00
:103B2000B0F90220402A0BDA002901DB002A09DA69
:103B300083881944002903DDC0881044002801DC73
:103B40000020704701207047FEF78CBC0FB4F8B519
:103B500014460D4606460AAB64210C48099AFFF745
:103B60001BFB0A48FFF774F94188084800290090B8
:103B70004FF0000322462946304604D0FCF734FFBC
:103B8000F8BC5DF814FBFCF7B9FEF9E7D20600209B
:103B9000FDF79EFBFFF7A6F9FEF718FAFEF760FAAD
:103BA000FEF782FA0448FEF741F800F087F800BFFC
:103BB000FFF7CAFFFCE7000094010020F0B50B30CE
:103BC000154D20F007010024144A0FE003688B42D2
:103BD0000BD38B4205D95E1A43184768C3E90067C7
:103BE00000E04368136002C004E0021D1068002872
:103BF000ECD12046002802D1286808B10020F0BD91
:103C0000064A07481060074A121A22F00702C0E964
:103C1000002401202860D7E738010020340100206B
:103C20003C07002038090020054A08B511784B1CD4
:103C300013700022009103A31146FFF787FF08BD10
:103C40000C010020D7CCC9FA3132332025640000A2
:103C50000146002000E0401C0A5C002AFBD17047AE
:103C600030B5CA1701EB5274E3100022002810DBB4
:103C700000290EDB05467F280BDA402909DA064ABF
:103C800005EBC310105C24F00702891AC84000F04D
:103C90000102104630BD0000DC010020064810B5CE
:103CA000446906E0207A18B12068C16901B18847EB
:103CB0006468002CF6D110BD10000020FEF764BB34
:103CC00070B505460B480C46007868B101280AD04B
:103CD000032809D12846FFF7C3FF10B1002221466F
:103CE00002E00122FBE700222846BDE87040FFF712
:103CF00033BA000015000020010202030405060784
:103D000008090A0B0C0D0E0F101000000000000037
:103D10000000010203040607080908100000000063
:103D2000000000000000000000000000000000F89B
:103D300000000000000000333000000000100C06FE
:103D4000100C0600000000000000000040C0784099
:103D5000C0784000043F04043F040400007088FC65
:103D600008300000001820FF211E0000F008F000BD
:103D7000E018000000211C031E211E0000F008882E
:103D8000700000001E2123241927211010160E0098
:103D9000000000000000000000000000000000E043
:103DA0001804020000000007182040000002041858
:103DB000E00000000040201807000000404080F0B4
:103DC000804040000202010F01020200000000F0EA
:103DD000000000000101011F0101010000000000BE
:103DE0000000000080B07000000000000000000033
:103DF00000000000000101010101010100000000BC
:103E00000000000000303000000000000000000052
:103E100080601804006018060100000000E010082F
:103E20000810E000000F102020100F00001010F804
:103E3000000000000020203F202000000070080843
:103E400008887000003028242221300000300888C3
:103E5000884830000018202020110E000000C020EB
:103E600010F8000000070424243F240000F808880C
:103E7000880808000019212020110E0000E0108899
:103E800088180000000F112020110E0000380808CB
:103E9000C83808000000003F0000000000708808DB
:103EA00008887000001C222121221C0000E010085C
:103EB0000810E0000000312222110F00000000C0B5
:103EC000C000000000000030300000000000008052
:103ED0000000000000008060000000000000804042
:103EE000201008000001020408102000404040405B
:103EF00040404000040404040404040000081020AE
:103F000040800000002010080402010000704808F2
:103F10000808F0000000003036010000C030C8285A
:103F2000E810E0000718272423140B000000C03815
:103F3000E0000000203C23020227382008F888888F
:103F400088700000203F202020110E00C03008089B
:103F500008083800071820202010080008F8080872
:103F60000810E000203F202020100F0008F888886B
:103F7000E8081000203F20202320180008F8888837
:103F8000E8081000203F200003000000C0300808AF
:103F90000838000007182020221E020008F8080038
:103FA0000008F808203F210101213F20000808F8FF
:103FB000080800000020203F202000000000080822
:103FC000F8080800C08080807F00000008F888C0E2
:103FD00028180800203F20012638200008F8080093
:103FE00000000000203F20202020300008F8F800CA
:103FF000F8F80800203F003F003F200008F830C0DC
:104000000008F808203F200007183F00E0100808CB
:104010000810E0000F10202020100F0008F80808FA
:104020000808F000203F210101010000E01008080D
:104030000810E0000F18242438504F0008F8888832
:1040400088887000203F2000030C30200070880812
:10405000080838000038202121221C00180808F820
:10406000080818000000203F2000000008F80800A1
:104070000008F808001F202020201F000878880072
:1040800000C83808000007380E010000F80800F8E2
:104090000008F800033C0700073C0300081868808C
:1040A0008068180820302C03032C30200838C80002
:1040B000C83808000000203F200000001008080851
:1040C000C83808002038262120201800000000FEF3
:1040D000020202000000007F40404000000C30C09F
:1040E00000000000000000010638C00000020202CB
:1040F000FE000000004040407F000000000004027D
:1041000002020400000000000000000000000000A7
:104110000000000080808080808080800002020497
:10412000000000000000000000000000000080808F
:10413000808000000019242222223F2008F80080FD
:1041400080000000003F112020110E0000000080C0
:1041500080800000000E112020201100000000804F
:104160008088F800000E112020103F200000808081
:1041700080800000001F222222221300008080F095
:10418000888888180020203F2020000000008080C0
:1041900080808000006B94949493600008F8008005
:1041A00080800000203F210000203F200080989860
:1041B000000000000020203F2020000000000080C0
:1041C0009898000000C08080807F000008F8000000
:1041D00080808000203F24022D302000000808F855
:1041E000000000000020203F202000008080808010
:1041F00080808000203F20003F20003F80800080A2
:1042000080800000203F210000203F2000008080AF
:1042100080800000001F202020201F008080008060
:104220008000000080FFA12020110E00000000800F
:1042300080808000000E112020A0FF808080800000
:104240008080800020203F2120000100000080802D
:10425000808080000033242424241900008080E022
:10426000808000000000001F2020000080800000EF
:1042700000808000001F202020103F2080808000D0
:104280000080808000010E300806010080800080E0
:10429000008080800F300C030C300F000080800005
:1042A000808080000020312E0E3120008080800030
:1042B0000080808080818E701806010000808080E0
:1042C000808080000021302C22213000000000007E
:1042D000807C020200000000003F4040000000001F
:1042E000FF00000000000000FF0000000002027C50
:1042F000800000000040403F000000000006010177
:10430000020204040000000000000000D7CCC9FA3B
:10431000001060028C0008C8398E0808CC3B880861
:104320000004047E0100635A46E100635A46E1003E
:10433000008040301E101010FF10101010101000E0
:1043400000404042424242427F424242424240405A
:104350000000000074430008000000203C01000041
:1043600080080008C04300083C010020FC0B00004E
:10437000EC3100083201821043127A2A0114011C28
:1043800012801208A924123C121E1240122062034D
:104390001E3F9A99993E04E3BE0F094618B97C69FD
:1043A0002C810A21231885CDCCCC3EE95C411A64CE
:1043B0000281131C3D1B081A044B1C3E08C100005F
:04000005080000ED02
:00000001FF
