:020000040800F2
:10000000780D002005010008D52800081F1F0008F2
:1000100009220008630900082D32000800000000D2
:10002000000000000000000000000000992C000803
:10003000CD0B000800000000E52A0008A12F0008F1
:100040001F0100081F0100081F0100081F01000810
:100050001F0100081F0100081F0100081F01000800
:100060001F0100081F0100081F0100081F010008F0
:100070001F0100081F0100081F0100081F010008E0
:100080001F0100081F0100081F0100081F010008D0
:100090001F0100081F0100081F0100081F010008C0
:1000A0001F010008053000081F0100081F0100089B
:1000B0001F0100081F0100081F0100081F010008A0
:1000C0001F0100081F0100081F0100081F01000890
:1000D0001F0100081F0100081F0100081F01000880
:1000E0001F0100081F0100081F010008DFF810D0E1
:1000F00000F0B6FB00480047893C0008AFF30080E1
:10010000780D00200648804706480047FEE7FEE7D6
:10011000FEE7FEE7FEE7FEE7FEE7FEE7FEE7FEE7B7
:1001200003300008ED000008202A04DB203A21FA01
:1001300002F00021704721FA02F3D040C2F1200200
:100140009140084319467047D2B201E000F8012BF4
:10015000491EFBD270470022F6E710B513460A4647
:1001600004461946FFF7F0FF204610BDF0B480EAC0
:100170000102D40F4200B2EB410F02D20246084600
:1001800011464A0042D0C30DDDB2C1F3C752AD1AC9
:10019000202D35DAC1F3160141F4000204B15242B8
:1001A000C5F1200602FA06F12A411044B3EBD05FF4
:1001B00023D0C4B1012DA0EBC35009DCF0BC4FF03B
:1001C000004202EAC352DBB200F5000000F08DBA33
:1001D000400000F1807000EBC350A0F1807040EA55
:1001E000D170490009E0490841EAC071A0EBC35051
:1001F00000F50000400800EBC350F0BC00F06CBA02
:100200006142012202EB4101001BF6E7F0BC70479E
:1002100081F00041AAE780F00040A7E780EA0102F0
:1002200010B502F00043400022D04A001FD0010E5A
:1002300001EB1261C0F35600C2F3560240F4000015
:1002400042F40002A0FB022000047F39140400D015
:10025000401C50EA124001D44000491EC2B20C06B4
:1002600004EBD010401C4008802A02D003E000209C
:1002700010BD20F00100002900DA0020184310BD55
:100280002DE9FE4F804681EA0300C00F0C46009026
:1002900021F0004123F00045B8EB0200A94105D24E
:1002A0004046214690461C460B46024623F000403D
:1002B000104347D0270DC7F30A00C3F30A51029039
:1002C000401A019040286BDAC3F3130040F4801BFE
:1002D0000098924620B10023D2EB030A63EB0B0B8C
:1002E00001985946C0F14002504600F0D4F9064644
:1002F0000D4650465946019A00F0DCF910EB080013
:100300006141002487EA115284EAE7731A4340D01E
:10031000009A62B3019A012A4FEA075215DC001BCA
:1003200061EB02014FF0004202EA0752CDE90042C0
:10033000001C41F5801132462B4600F013FA03B041
:10034000BDE8F08F40462146F9E7001B61EB020152
:10035000001C41F5801300185B412018A2F500171E
:1003600047EB030140EAD570B6196D4111E06D0805
:100370004FEA360645EAC0754FEA0752001B61EBAB
:100380000201001C41F5801149084FEA30000019B4
:10039000514132462B4603B0BDE8F04F00F0D3B9CF
:1003A0000098012240000023D0EB020263EBE073CF
:1003B000009821464FEAE074B8EB000061EB0401BD
:1003C000E9E783F000435BE781F0004158E72DE95E
:1003D000FE4F81EA030404F0004421F00041009440
:1003E0004FF0000B23F0004350EA01045ED052EAC4
:1003F00003045BD0C3F30A54C1F30A552C44A4F29E
:10040000F3340194A0FB0254C1F3130141F48011B1
:10041000C3F3130343F4801301FB024400FB034EB8
:10042000840A970A44EA815447EA8357A4FB076881
:1004300002958D0A05FB07854FEA932C04FB0C54AB
:100440002705029D4FEA065847EA1637B5EB08051F
:100450006EEB070C870E920E47EA811742EA831271
:10046000A7FB0201B6EB0B0164EB00042B0D43EA82
:100470000C335E1844EB1C50DA465146E7FB020190
:10048000C5F313044FEA0B3343EA14534FEA043223
:10049000019C43EA0603A4F10C040294009CCDE9FC
:1004A00000B400F05FF903B0BDE8F08F0020014612
:1004B000F9E72DE9F04D81EA030404F0004B21F047
:1004C000004514464FF0000A23F0004150EA0502AF
:1004D00020D054EA01021DD0C5F30A570246C5F3E5
:1004E0001303C1F31300C1F30A5640F4801543F41B
:1004F0008013A7EB0608101BD64608F2FD3873EBF5
:10050000050002D308F1010801E092185B41B8F13F
:10051000000F03DA00200146BDE8F08D00204FF403
:100520008011064684460EE0171B73EB050705D3C2
:10053000121B63EB050306434CEA010C49084FEA22
:10054000300092185B4150EA0107EDD152EA0300F6
:1005500012D082EA040083EA0501084305D0101B8B
:10056000AB4106D20122002306E000224FF00043F7
:1005700002E06FF0010253101AEB06004CEB085139
:1005800010EB0A0041EB0B01BDE8F04D00F0DBB8C9
:10059000C10F80EAE0700844CA079623002100F0EA
:1005A000A4B896230022114600F09FB800F0004244
:1005B00020F00040C10DC0F3160040F400007F2978
:1005C00001DA00207047962903DCC1F19601C8408A
:1005D00001E096398840002AF4D04042704700007C
:1005E000002801DBC0F10040002901DBC1F100411E
:1005F00081427047002801DBC0F10040002901DB87
:10060000C1F100418842704730B50B4601460020D9
:100610002022012409E021FA02F59D4205D303FAC4
:1006200002F5491B04FA02F52844151EA2F1010245
:10063000F1DC30BD2DE9F05F0546002092469B4677
:1006400088460646814640241BE0284641464746E8
:100650002246FFF769FD53465A46C01A914110D30E
:1006600011461846224600F016F82D1A67EB0108CD
:100670004F4622460120002100F00DF817EB00093B
:100680004E41201EA4F10104DFDC484631462A46D3
:100690004346BDE8F09F202A04DB203A00FA02F12D
:1006A000002070479140C2F1200320FA03F3194360
:1006B00090407047202A06DBCB17203A41FA02F01F
:1006C00043EAE07306E041FA02F3D040C2F12002AF
:1006D00091400843194670470029A8BF7047401C45
:1006E000490008BF20F00100704710B4B0FA80FC48
:1006F00000FA0CF050EA010404BF10BC704749B185
:10070000CCF1200421FA04F411FA0CF118BF0121F4
:1007100021430843A3EB0C01CB1D4FEA00614FEAD4
:10072000102042BF002010BC704700EBC3501044A3
:100730000029A4BF10BC7047401C490008BF20F02E
:10074000010010BC704710B5141E73F1000408DAE4
:10075000401C41F1000192185B411A4301D120F085
:10076000010010BD2DE9F04D92469B4611B1B1FA42
:1007700081F202E0B0FA80F220329046FFF78BFF60
:1007800004460F4640EA0A0041EA0B0153465A4626
:10079000084313D0114653EA010019D0C8F14002B2
:1007A0005046FFF7C1FC05460E46504659464246A4
:1007B000FFF771FF084305D0012004E020463946C9
:1007C000BDE8F08D0020054346EAE0762C43374330
:1007D0000A986305E40AA0EB08000022FD0A44EA37
:1007E00047540A3002D500200146E9E701051019F7
:1007F0006941DDE9084500196941BDE8F04DA2E70E
:10080000C1F30A52C1F3130140F2FF3341F48011E6
:100810009A4202DA00200146704740F233439A427E
:10082000A2F2334202DC5242FFF77EBCFFF733BF35
:1008300030B5041E71F1000404DB4FF00044404267
:1008400064EB0101141E73F1000405DB1C464FF03C
:100850000043524263EB0403994208BF904230BD0B
:10086000064C074D06E0E06840F0010394E80700FD
:1008700098471034AC42F6D3FFF73CFC084500081B
:100880002845000870B58C1810F8015B15F00703B7
:1008900001D110F8013B2A1106D110F8012B03E019
:1008A00010F8016B01F8016B5B1EF9D12B0705D421
:1008B0000023521E0DD401F8013BFAE710F8013B6A
:1008C000CB1A921C03E013F8015B01F8015B521E86
:1008D000F9D5A142D8D3002070BDF8B507461C4613
:1008E00015460E46182001F003FE002805D02B46C1
:1008F00032463946009402F0D1F9F8BD10B50346EE
:10090000006809B110B104E0002010BD196004E0D6
:1009100018464368002BFBD141600120087200207B
:10092000C1E90020084610BD024600F12801014837
:10093000FFF7E4BF2400002070B50E4604000ED07F
:10094000F00709D01546042001F0D2FD206218B14D
:1009500000210180206A4580A08C3043A08470BDB6
:100960007047FEE72DE9FF5F0024DDF838B09A46B6
:100970002746A046A1465E4625460C21324800F097
:100980001DF901E06D1CADB216F8010B0028F9D17C
:10099000BAF1000F37D14FF6FF7A34E01BF8073079
:1009A0006D1E7F1CADB2BFB20A2B3DD02748029905
:1009B0004069467809FB0611067801980AB208FBDF
:1009C000060001B2009801F059FE08F101001FFA7B
:1009D00080F8D0450ED309F101001FFA80F91A48BA
:1009E0004FF00008817A491C81728188A14200D2AF
:1009F0008480002414480188491C01801348406900
:100A00000078204484B2002DC8D1104841690E48B6
:100A10000A7882714978C1718188A14200D28480AC
:100A200004B00948BDE8F09F09F101001FFA80F900
:100A300005484FF00008817A491C81728188A142E3
:100A400000D284800024DEE7DE06002018010020AA
:100A50002DE9FF4F83B04B48002500954069DDF834
:100A600040A09B4640782F46A846A94654461028E9
:100A700000D21020019000260C21434800F09EF87F
:100A800001E0761CB6B214F8010B0028F9D13E4CF7
:100A9000BBF1000F41D14FF6FF7B3EE0761E1AF806
:100AA0000700B6B28DF800007F280CD90AEB0701C9
:100AB000BF1C49788DF80110761E6188BFB2491CB1
:100AC000B6B2618001E07F1CBFB20A2817D07F2830
:100AD00036D9059A01996B4609FB012002B20498A8
:100AE000404401B2039801F093FB00208DF801000F
:100AF00008F1100010351FFA80F8ADB23FE009F19F
:100B000001001FFA80F9A07A4FF00008401CA07283
:100B1000A088A84200D2A5800025002EBED1194889
:100B200040690178A1714078E071102020726072F4
:100B3000A088A84200D2A58007B01348BDE8F08F76
:100B400010486B4640694078C0F1100105980A18BA
:100B5000019909FB012002B20498404401B20398B4
:100B600001F05AFE07484069027802EB08011FFABB
:100B700081F82188491C21800078284485B2D84515
:100B8000CBD3BCE718010020F6060020017A01292A
:100B900001D00020704700210172012070472830E9
:100BA000FFF7F4BF0020044B4FF4806102461A5453
:100BB000401C8842FBD37047E4010020002201E082
:100BC00000F8012B491E89B2FAD27047704770B500
:100BD0008E18002900DA00210C4605B205E001223A
:100BE00021B2284603F03AF9641CB442F7DB70BD29
:100BF0002DE9FF5F8146500001278846C2F10106BA
:100C0000C0F1000B00251446DDF838A03AE0002EB4
:100C100003DB0BF1020B5E44641EBF1C03986D1CCA
:100C20003E44C00715D00AEB4400401CC2B2A8EBFA
:100C3000040109EB0500FFF7CAFFA54209DA0AEB38
:100C40004500401CC2B2A8EB050109EB0400FFF708
:100C5000BEFF0398800715D50AEB4400401CC2B2C2
:100C6000A8EB0401A9EB0500FFF7B1FFA54209DAE3
:100C70000AEB4500401CC2B2A8EB0501A9EB040039
:100C8000FFF7A5FFA542C2DBBDE8FF9F2DE9F041BC
:100C90001C4616460D46074608E02819401E01B2BC
:100CA0003246384600F0C6F9641EA4B2002CF4D1D6
:100CB000BDE8F0812DE9F84F05680446067CA88858
:100CC00000281BD0E888002818D0607C012817D0A5
:100CD000B5F90080B5F90290B5F90470B5F90600D0
:100CE000A4F80880A4F80A90A781E0812674C3B212
:100CF0004946FAB24046009600F068F8BDE8F88F21
:100D0000B4F90A00FFF744FC0746B5F90200FFF703
:100D10003FFC01463A46214802F0EBF9FFF746FC5A
:100D20000FFA80F9B4F90800FFF732FC0746B5F96D
:100D30000000FFF72DFC014618483A46183002F033
:100D4000D8F9FFF733FC0FFA80F8A089FFF729FCE8
:100D50000746A888FFF725FC014610483A46303080
:100D600002F0C7F9FFF722FC07B2E089FFF719FC90
:100D70008246E888FFF715FC01460848524648308D
:100D800002F0B7F9FFF712FC00B2B0EB460F00DA41
:100D90007000B7EB460FA3DA7700A1E75000002000
:100DA00038B5049D18B1009501F09EFE38BD10467F
:100DB0001C4639B10B78497800912A46214600F04B
:100DC00039F838BD03784178901CF5E72DE9F84FE4
:100DD0001D460A9C16008A46814626D0002D24D046
:100DE000C4F1000806EB480082B209EB040738B2F0
:100DF0000FFA8AF1FFF74AFF05EB4800A0F101085E
:100E000009EB06000AEB0405001B012322462946D4
:100E1000401ECDF80080FFF7EBFE2946384602233E
:100E20002246CDF80080FFF7E3FEBDE8F88F72B6EA
:100E3000FEE700002DE9F84F8346C8180A9C0FFA18
:100E400080FC101907B2D01702EB507424F0070091
:100E5000161A002A08DA06F10800C51700EB5575C6
:100E600025F00705401B00E03046C5B20020BCF16C
:100E7000000F6FDB002F6DDB80296BDA402A69DA07
:100E80003F2F00DD3F27DFF8A4A14FF0FF0E12F146
:100E9000080F04DCE21003FB120080B23246C0E00F
:100EA0000C4602F10809B7E0002C03DA001B80B2FF
:100EB000002406E07F2C04DBACEB0402104480B27B
:100EC000ADE05B4B1B78022B4FD0032B21D0002AC7
:100ED0000CDBD31004EBC3131BF800801AF803607B
:100EE00008FA05F846EA08060AF80360B9F13F0F68
:100EF0002FDC75B31BF80060002AC5F1080326FA41
:100F000003F67ADA1AF8048046EA08060AF804605A
:100F10007EE0002A0CDBD31004EBC3131BF8008027
:100F20001AF8036008FA05F886EA08060AF803606A
:100F3000B9F13F0F6CDC65B11BF80060002AC5F108
:100F4000080326FA03F606DA1AF8048086EA080689
:100F5000DCE751E068E0D31004EBC31808EB0A03A8
:100F600093F8808086EA080650E0002A14DBD3104C
:100F700004EBC31600961AF80630C5F108082EFADD
:100F800008F63340009E0AF806301BF80060AE40B9
:100F90003343009E0AF80630B9F13F0F38DC5DB3E9
:100FA000002A10DA1AF804600EFA05F31E400AF857
:100FB00004601BF80030C5F1080823FA08F3334336
:100FC0000AF8043024E0D31004EBC31606EB0A033E
:100FD0000EFA05F693F8808008EA060883F8808008
:100FE000CDF800801BF80060C5F1080826FA08F665
:100FF000DDF8008008E000E00AE0D31004EBC3183D
:1010000008EB0A0393F8808046EA080683F88060BC
:10101000641C401C24B280B26445FFF645AF0FFA51
:1010200089F2BA42FFF63CAFBDE8F88FE401002038
:101030001500002070B514460E46054608E0281934
:10104000401E00B20122314602F008FF641EA4B225
:10105000002CF4D170BD002804D00189012901D0F1
:101060000069FAE77047002807D0C168002904D05A
:101070000A89012A01D00846F7E7704770B50A4887
:101080004178846801290DD10025457008E0A07DD4
:10109000012804D1A575E16809B120698847A468D1
:1010A000002CF4D170BD0000B40000202DE9F04107
:1010B0000746144801260025846846701EE0E07D3E
:1010C00001281AD12068384420606168884214D30E
:1010D0002560607D012803D9A0F10100607501E061
:1010E00000D1E575207D012801D028B105E0E16837
:1010F00019B12069884700E0A675A468002CDED1EC
:10110000BDE8F081B4000020037A012B01D000205B
:101110007047C3790B7041791170002141710172E0
:101120000120704770B5044600F004F90546601CC4
:1011300002D004480078044400F0FCF8401BA042B0
:10114000FAD370BD000000202DE9F84FDFF8B89108
:101150000024A9F1040B23460F2709F1040AABF17F
:10116000040EC9E00125A5402A40AA427DD1674E60
:10117000D1F804C0ACEB0608B44532D014DCBCF1A5
:10118000030F3AD009DCBCF1000F2AD0BCF1010FEB
:101190001CD0BCF1020F31D11DE0BCF1110F17D0F2
:1011A000BCF1120F2AD119E0B8F5881F19D006DC5E
:1011B000B8F5803F15D0B8F5801F1FD111E0B8F504
:1011C000001F0ED0B8F5041F18D10AE0CB6815E057
:1011D000CB681B1D12E0CB6808330FE0CB680C33E3
:1011E0000CE08B682BB1012B4FF0080303D0456155
:1011F00004E0042302E0056100E00023FF2A01D897
:10120000064601E000F104064FEA840501D9A5F184
:101210002005D6F8008007FA05FC28EA0C0803FA36
:1012200005F548EA0508C6F800804D68ED0062D56E
:10123000374DAE6946F00106AE61AD6924F0030694
:1012400005F001050095334D06EB050CDCF8085060
:10125000A607360F07FA06F825EA0805DFF8B88072
:10126000404503D14FF0000817E044E0DFF8AC80C0
:10127000404502D14FF001080FE0DFF8A48040455F
:1012800002D14FF0020808E0DFF89880404502D113
:101290004FF0030801E04FF0040808FA06F848EAA6
:1012A0000508CCF808804D68D9F80060ED024D467D
:1012B00001D5164300E096432E604D68DAF80060D1
:1012C000AD02554601D5164300E096432E604D68A9
:1012D000DBF80060AD035D4601D5164300E09643A0
:1012E0002E604D68DEF80060ED03754601D51643AB
:1012F00000E096432E60641C0D682A46E5407FF4AA
:1013000031AFBDE8F88F0000080401400000111063
:10131000001002400000014000080140000C0140A4
:1013200000100140001401400AB101617047090436
:10133000FBE70000014880687047000000000020C3
:1013400002488168027811448160704700000020E3
:10135000074810B5016841F010010160032000F05A
:1013600075F80F2000F006F800F024F8002010BDFA
:101370000020024070B50D4D04464FF47A71287874
:10138000B1FBF0F00A490968B1FBF0F000F0F7FB9F
:1013900048B9102C07D200222146501E00F036F822
:1013A00000206C6070BD012070BD000000000020B6
:1013B0000C0000200C4808B5816941F001018161F1
:1013C000816901F001010091C16941F08051C16161
:1013D000C06900F0805000900448416821F0E0614D
:1013E00041F00071416008BD001002400000014062
:1013F000002809DB00F01F02012191404009800014
:1014000000F1E020C0F8001170470000F0B40E4B6E
:101410001B680C46C3F30223C3F10705042D00D952
:101420000425191D072901D2002300E0DB1E012637
:1014300006FA05F1491E214099409E40761E16404D
:101440003143F0BC01F02EBF0CED00E0064900F086
:10145000070208684FF6FF03184040EA0220034ADB
:1014600010430860704700000CED00E00000FA0532
:101470002DE9F0470F46050061D0434E306800F07B
:101480000700B84209D2306820F0070038433060C6
:10149000306800F00700B84251D128683B4C810702
:1014A00012D5400703D5606840F4E060606028789A
:1014B000000703D5606840F4605060606068A96808
:1014C00020F0F000084360602878C00728D06868E2
:1014D000012810D02168022810D0890700292EDAAF
:1014E000616821F0030101436160FFF723FF80463B
:1014F00041F288390DE021688903EFE78901EDE7C2
:10150000FFF718FFA0EB0801494502D90320BDE809
:10151000F0876068696800F00C00B0EB810FEFD1D4
:10152000306800F00700B8420BD9306820F007009F
:1015300038433060306800F00700B84201D0012025
:10154000E5E72878400705D56068E96820F4E060A1
:10155000084360602878000706D56068296920F490
:10156000605040EAC100606000F018F86168084A05
:10157000C1F30311515CC840064908600648006881
:10158000FFF7F8FE0020C2E70020024000100240F2
:10159000A63E00080C000020040000200E4A5168FE
:1015A0000E4801F00C03042B11D0082B0FD10C486E
:1015B000C1F38343C903C05C0AD55168084AC1F32B
:1015C0004041921E515C054A5043B0FBF1F0704718
:1015D00004494843704700000010024000127A009E
:1015E000963E000800093D002DE9F84F040070D038
:1015F0002078C04DC00749D06868C0F38100012839
:1016000007D06868C0F38100022809D16868C00368
:1016100006D52868800339D560680028E7D035E012
:101620006068B0F5803F0BD010B1B0F5A02F11D09D
:10163000286820F480302860286820F4802002E0A8
:10164000286840F480302860606890B1FFF772FE2F
:1016500006460AE0286840F480202860F0E700BFD2
:10166000FFF768FE801B642873D828688003F7D5CD
:101670000CE0FFF75FFE064605E000BFFFF75AFEED
:10168000801B6428F0D828688003F7D420789A4E0D
:1016900080074FF001094FF0000839D5686810F055
:1016A0000C0F07D06868C0F38100022809D1686870
:1016B000C00306D42868800714D52069012808D102
:1016C00010E02069B0B1C6F80090FFF733FE07467E
:1016D00005E00AE1FFF72EFEC01B0228C4D82868E7
:1016E0008007F7D52868616920F0F80040EAC1005A
:1016F00028600DE0C6F80080FFF71CFE074604E0F6
:10170000FFF718FEC01B022823D828688007F7D4EB
:10171000207800072CD57948A169D9B1C0F800908C
:10172000FFF708FE074604E0FFF704FEC01B02288F
:101730000FD8686A8007F7D571484FF4FA510068EE
:10174000B0FBF1F0009000BF0098411E0091FAD26A
:101750000EE080E0C0F80080FFF7ECFD074604E0F3
:10176000FFF7E8FDC01B022875D8686A8007F7D428
:101770002078400760D5E8690027C00008D4E869F0
:1017800040F08050E861E869012700F08050009047
:101790005C480168C90513D40168834641F480712F
:1017A0000160FFF7C7FD824606E000BFFFF7C2FDFC
:1017B000A0EB0A0064284ED8DBF80000C005F5D580
:1017C000E06801280AD008B1052813D0286A20F063
:1017D00001002862286A20F0040002E0286A40F034
:1017E00001002862E06841F2883B98B1FFF7A2FD52
:1017F00082460BE0286A40F004002862EEE700BF52
:10180000FFF798FDA0EB0A0159455AD8286A8007CE
:10181000F6D50CE0FFF78EFD824605E0FFF78AFD66
:10182000A0EB0A0159454CD8286A8007F6D41FB1AD
:10183000E86920F08050E861E06988B36968C1F325
:101840008101022944D00228C6F8608004D0FFF745
:1018500071FD044638E034E0FFF76CFD074604E014
:10186000FFF768FDC01B02282BD828688001F7D439
:10187000206AB0F5803F05D16868A16820F4003087
:1018800008436860D4E908010843696821F47411C9
:1018900008436860C6F86090FFF74CFD044606E018
:1018A00025E000BFFFF746FD001B022809D8286885
:1018B0008001F7D51BE000BFFFF73CFD001B0228AD
:1018C00002D90320BDE8F88F28688001F4D40EE027
:1018D0000128F7D06868226A00F48031914204D16F
:1018E000616A00F47010884201D00120EAE700200C
:1018F000E8E700000010024000004242800442423B
:101900000C0000200070004070B5040009D0606A2F
:10191000002540B125616561A56294F8510040B190
:101920000CE0012070BD6068B0F5827FF4D0E56105
:10193000F2E784F85050204600F040F8022084F886
:1019400051002068016821F040010160A0882189D0
:1019500000F4827001F404410843A18901F400619C
:101960000843217C01F002010843217D01F00101BF
:101970000843218B01F400710843217F01F03801F5
:10198000084394F8201001F080010843218D01F4F0
:101990000051084321680860A069042101EA104051
:1019A000216848602068C16921F40061C1616565F2
:1019B000012084F85100002070BD000000B585B002
:1019C0000021009101910291039100680F49884222
:1019D0001AD10F48816941F480518161816901F414
:1019E00080510491816941F00401816180696946F7
:1019F00000F004000490A020009002200190032039
:101A000003900448FFF7A0FB05B000BD0030014083
:101A100000100240000801402DE9F84F9846164694
:101A20008A460446FFF786FC814694F85100012857
:101A30001ED1BAF1000F73D0002E71D094F850006F
:101A4000012815D0012784F85070032084F8510034
:101A500000256565C4F830A0A686E686A563A5873F
:101A6000E58765642564A068B0F5004F03D00CE0FD
:101A70000220BDE8F88F2068016821F04001016074
:101A80002068016841F480410160206801684906CE
:101A900003D4016841F040010160E068B0F5006FD7
:101AA000606803D048B3012E27D047E008B1012E6B
:101AB0001FD1206B21680088C86006E0206881681B
:101AC000890709D5216B0988C160206B801C2063C0
:101AD000E08E401EE0860CE0FFF72CFCA0EB090135
:101AE000414503D3B8F1FF3F03D035E0B8F1000F13
:101AF00032D0E08E0028E1D123E0206B216800780D
:101B0000087306E02068816889070AD5216B097887
:101B10000173206B401C2063E08E401EE0860DE0C8
:101B20002BE0FFF707FCA0EB0901414503D3B8F117
:101B3000FF3F03D010E0B8F1000F0DD0E08E002879
:101B4000E0D14A464146204601F030F808B1202055
:101B50006065A06830B109E084F8517084F8505095
:101B6000032086E72068C1688068009084F851707F
:101B700004F8505F60680028F3D0012079E710B5C1
:101B8000401EB0F1807F01D3012010BD4FF0E02452
:101B900060610F21601701F085FB0020A061072024
:101BA0002061002010BD70477047000070B590F8AC
:101BB0003C20012A26D0012480F83C40022280F8F3
:101BC0003D2003685A689D6822F070060A68324317
:101BD0005A600D4B02689A4208D0B2F1804F05D08E
:101BE0000A4B9A4202D00A4B9A4204D1496825F026
:101BF00080031943916080F83D40002180F83C103B
:101C0000084670BD022070BD002C01400004004059
:101C10000008004010B5040003D094F83D0010B156
:101C200007E0012010BD002084F83C00204600F0B1
:101C30001FF8022084F83D00211D206801F0E8F91A
:101C4000012084F8460084F83E0084F83F0084F8C0
:101C5000400084F8410084F8420084F8430084F88E
:101C6000440084F8450084F83D00002010BD0000C9
:101C700008B500680B49884212D10B48816941F4CC
:101C8000006181618069002200F4006000901146CB
:101C90001920FFF7BBFBBDE808401920FFF7A8BBE0
:101CA00008BD0000002C01400010024090F83D10DB
:101CB000012901D001207047022180F83D10016800
:101CC000CA6842F00102CA6000680B49884208D025
:101CD000B0F1804F05D00949884202D008498842B6
:101CE00004D1816801F00701062903D0016841F0A1
:101CF0000101016000207047002C014000040040F9
:101D00000008004070B5044690F83C00002501280A
:101D100017D0012684F83C60022084F83D0020683A
:101D2000826822F0770222F47F428260086850289D
:101D300038D00DDC20284FD005DC90B3102811D10D
:101D40004AE0022070BD302846D040280AD13BE04E
:101D500060282FD070280DD0B0F5805F03D0B0F58B
:101D6000005F12D0012584F83D60002084F83C001B
:101D7000284670BDCB68D1E90121206801F084F9C3
:101D80002068816841F0770109E0CB68D1E9012141
:101D9000206801F079F92068816841F48041816010
:101DA000E1E719E0CA684968206801F07FF950212D
:101DB000206806E0CA684968206801F088F9602157
:101DC000206801F06BF9CEE7CA684968206801F025
:101DD0006DF940212068F4E7226801461046F0E7DB
:101DE00070472DE9F04104460068C66805694FF068
:101DF0000007A90713D5B10711D5F91E016101200C
:101E00002077206880698007204602D0FFF7E8FF2E
:101E100004E000F07EF8204600F07CF827776807A1
:101E200016D5700714D521686FF0040008610220F0
:101E300020772068806910F4407F204602D0FFF7A9
:101E4000CFFF04E000F065F8204600F063F8277744
:101E5000280715D5300713D521686FF008000861F1
:101E6000042020772068C0698007204602D0FFF751
:101E7000B7FF04E000F04DF8204600F04BF827775C
:101E8000E80616D5F00614D521686FF01000086139
:101E9000082020772068C06910F4407F204602D0D7
:101EA000FFF79EFF04E000F034F8204600F032F81F
:101EB0002777E80708D0F00706D021686FF0010007
:101EC0000861204600F027F8280608D5300606D518
:101ED00021686FF0800008612046FFF764FE680605
:101EE00008D5700606D521686FF0400008612046CD
:101EF00000F014F8A8060AD5B00608D521686FF0DE
:101F0000200008612046BDE8F041FFF74DBEBDE866
:101F1000F08170477047012000F0BCBC7047FEE7BD
:101F20000D4BDA6812B9D86004E01A46D368002B6A
:101F3000FBD1D060017061B1002141704FF4967106
:101F400041800021017141718171C1710172C160D3
:101F500070470121F1E70000B400002070B520496E
:101F600000224FF49675C968012336E00C7A012CE3
:101F700032D04C780E78B44220D14C88844207D9B4
:101F8000241A2404240C4C800DD00C7914B107E0E1
:101F90004A8008E0C8244C804C79641C4C710B7159
:101FA000CB714C88C4B98C790444E4B28C71C82CD0
:101FB00001D98A710B720224CC710DE00A718A7109
:101FC0004C88AC4201D204444C80CC79012C03D122
:101FD0004C88AC4200D30B72C9680029C6D170BDD1
:101FE000B40000207CB50025164C8DF800508DF80B
:101FF00004500646E07AA17A88420AD00120FFF711
:1020000091F8E07AA17A884203D03070E172A17031
:1020100015E0A1780C48491E032902D8012141701E
:1020200000E0457001AA69460748FFF76DF80028EF
:1020300006D09DF80000022801D1A0783070012060
:102040007CBD000010000020E40500202DE9F041D7
:1020500086B000241F48009401940294039481697F
:1020600041F020018161816901F0200104918169C1
:1020700041F004018161816901F0040104918169E9
:1020800041F0080181618069134F00F0080004905D
:10209000002250213846FFF747F9DFF84080002240
:1020A00001214046FFF740F9502001250226CDE9E5
:1020B0000005CDE9024669463846FFF745F8039624
:1020C0000095CDE9015469464046FFF73DF806B05A
:1020D000BDE8F0810010024000080140000C014002
:1020E000104810B50E4901604FF482714160002123
:1020F0008160C1604FF400720161C0E905120822DD
:10210000C0E90721416281620A21C162FFF7FCFB3D
:10211000002803D0BDE81040FEF789BE10BD0000C6
:10212000003001404401002010B586B0002417485B
:10213000009401940294039404941349059401605B
:102140004721C0E9011440F2E731C0E903144461BA
:102150008461FFF75FFD08B1FEF769FE4FF4805020
:10216000009069460948FFF7CDFD08B1FEF75FFE14
:10217000049404A905480594FFF718FD002801D030
:10218000FEF755FE06B010BD002C01409C0100205A
:102190003EB50023174A19463220FEF79EFB16482B
:1021A00001251649457400240160CDE90045234608
:1021B000224621461148029400F08CFD1049C1616D
:1021C0000E48FEF7B1FB322201210C48FEF7B4FBAA
:1021D00000230A48CDE900451A46194634300294D6
:1021E00000F078FD0749C161BDE83E400348343046
:1021F000FEF79ABB0D2500083C000020F4050020E6
:10220000753D0008213D0008FEE7704770477047A4
:102210002DE9FC5F804657A014460068019056489F
:102220000D4682469B4601F0E1FD00260746B14679
:10223000022845D3584601F0D9FD022840D19BF829
:1022400000107F293CD97F1E3DE000BF1AF8060030
:102250007F2837D9761C9BF801001AF8062009F16F
:10226000010982422ED10AEB060010F8010C8842C7
:1022700028D1B9F1000F23D0B8F1000F26D005F115
:102280000F0104F10F00002D26DB002C24DBB8F831
:1022900004208A4220DDB8F8062082421CDDB8F80E
:1022A0000200204400B20090B8F80000284403B2B5
:1022B000324800EB491201A90020203AFEF770FDD8
:1022C000BDE8FC9F761CBE42C0D3F9E72B482B46E5
:1022D00000EB49120094EEE7002D01DA6A4200E0BB
:1022E000002212B20092002C01DA624200E00022C9
:1022F000B8F8043012B28B4201DD102100E0591B06
:102300000FFA81FAB8F80610814201DD102000E0D2
:10231000081B0FFA80FBD6B229E00098C7B222E072
:102320004FEA4900801E00EBD601144806F0070270
:1023300000EB01100121C05D9140084205D0A019B9
:1023400002B2E81901B2012308E00D480078022822
:1023500007D1A01902B2E81901B20023404600F0EB
:1023600071F97F1CFFB25745DADB761CF6B25E4589
:10237000D3DBA5E710100000A8440008AD44000816
:10238000150000202DE9F14F3C4800250468002C81
:1023900071D02046016939B10289012A04D0CA7A74
:1023A000012A01D00846F5E7814620004FF00006DB
:1023B00001D1304609E0C16839B10A89012A04D047
:1023C000C27A012A01D00846F5E780460CB93446A6
:1023D00004E02089012801D02469FAE7201E01D1F8
:1023E000304606E0C16821B10A89012A01D00846B9
:1023F000F8E7DFF888B007464FF0010AABF12C0B85
:10240000206A28B34C4501D1012500E025B394F89A
:102410002410490624D402880099114489B201800D
:10242000206A4288914210D30680E08C40F001007F
:10243000E08408E00680E08C40F00100E084E1697F
:1024400009B1204688478BF809A0444500D10025F2
:10245000BC4210D0E468D3E794F824104906F4D5C0
:1024600002880099114489B20180206A4288914211
:10247000E0D2EAE7FFE7BDE8F88F00003C0000206B
:1024800010B500F0F5F9FFF783FE01F0D5FC024925
:102490000120087010BD000018000020002809D09D
:1024A000002305E039B10069002803D05B1C9BB212
:1024B0009342F7D37047C068F6E7002808D0018937
:1024C000012905D00169CA7A012A01D00846F6E738
:1024D000704700280AD0C168002907D00A89012A5C
:1024E00004D0C27A012A01D00846F4E77047000000
:1024F00010B5044601F0DEFB002803D00249CA688B
:102500002244CA6010BD00001000002004490A796E
:1025100008B1104402E0002A01D10120087170477F
:10252000340000202DE9F041444CE07800B3601CF9
:10253000FFF758FDFEF7A2FD607A002618B166721B
:102540000020FFF7E3FFDFF8F48008F1240898F893
:10255000040000286DD008F108052868002868D01C
:1025600000F096FCFEF71EFBE079012805D00DE097
:102570003248C01C00F0C0FCDCE7206928602661FE
:10258000A07901F0FFFAA6710220E071D5E90001FF
:10259000814202D0207801F0F5FAFFF736FE284894
:1025A000006801F0F9FA286800F0C4FBFFF72FFE7D
:1025B0002868A26972B1FEF74EFD90F82410090652
:1025C00008D501E092682AB111688142FAD15068B9
:1025D00000B180472B681846FFF76FFF0546184685
:1025E000FFF777FF0746284601F012FB18B995F868
:1025F0002400800603D5E96909B12846884700F020
:10260000C7FABD4201D0ED68EDE70C482C30817C63
:10261000012904D103216171FEF74CFB6671FFF7BC
:10262000F5FD01F0C9FA667098F80410491E88F8A3
:102630000410BDE8F041FEF793B90000100000203F
:10264000B0000020F0B4002815D0048845888688A2
:102650000C44154424B22DB28E420CDDC088904249
:1026600009DD002907DB002A05DB29462046F0BCEE
:102670001A4601F0F3BBF0BC704700002DE9FE4F95
:10268000824663480E4615464769A3F120025F2A39
:1026900039787C78894600D32023203B03F0FF0B58
:1026A000BAF1000F39D0721E8B1834D4691E14EBA6
:1026B000010C30D4BAF80410B1422CDDBAF806008F
:1026C000A84228DD002E3EDB002D3CDB504A8B4229
:1026D00039DA844537DA04EB8400C0F39C010A2020
:1026E000B1FBF0F300FB131000284FEAD40000D038
:1026F000401C12690BFB09F101FB0022BAF8020031
:10270000284400B20090BAF80000304403B23946C1
:102710000020FEF745FBBDE8FE8F04EB8401C1F30A
:102720009C020A21B2FBF1F301FB132100294FEABD
:10273000D40100D0491C00690BFB09F202FB010225
:1027400033460095E3E7002E01DA724200E00022F2
:1027500012B20292002D01DA6A4200E0002206EB7A
:1027600009035B1E12B28B4201DA494600E0891B65
:1027700009B201912919491E814201DA204600E07F
:10278000401B00B20090D0B23DE00298C7B234E0E6
:1027900004EB8400C0F39C010A20B1FBF0F200FBC3
:1027A000121000284FEAD40000D0401C0BFB09F1A6
:1027B00048434FEAD80209FB020115480069384432
:1027C000085C08F00701C84010F0010F06D008EBC4
:1027D000050002B2B81901B2012309E00D480078E2
:1027E000022808D108EB050002B2B81901B2002393
:1027F0005046FFF727FF7F1CFFB201988742C7DBD7
:1028000008F10100C0B2009980468842BDDB82E732
:1028100018010020150000202DE9F0470F468146E1
:102820001D4690460C211048FEF7C8F90E4C0F4E7D
:102830000CE0424639464846FFF720FF70690078B1
:10284000384407B22088401C20806D1C2B78002B58
:10285000EFD170690178A1714078E0712088484318
:10286000A0800148BDE8F087D206002018010020B2
:10287000064810B5002141740121817400F04AF826
:10288000BDE8104001210248FFF74ABB3C00002090
:10289000E405002010B504460748007A00280AD055
:1028A0002046FFF76FFD2046FEF700FC2046BDE8FE
:1028B0001040FFF753BB10BD10000020002808D0C7
:1028C0000279D30703D142F00102016002718068EE
:1028D000F4E77047FEE7F0B50446002901DA4A4202
:1028E00000E00A4696B200280AD00025CF0F0DE07E
:1028F00001223946FFF7D2FD08B1A04201D120469E
:10290000F0BD817A012901D16D1CADB2B542EFD382
:10291000F0BD000070B5594C002210212046FEF792
:1029200003FD012240212046FEF7FEFC6420FEF755
:10293000F9FB002240212046FEF7F6FC6420FEF75A
:10294000F1FB012240212046FEF7EEFC0021AE20E3
:1029500000F0ACF80021084600F0A8F80021102093
:1029600000F0A4F80021402000F0A0F80021812010
:1029700000F09CF80021CF2000F098F80021A12061
:1029800000F094F80021C82000F090F80021A62063
:1029900000F08CF80021A82000F088F800213F20EA
:1029A00000F084F80021D32000F080F800210846D0
:1029B00000F07CF80021D52000F078F8002180207C
:1029C00000F074F80021D92000F070F80021F12007
:1029D00000F06CF80021DA2000F068F800211220E5
:1029E00000F064F80021DB2000F060F800214020B6
:1029F00000F05CF80021202000F058F80021084683
:102A000000F054F800218D2000F050F8002114202F
:102A100000F04CF80021A42000F048F80021A62086
:102A200000F044F80021AF2000F040F80021AF2072
:102A300000F03CF85FF0000404F1B000C0B20021E7
:102A400000F034F80021084600F030F80021102092
:102A500000F02CF800250121002000F027F86D1C63
:102A6000EDB2802DF7D3641CE4B2082CE4D3BDE8AA
:102A700070400021084600F003B800000008014043
:102A800010B50446B031C8B2002100F00FF8102094
:102A900040EA1410002100F009F804F00F00BDE82E
:102AA000104040F001000021AFF3008013B50B4C43
:102AB00009B1012200E0002201212046FEF734FC8A
:102AC0004FF0FF33012269460548FEF7A5FF0122BA
:102AD00011462046FEF728FC1CBD0000000C0140FA
:102AE00044010020704700002DE9F05F9946DDF8B1
:102AF00028A01646834621B10F7891F80180002462
:102B000038E0377896F80180961CF8E700252DE02C
:102B1000E00878437119405C04F00701C84010F0E8
:102B2000010F10D0BBF1000F04EB0A0005D002B278
:102B300005EB090001B2012313E001B205EB090026
:102B400000B201221FE01148007802280CD1BBF12D
:102B5000000F04EB0A0011D002B205EB090001B22C
:102B600000235846FFF76EFD6D1CEDB2BD42CFD37A
:102B7000641CE4B24445C9D3BDE8F09F01B205EB43
:102B8000090000B2002201F069F9EDE7150000200C
:102B900004480178002903D003490161891E41617D
:102BA0007047000018010020B83E0008F8B515462F
:102BB0000E460B46009204460122022100F010F856
:102BC00040B93346002280212046009500F008F8E5
:102BD000002804D0606D40F0200060650320F8BD3F
:102BE0002DE9F8431E46914688460446089DFEF7A7
:102BF000A1FB401B351AFEF79DFB074625480068E0
:102C0000C0F3CB30684338E0701C37D0FEF792FB3E
:102C1000C01BA84203D215B1009860B32CE0206815
:102C2000416821F0E00141606068B0F5827F0BD11E
:102C3000A068B0F5004F02D0B0F5806F04D12068D5
:102C4000016821F040010160A06AB0F5005F09D180
:102C50002068016821F4005101602068016841F496
:102C600000510160012084F85100002084F85000D8
:102C70000320BDE8F8830025401E0090206881688D
:102C800038EA010004D000214945BDD10020F0E719
:102C90000121F9E70C0000207047000070B5002802
:102CA000049E14D00A4DAC6814B9A86004E02C4608
:102CB000A568002DFBD1A060002401258460C575A6
:102CC0008475C0E9004102754475C0E9033670BDE2
:102CD000B40000202DE9F0471E46DDE909A5DDF826
:102CE000209017468846041E21D03421FDF766FF48
:102CF000002345B12846FEF7B6F9C460206100897B
:102D0000401C208102E0012020812361A4F8008082
:102D10006780A680A4F8069084F80AA0E372E360B6
:102D20006361A361E361A384E38420462362BDE879
:102D3000F08700002DE9F84FDFF850810346D8F8FE
:102D40001C00FEF790F98346D8F82000FFF7C1FB7E
:102D500082461846FEF77FF981461846FEF783F94A
:102D600000901846FFF7A9FB05461846FFF7B1FB90
:102D70000746D8F81C00002658B94846C8F81C90E9
:102D8000FEF771F983462846C8F82050FFF7A1FBEB
:102D90008246D8F81C404C454CD000BF94F8240023
:102DA000400706D5E08C40F00400E084E16920464D
:102DB0008847D8F82000844201D1012600E056B1AE
:102DC00094F82400C00606D5E08C40F01000E084A2
:102DD000E16920468847544500D100265C4501D072
:102DE000E468DBE74FEA090494F82400800706D57D
:102DF000E08C40F00200E084E16920468847AC4264
:102E000001D1012600E056B194F82400000706D550
:102E1000E08C40F00800E084E16920468847BC422D
:102E200000D100260098844201D0E468DCE7C8F8AD
:102E30001C9022E0D8F82040AC4224D094F8240022
:102E4000C00606D5E08C40F01000E084E169204621
:102E50008847544501D0E468F0E72C4694F82400F4
:102E6000000706D5E08C40F00800E084E1692046C8
:102E70008847BC4201D0E468F0E7C8F82050BDE8BC
:102E8000F84FFDF78FBEBDE8F88F0000100000205E
:102E900010B5184C0023A4F12C02D4E900018142A2
:102EA00000D0D3716060117999B151781170012906
:102EB00015D0022916D0032919D0042916D1FEF7FE
:102EC000CAF88069002811D0817A01290ED1537087
:102ED0000BE00848BDE81040283800F00DB84FF06E
:102EE000FF3100E00121FFF7F6FC206010BD4069D2
:102EF000E8E700003C000020044A0021D31C1170C8
:102F0000984201D19170517070470000100000206C
:102F10002DE9F04105460746002634460C211E489F
:102F2000FDF74CFE01E0761CB6B217F8010B002845
:102F3000F9D11A494A69184914E02B5C7F2B07D94B
:102F40004B88401C5B1C103480B24B80A4B207E05D
:102F50000A2B17D0137823449CB20B885B1C0B8080
:102F6000401C80B2B042E8D3107888715078C871A4
:102F70001020087248728888A04200D28C800648CF
:102F8000BDE8F0818B7A5B1C8B728B88A34200D2E8
:102F90008C800024E1E700000207002018010020D7
:102FA000FEF7CEB930B58FB028216846FDF7D3F8CB
:102FB00014210AA8FDF7CFF801210804CDE900107B
:102FC0000024029402250491CDE907504FF4E0104B
:102FD00009906846FEF708FB08B172B6FEE70F20BD
:102FE000CDE90A054FF48060CDE90C4002210AA822
:102FF0000E94FEF73DFA002801D072B6FEE70FB03E
:1030000030BD70470148FEF7ECBE00009C01002077
:10301000F0B50268194B1A4C1A4D4FF08047984290
:1030200005D0B84203D0A04201D0A84203D122F07B
:1030300070064A683243984205D0B84203D0A04295
:1030400001D0A84203D122F44074CA6822434C69DB
:1030500022F08002224302608A68C2620A688262A9
:10306000984201D109690163012141610169C907E0
:1030700003D0016921F001010161F0BD002C014084
:10308000000400400008004010B5846842EA0322B2
:1030900024F47F440A432243826010BD826822F0F8
:1030A00070020A4342F007018160704710B5036A5D
:1030B000046A24F001040462846924F0F00444EA00
:1030C000021423F00A020A438461026210BD10B5A3
:1030D000036A046A24F010040462846923F0A003E4
:1030E00024F4704444EA023243EA0111826101622D
:1030F00010BD2DE9F04190460A460446414610466F
:10310000FDF786F805462168FDF788F80646A08990
:10311000FDF747FA3146FDF763FAA08902D2FDF7C1
:1031200040FA0CE04042FDF733FA3146FDF762FA0F
:1031300004D2A0894042FDF72BFA00E03046064653
:1031400029466069FDF712F807466061A089FDF71E
:1031500028FA3946FDF744FAA08902D2FDF721FA90
:103160000CE04042FDF714FA6169FDF743FA04D21E
:10317000A0894042FDF70CFA00E0606960612846D2
:103180002169FDF745F807462561A089FDF709FA91
:103190003946FDF725FAA08902D2FDF702FA0CE0C4
:1031A0004042FDF7F5F93946FDF724FA04D2A0892B
:1031B0004042FDF7EDF900E03846A168FDF72EF832
:1031C000054661686069FDF729F83146FCF7CEFFD6
:1031D0002946FCF7CBFF0546A089FDF7E2F9294611
:1031E000FDF7FEF9A08902D2FDF7DBF90CE04042C1
:1031F000FDF7CEF92946FDF7FDF904D2A08940423A
:10320000FDF7C6F900E0284601464046BDE8F0411A
:10321000FCF7ACBF10B50022002806D0C38C0B42CF
:1032200002D001228B43C384104610BDFEE700008C
:1032300010B57F2818DA402916DA002814DB002997
:1032400012DBCB1701EB5374E31024F0070400EBFF
:10325000C3100C1B054B0121A140002A1A5C01D0B0
:103260000A4300E08A431A5410BD0000E401002024
:103270007CB50C001D461646014601D0601E00E0DC
:103280000020CDE90010064B6A462946304600F082
:10329000EBF8002C02D0009A002111707CBD0000D8
:1032A0006F3B00080907090E002804DB00F1E0204D
:1032B00080F80014704700F00F0000F1E02080F863
:1032C000141D704702E008C8121F08C1002AFAD175
:1032D00070477047002001E001C1121F002AFBD196
:1032E000704700002DE9FF5F82B00021DDE9043066
:1032F000020DDDF840B0034318D044F61050A2F29E
:10330000FF3242431514119801281FD0A5EB0B0082
:10331000401C5FEA000A4FF000064E4FDFF838917C
:10332000B046504615D5CAF1000413E011980124A7
:103330004AA3012801D16FEA0B010298119AC0E952
:103340000031C0E9024206B0BDE8F09FCBF10000B9
:10335000DFE704460021404A491842EB0450CDE91A
:10336000001012E0E00707D032463B46404649468F
:10337000FDF72DF88046894632463B4610461946F1
:10338000FDF725F806460F466410002CEAD1DDE96A
:103390000401DDE90023BAF1000F06DAFDF717F8A2
:1033A00042464B46FDF713F805E0FDF782F842462A
:1033B0004B46FDF77EF804460E460022284BFDF7EB
:1033C00037FA03D84FF0FF30014607E00022254BC3
:1033D00020463146FCF754FFFDF712FA102409E0AD
:1033E000002C0ADB0A220023FDF724F9039B30326C
:1033F0001A55641E50EA0102F2D1641C039AC4F10A
:1034000011031444119A012A03D0012208430DD15B
:103410000AE0084304D000204FF0110B119072E72E
:10342000A3EB0B056D1E0DE05B4504DD4FF00002C4
:1034300005F1010504E003DA4FF00002A5F10105F2
:10344000002AECD002981199C0E90231C0E9004588
:1034500079E70000000014400000F03F3000000059
:103460000000F0430000E03F2DE9FF4F95B09A4681
:10347000884606460025EEE1252877D10024274618
:10348000F94A0121039400E0044316F8013F203B70
:1034900001FA03F01042F7D130782A2811D06FF0EA
:1034A0002F033078A0F13002092A16D8039A44F08D
:1034B000020402EB820203EB42021044761C0390EA
:1034C000EFE758F8042B0392002A03DA504244F441
:1034D0000054039044F00204761C30782E2816D154
:1034E00016F8010F44F004042A280DD06FF02F02C3
:1034F0003078A0F13003092B09D807EB870302EBE2
:103500004303C718761CF3E758F8047B761C307821
:103510006C280FD006DC4C2817D068280DD06A28FC
:1035200014D104E0742810D07A280FD10DE044F4AF
:1035300000140AE044F4801401E044F4401472786A
:10354000824202D104F58014761C761C30786628FD
:103550000BD013DC582877D009DC002875D045281B
:10356000F6D04628F4D047281AD193E118E0632812
:1035700035D0642879D0652812D18BE1702873D0BA
:1035800008DC6728F1D069286FD06E280DD06F282D
:1035900006D1ACE073282CD0752874D0782853D08D
:1035A0005246179990476D1C54E1C4F3025002280B
:1035B00009D003280DD0D8F8001004280DD00D60D4
:1035C00008F1040846E1D8F80010EA17C1E90052F2
:1035D000F6E7D8F800100D80F2E70D70F0E718F864
:1035E000041B8DF8001000208DF80100EB4601202F
:1035F00003E058F804BB4FF0FF3061074FF00001C3
:1036000002D40DE009F101018946B9420FDA814582
:10361000F8DB1BF809100029F4D108E009F10101D9
:1036200089468142FADB1BF809100029F6D103987C
:103630005346A0EB090721463846179A00F080FA56
:10364000284400EB090507E044E008E10DE01BF821
:10365000010B524617999047B9F10109F7D2534629
:1036600021463846179AF2E039E00A21C4F30252A3
:103670004FF0000B0091022A06D058F8040BC11736
:10368000032A09D00AE023E008F1070020F007022E
:10369000F2E80201904605E000B2C117042A01D108
:1036A00040B2C117002906DA0A460021404261EB08
:1036B00002012D2202E0220504D52B228DF80420E0
:1036C000012203E0E20701D02022F7E7914657E00C
:1036D0000A2100E010214FF0000B00910BE01021B7
:1036E0004FF0000B44F004040827009103E0082089
:1036F0004FF0000B0090C4F30252022A05D058F894
:10370000040B0021032A08D008E008F1070020F08C
:103710000702F2E80201904603E080B2042A00D1D9
:10372000C0B24FF0000922072AD53278702A07D09C
:10373000DDF800C08CF0100C5CEA0B0C05D00EE03C
:1037400040228DF80420012208E050EA010306D04F
:1037500030238DF804308DF8052002229146009B1D
:1037600083F0080353EA0B030AD150EA010201D1A6
:10377000620705D530228DF804204FF001097F1E25
:103780003278582A04D039A20C920CAA02920BE08B
:103790003BA2F9E75B46009AFCF74CFF0C9B9B5C55
:1037A000029A521E0292137050EA0102F2D102985C
:1037B00004A9081A00F1200B600702D524F4803414
:1037C00000E001275F4502DDA7EB0B0000E00020D1
:1037D00000EB0B01009003984944401A0390E0036A
:1037E00006D453462146179A039800F0A9F90544D8
:1037F000002706E001A85246C05D179990476D1C4E
:103800007F1C4F45F6DBE0030CD553462146179A43
:10381000039800F095F9054404E0302052461799CA
:1038200090476D1C0099481E00900029F5DC08E0C7
:103830000298029952460078491C029117999047C4
:103840006D1CBBF10001ABF1010BF1DC5BE100F0A1
:1038500065F90544761C307800287FF40DAE19B068
:103860002846BDE8F08F00000928010030313233CE
:1038700034353637383961626364656600000000AC
:103880003031323334353637383941424344454696
:1038900000000000600700D4062708F1070020F0B0
:1038A0000700F0E80223804603F0004C5FEA0C00BA
:1038B00001D097A009E0200501D596A005E0E0071A
:1038C00001D095A001E0AFF24C001390307823F0C6
:1038D000004365280CD006DC452809D046281DD0B9
:1038E00047287FD13BE0662818D067287AD136E098
:1038F0000021112F01DB112000E0781CCDE900012F
:1039000004A90CA8FFF7EEFCDDE90D010C9A4FF0BD
:10391000000B07F10109109200914EE04FF00040BA
:103920000097CDE9011004A90CA8FFF7DBFCDDE945
:103930000D020C9B0F994FF0000B914610930092D3
:1039400011B9791C00EB0109B7EB090003D4C0F1F0
:10395000FF3B07F10109A9EB0700019042E0012FAD
:1039600000DA01270021112F01DD112000E0384687
:10397000CDE9000104A90CA8FFF7B4FCDDE90D01B5
:103980000C9A00914FF0000BB946109221070FD40A
:10399000009A4A4503DA914601E0A9F10109B9F11B
:1039A000010F05DD109AA9F10101515C3029F4D015
:1039B000B84202DA10F1040F03DA0121CDE9011057
:1039C00010E0002803DC8344A9EB000102E0411C65
:1039D000494500DD8946A0EB0B00401C01904FF0EB
:1039E00000400290200705D40198484502DB4FF0C3
:1039F000FF30019000208DF84B0002980DF14B072D
:103A0000B0F1004F25D002200C902B200D90029891
:103A100000280CDA404202902D200D9007E00A2188
:103A20000298FCF7F1FD3031029007F8011D0C9966
:103A3000481E0C900029F2DC02980028EFD1791E74
:103A40000D980870307800F0200040F0450007F82D
:103A5000020D11A8C01BC01D02901398007800B180
:103A6000012000EB0901019801EBE071029801448B
:103A70000398401A401E0390E00306D453462146A3
:103A8000179A039800F05CF805441398007818B171
:103A90005246179990476D1CE00323D553462146A3
:103AA000179A039800F04CF805441BE0BBF1000F97
:103AB00007DB0098584504DD1098179910F80B00A3
:103AC00001E0179930205246904701980BF1010B05
:103AD000401E05F10105019004D12E205246179990
:103AE00090476D1CB9F10001A9F10109DEDC05E088
:103AF00017F8010B5246179990476D1C0299481E02
:103B000002900029F4DC53462146179A03989EE65A
:103B10002D0000002B000000200000002DE9F041E6
:103B2000044600251E461746880404D405E039469D
:103B30002020B0476D1C641EF9D52846BDE8F081F1
:103B40002DE9F041044600251E469046C80301D5E4
:103B5000302700E02027880404D505E04146384698
:103B6000B0476D1C641EF9D52846BDE8F0814A684F
:103B7000002A06D00A68531C0B6010704868401E6B
:103B80004860704703490A78002A02D04860002044
:103B900008707047B400002010B5002808D0054C0C
:103BA0002178002904D16168FEF788FE0120207089
:103BB00010BD0000B400002010B500210846FEF73B
:103BC0005FFF012211460848FDF7AEFB07484FF69C
:103BD000FF714FF0FF334088BDE8104001EAC0128A
:103BE00003490448FDF718BF000C014034000020D1
:103BF000E401002044010020044AD379002B03D1C2
:103C0000106191710120D0717047000010000020F8
:103C1000B0F9001080290FDAB0F90220402A0BDA3F
:103C2000002901DB002A09DA83881944002903DD11
:103C3000C0881044002801DC002070470120704734
:103C4000FEF770BC0FB4F8B514460D4606460AAB35
:103C500064210C48099AFFF70BFB0A48FFF758F953
:103C600041880848002900904FF000032246294669
:103C7000304604D0FCF7ECFEF8BC5DF814FBFCF712
:103C800071FEF9E70E070020FDF762FBFFF78AF9E6
:103C9000FEF7DCF9FEF724FAFEF746FA0448FEF7D1
:103CA00005F800F0D9F800BFFFF7CAFFFCE70000F5
:103CB0009C010020F0B50B30154D20F007010024C9
:103CC000144A0FE003688B420BD38B4205D95E1A6E
:103CD00043184768C3E9006700E04368136002C007
:103CE00004E0021D10680028ECD12046002802D113
:103CF000286808B10020F0BD064A07481060074A4E
:103D0000121A22F00702C0E9002401202860D7E738
:103D1000400100203C0100207C07002078090020A1
:103D200038B50546FCF73BFF0F4C60B1A068FFF7C4
:103D3000EFF8017961700021298069808021A980D4
:103D4000C079E88038BD6078A16800910749C0F16A
:103D5000800000EBD070B1F90A20411004A30020CC
:103D6000FFF770FF38BD00000C0100203C00002070
:103D70002573000038B50546FCF711FF184CA8B1B3
:103D80006068FFF7C5F88188C1F1800101EBD1714E
:103D900049102980C179C1F1400101EBD17149106D
:103DA00069808188A980C079E88038BD01212846D2
:103DB000FFF730FA10B12078401C207020781E28C0
:103DC00005D10020207003210648FFF715FF606829
:103DD0000022009004A311462846FFF733FF38BDA8
:103DE0000C01002028060020257300000146002059
:103DF00000E0401C0A5C002AFBD1704730B5CA17AE
:103E000001EB5274E3100022002810DB00290EDBC6
:103E100005467F280BDA402909DA064A05EBC3106C
:103E2000105C24F00702891AC84000F00102104615
:103E300030BD0000E4010020064810B5446906E0EA
:103E4000207A18B12068C16901B188476468002CE4
:103E5000F6D110BD10000020FEF712BB70B505466C
:103E60000B480C46007868B101280AD0032809D114
:103E70002846FFF7C3FF10B10022214602E00122CD
:103E8000FBE700222846BDE87040FFF7D1B90000EB
:103E900015000020010202030405060708090A0BA9
:103EA0000C0D0E0F101000000000000000000102B9
:103EB00003040607080908100000000000000000C5
:103EC0000000000000000000000000F800000000FA
:103ED000000000333000000000100C06100C06003B
:103EE000000000000000000040C07840C0784000A2
:103EF000043F04043F040400007088FC0830000004
:103F0000001820FF211E0000F008F000E01800005B
:103F100000211C031E211E0000F008887000000014
:103F20001E2123241927211010160E000000000066
:103F30000000000000000000000000E01804020083
:103F4000000000071820400000020418E0000000F4
:103F50000040201807000000404080F080404000F2
:103F60000202010F01020200000000F00000000048
:103F70000101011F0101010000000000000000001C
:103F800080B0700000000000000000000000000091
:103F9000000101010101010100000000000000001A
:103FA00000303000000000000000000080601804B5
:103FB000006018060100000000E010080810E00092
:103FC000000F102020100F00001010F8000000005B
:103FD0000020203F202000000070080808887000A2
:103FE0000030282422213000003008888848300022
:103FF0000018202020110E000000C02010F8000042
:1040000000070424243F240000F8088888080800DA
:104010000019212020110E0000E0108888180000EF
:10402000000F112020110E0000380808C8380800C1
:104030000000003F00000000007088080888700041
:10404000001C222121221C0000E010080810E000C2
:104050000000312222110F00000000C0C00000004B
:104060000000003030000000000000800000000070
:104070000000806000000000000080402010080068
:104080000001020408102000404040404040400031
:10409000040404040404040000081020408000000C
:1040A0000020100804020100007048080808F00011
:1040B0000000003036010000C030C828E810E000E1
:1040C0000718272423140B000000C038E00000006C
:1040D000203C23020227382008F8888888700000D6
:1040E000203F202020110E00C030080808083800AA
:1040F000071820202010080008F808080810E00021
:10410000203F202020100F0008F88888E8081000C1
:10411000203F20202320180008F88888E808100095
:10412000203F200003000000C030080808380000CD
:1041300007182020221E020008F808000008F808CE
:10414000203F210101213F20000808F80808000055
:104150000020203F2020000000000808F808080088
:10416000C08080807F00000008F888C02818080000
:10417000203F20012638200008F808000000000039
:10418000203F20202020300008F8F800F8F8080030
:10419000203F003F003F200008F830C00008F8082A
:1041A000203F200007183F00E01008080810E0003A
:1041B0000F10202020100F0008F808080808F00051
:1041C000203F210101010000E01008080810E00074
:1041D0000F18242438504F0008F888888888700009
:1041E000203F2000030C30200070880808083800A9
:1041F0000038202121221C00180808F8080818009F
:104200000000203F2000000008F808000008F8081F
:10421000001F202020201F000878880000C83808D0
:10422000000007380E010000F80800F80008F80048
:10423000033C0700073C03000818688080681808E2
:1042400020302C03032C30200838C800C838080060
:104250000000203F2000000010080808C8380800AF
:104260002038262120201800000000FE0202020053
:104270000000007F40404000000C30C00000000003
:10428000000000010638C00000020202FE0000002B
:10429000004040407F0000000000040202020400D1
:1042A000000000000000000000000000000000000E
:1042B00080808080808080800002020400000000F6
:1042C00000000000000000000000808080800000EE
:1042D0000019242222223F2008F8008080000000DC
:1042E000003F112020110E0000000080808000009F
:1042F000000E112020201100000000808088F800AE
:10430000000E112020103F200000808080800000DF
:10431000001F222222221300008080F08888881843
:104320000020203F2020000000008080808080004E
:10433000006B94949493600008F8008080800000E3
:10434000203F210000203F200080989800000000BE
:104350000020203F202000000000008098980000EE
:1043600000C08080807F000008F80000808080000E
:10437000203F24022D302000000808F80000000033
:104380000020203F202000008080808080808000EE
:10439000203F20003F20003F808000808080000080
:1043A000203F210000203F2000008080808000000E
:1043B000001F202020201F0080800080800000003F
:1043C00080FFA12020110E0000000080808080006E
:1043D000000E112020A0FF8080808000808080005F
:1043E00020203F212000010000008080808080008C
:1043F0000033242424241900008080E08080000001
:104400000000001F2020000080800000008080004D
:10441000001F202020103F208080800000808080AE
:1044200000010E300806010080800080008080803E
:104430000F300C030C300F00008080008080800063
:104440000020312E0E31200080808000008080808E
:1044500080818E701806010000808080808080003E
:104460000021302C2221300000000000807C02025C
:1044700000000000003F404000000000FF0000007E
:1044800000000000FF0000000002027C800000002D
:104490000040403F00000000000601010202040449
:1044A0000000000000000000D7CCC9FA0010600234
:1044B0008C0008C8398E0808CC3B88080004047EAC
:1044C0000100635A46E100635A46E1000080403033
:1044D0001E101010FF10101010101000004040426D
:1044E000424242427F42424242424040000000007B
:1044F0004B32313020544553540000006B32313080
:1045000020544553540000002845000800000020B6
:104510004401000084080008784500084401002098
:10452000340C0000D43200083201821043127A2A7F
:104530000114011C12801208A92445F6FFF6FF623F
:10454000031E3F9A99993E04E3BE0F094618B97CB1
:10455000692C810A21231885CDCCCC3EE95C13F06F
:10456000441B08FC04411A64028113B83E1B08B6C0
:08457000044BB83F08C1000034
:04000005080000ED02
:00000001FF
